{
	"contracts/PersonStruct.sol": {
		"PersonStruct": {
			"abi": [
				{
					"inputs": [
						{
							"internalType": "string",
							"name": "_name",
							"type": "string"
						},
						{
							"internalType": "uint256",
							"name": "_age",
							"type": "uint256"
						}
					],
					"stateMutability": "nonpayable",
					"type": "constructor"
				},
				{
					"inputs": [],
					"name": "getPerson",
					"outputs": [
						{
							"internalType": "string",
							"name": "",
							"type": "string"
						},
						{
							"internalType": "uint256",
							"name": "",
							"type": "uint256"
						}
					],
					"stateMutability": "view",
					"type": "function"
				},
				{
					"inputs": [
						{
							"internalType": "string",
							"name": "_name",
							"type": "string"
						},
						{
							"internalType": "uint256",
							"name": "_age",
							"type": "uint256"
						}
					],
					"name": "updatePerson",
					"outputs": [],
					"stateMutability": "nonpayable",
					"type": "function"
				}
			],
			"devdoc": {
				"kind": "dev",
				"methods": {},
				"version": 1
			},
			"evm": {
				"assembly": "    /* \"contracts/PersonStruct.sol\":59:483  contract PersonStruct{... */\n  mstore(0x40, 0x80)\n    /* \"contracts/PersonStruct.sol\":172:255  constructor(string memory _name, uint _age){... */\n  callvalue\n  dup1\n  iszero\n  tag_1\n  jumpi\n  0x00\n  dup1\n  revert\ntag_1:\n  pop\n  mload(0x40)\n  sub(codesize, bytecodeSize)\n  dup1\n  bytecodeSize\n  dup4\n  codecopy\n  dup2\n  dup2\n  add\n  0x40\n  mstore\n  dup2\n  add\n  swap1\n  tag_2\n  swap2\n  swap1\n  tag_3\n  jump\t// in\ntag_2:\n    /* \"contracts/PersonStruct.sol\":228:246  Person(_name,_age) */\n  mload(0x40)\n  dup1\n  0x40\n  add\n  0x40\n  mstore\n  dup1\n    /* \"contracts/PersonStruct.sol\":235:240  _name */\n  dup4\n    /* \"contracts/PersonStruct.sol\":228:246  Person(_name,_age) */\n  dup2\n  mstore\n  0x20\n  add\n    /* \"contracts/PersonStruct.sol\":241:245  _age */\n  dup3\n    /* \"contracts/PersonStruct.sol\":228:246  Person(_name,_age) */\n  dup2\n  mstore\n  pop\n    /* \"contracts/PersonStruct.sol\":226:227  p */\n  0x00\n    /* \"contracts/PersonStruct.sol\":226:246  p=Person(_name,_age) */\n  dup1\n  dup3\n  add\n  mload\n  dup2\n  0x00\n  add\n  swap1\n  dup2\n  tag_6\n  swap2\n  swap1\n  tag_7\n  jump\t// in\ntag_6:\n  pop\n  0x20\n  dup3\n  add\n  mload\n  dup2\n  0x01\n  add\n  sstore\n  swap1\n  pop\n  pop\n    /* \"contracts/PersonStruct.sol\":172:255  constructor(string memory _name, uint _age){... */\n  pop\n  pop\n    /* \"contracts/PersonStruct.sol\":59:483  contract PersonStruct{... */\n  jump(tag_8)\n    /* \"#utility.yul\":7:82   */\ntag_9:\n    /* \"#utility.yul\":40:46   */\n  0x00\n    /* \"#utility.yul\":73:75   */\n  0x40\n    /* \"#utility.yul\":67:76   */\n  mload\n    /* \"#utility.yul\":57:76   */\n  swap1\n  pop\n    /* \"#utility.yul\":7:82   */\n  swap1\n  jump\t// out\n    /* \"#utility.yul\":88:205   */\ntag_10:\n    /* \"#utility.yul\":197:198   */\n  0x00\n    /* \"#utility.yul\":194:195   */\n  dup1\n    /* \"#utility.yul\":187:199   */\n  revert\n    /* \"#utility.yul\":211:328   */\ntag_11:\n    /* \"#utility.yul\":320:321   */\n  0x00\n    /* \"#utility.yul\":317:318   */\n  dup1\n    /* \"#utility.yul\":310:322   */\n  revert\n    /* \"#utility.yul\":334:451   */\ntag_12:\n    /* \"#utility.yul\":443:444   */\n  0x00\n    /* \"#utility.yul\":440:441   */\n  dup1\n    /* \"#utility.yul\":433:445   */\n  revert\n    /* \"#utility.yul\":457:574   */\ntag_13:\n    /* \"#utility.yul\":566:567   */\n  0x00\n    /* \"#utility.yul\":563:564   */\n  dup1\n    /* \"#utility.yul\":556:568   */\n  revert\n    /* \"#utility.yul\":580:682   */\ntag_14:\n    /* \"#utility.yul\":621:627   */\n  0x00\n    /* \"#utility.yul\":672:674   */\n  0x1f\n    /* \"#utility.yul\":668:675   */\n  not\n    /* \"#utility.yul\":663:665   */\n  0x1f\n    /* \"#utility.yul\":656:661   */\n  dup4\n    /* \"#utility.yul\":652:666   */\n  add\n    /* \"#utility.yul\":648:676   */\n  and\n    /* \"#utility.yul\":638:676   */\n  swap1\n  pop\n    /* \"#utility.yul\":580:682   */\n  swap2\n  swap1\n  pop\n  jump\t// out\n    /* \"#utility.yul\":688:868   */\ntag_15:\n    /* \"#utility.yul\":736:813   */\n  0x4e487b7100000000000000000000000000000000000000000000000000000000\n    /* \"#utility.yul\":733:734   */\n  0x00\n    /* \"#utility.yul\":726:814   */\n  mstore\n    /* \"#utility.yul\":833:837   */\n  0x41\n    /* \"#utility.yul\":830:831   */\n  0x04\n    /* \"#utility.yul\":823:838   */\n  mstore\n    /* \"#utility.yul\":857:861   */\n  0x24\n    /* \"#utility.yul\":854:855   */\n  0x00\n    /* \"#utility.yul\":847:862   */\n  revert\n    /* \"#utility.yul\":874:1155   */\ntag_16:\n    /* \"#utility.yul\":957:984   */\n  tag_52\n    /* \"#utility.yul\":979:983   */\n  dup3\n    /* \"#utility.yul\":957:984   */\n  tag_14\n  jump\t// in\ntag_52:\n    /* \"#utility.yul\":949:955   */\n  dup2\n    /* \"#utility.yul\":945:985   */\n  add\n    /* \"#utility.yul\":1087:1093   */\n  dup2\n    /* \"#utility.yul\":1075:1085   */\n  dup2\n    /* \"#utility.yul\":1072:1094   */\n  lt\n    /* \"#utility.yul\":1051:1069   */\n  0xffffffffffffffff\n    /* \"#utility.yul\":1039:1049   */\n  dup3\n    /* \"#utility.yul\":1036:1070   */\n  gt\n    /* \"#utility.yul\":1033:1095   */\n  or\n    /* \"#utility.yul\":1030:1118   */\n  iszero\n  tag_53\n  jumpi\n    /* \"#utility.yul\":1098:1116   */\n  tag_54\n  tag_15\n  jump\t// in\ntag_54:\n    /* \"#utility.yul\":1030:1118   */\ntag_53:\n    /* \"#utility.yul\":1138:1148   */\n  dup1\n    /* \"#utility.yul\":1134:1136   */\n  0x40\n    /* \"#utility.yul\":1127:1149   */\n  mstore\n    /* \"#utility.yul\":917:1155   */\n  pop\n    /* \"#utility.yul\":874:1155   */\n  pop\n  pop\n  jump\t// out\n    /* \"#utility.yul\":1161:1290   */\ntag_17:\n    /* \"#utility.yul\":1195:1201   */\n  0x00\n    /* \"#utility.yul\":1222:1242   */\n  tag_56\n  tag_9\n  jump\t// in\ntag_56:\n    /* \"#utility.yul\":1212:1242   */\n  swap1\n  pop\n    /* \"#utility.yul\":1251:1284   */\n  tag_57\n    /* \"#utility.yul\":1279:1283   */\n  dup3\n    /* \"#utility.yul\":1271:1277   */\n  dup3\n    /* \"#utility.yul\":1251:1284   */\n  tag_16\n  jump\t// in\ntag_57:\n    /* \"#utility.yul\":1161:1290   */\n  swap2\n  swap1\n  pop\n  jump\t// out\n    /* \"#utility.yul\":1296:1604   */\ntag_18:\n    /* \"#utility.yul\":1358:1362   */\n  0x00\n    /* \"#utility.yul\":1448:1466   */\n  0xffffffffffffffff\n    /* \"#utility.yul\":1440:1446   */\n  dup3\n    /* \"#utility.yul\":1437:1467   */\n  gt\n    /* \"#utility.yul\":1434:1490   */\n  iszero\n  tag_59\n  jumpi\n    /* \"#utility.yul\":1470:1488   */\n  tag_60\n  tag_15\n  jump\t// in\ntag_60:\n    /* \"#utility.yul\":1434:1490   */\ntag_59:\n    /* \"#utility.yul\":1508:1537   */\n  tag_61\n    /* \"#utility.yul\":1530:1536   */\n  dup3\n    /* \"#utility.yul\":1508:1537   */\n  tag_14\n  jump\t// in\ntag_61:\n    /* \"#utility.yul\":1500:1537   */\n  swap1\n  pop\n    /* \"#utility.yul\":1592:1596   */\n  0x20\n    /* \"#utility.yul\":1586:1590   */\n  dup2\n    /* \"#utility.yul\":1582:1597   */\n  add\n    /* \"#utility.yul\":1574:1597   */\n  swap1\n  pop\n    /* \"#utility.yul\":1296:1604   */\n  swap2\n  swap1\n  pop\n  jump\t// out\n    /* \"#utility.yul\":1610:1749   */\ntag_19:\n    /* \"#utility.yul\":1699:1705   */\n  dup3\n    /* \"#utility.yul\":1694:1697   */\n  dup2\n    /* \"#utility.yul\":1689:1692   */\n  dup4\n    /* \"#utility.yul\":1683:1706   */\n  mcopy\n    /* \"#utility.yul\":1740:1741   */\n  0x00\n    /* \"#utility.yul\":1731:1737   */\n  dup4\n    /* \"#utility.yul\":1726:1729   */\n  dup4\n    /* \"#utility.yul\":1722:1738   */\n  add\n    /* \"#utility.yul\":1715:1742   */\n  mstore\n    /* \"#utility.yul\":1610:1749   */\n  pop\n  pop\n  pop\n  jump\t// out\n    /* \"#utility.yul\":1755:2189   */\ntag_20:\n    /* \"#utility.yul\":1844:1849   */\n  0x00\n    /* \"#utility.yul\":1869:1935   */\n  tag_64\n    /* \"#utility.yul\":1885:1934   */\n  tag_65\n    /* \"#utility.yul\":1927:1933   */\n  dup5\n    /* \"#utility.yul\":1885:1934   */\n  tag_18\n  jump\t// in\ntag_65:\n    /* \"#utility.yul\":1869:1935   */\n  tag_17\n  jump\t// in\ntag_64:\n    /* \"#utility.yul\":1860:1935   */\n  swap1\n  pop\n    /* \"#utility.yul\":1958:1964   */\n  dup3\n    /* \"#utility.yul\":1951:1956   */\n  dup2\n    /* \"#utility.yul\":1944:1965   */\n  mstore\n    /* \"#utility.yul\":1996:2000   */\n  0x20\n    /* \"#utility.yul\":1989:1994   */\n  dup2\n    /* \"#utility.yul\":1985:2001   */\n  add\n    /* \"#utility.yul\":2034:2037   */\n  dup5\n    /* \"#utility.yul\":2025:2031   */\n  dup5\n    /* \"#utility.yul\":2020:2023   */\n  dup5\n    /* \"#utility.yul\":2016:2032   */\n  add\n    /* \"#utility.yul\":2013:2038   */\n  gt\n    /* \"#utility.yul\":2010:2122   */\n  iszero\n  tag_66\n  jumpi\n    /* \"#utility.yul\":2041:2120   */\n  tag_67\n  tag_13\n  jump\t// in\ntag_67:\n    /* \"#utility.yul\":2010:2122   */\ntag_66:\n    /* \"#utility.yul\":2131:2183   */\n  tag_68\n    /* \"#utility.yul\":2176:2182   */\n  dup5\n    /* \"#utility.yul\":2171:2174   */\n  dup3\n    /* \"#utility.yul\":2166:2169   */\n  dup6\n    /* \"#utility.yul\":2131:2183   */\n  tag_19\n  jump\t// in\ntag_68:\n    /* \"#utility.yul\":1850:2189   */\n  pop\n    /* \"#utility.yul\":1755:2189   */\n  swap4\n  swap3\n  pop\n  pop\n  pop\n  jump\t// out\n    /* \"#utility.yul\":2209:2564   */\ntag_21:\n    /* \"#utility.yul\":2276:2281   */\n  0x00\n    /* \"#utility.yul\":2325:2328   */\n  dup3\n    /* \"#utility.yul\":2318:2322   */\n  0x1f\n    /* \"#utility.yul\":2310:2316   */\n  dup4\n    /* \"#utility.yul\":2306:2323   */\n  add\n    /* \"#utility.yul\":2302:2329   */\n  slt\n    /* \"#utility.yul\":2292:2414   */\n  tag_70\n  jumpi\n    /* \"#utility.yul\":2333:2412   */\n  tag_71\n  tag_12\n  jump\t// in\ntag_71:\n    /* \"#utility.yul\":2292:2414   */\ntag_70:\n    /* \"#utility.yul\":2443:2449   */\n  dup2\n    /* \"#utility.yul\":2437:2450   */\n  mload\n    /* \"#utility.yul\":2468:2558   */\n  tag_72\n    /* \"#utility.yul\":2554:2557   */\n  dup5\n    /* \"#utility.yul\":2546:2552   */\n  dup3\n    /* \"#utility.yul\":2539:2543   */\n  0x20\n    /* \"#utility.yul\":2531:2537   */\n  dup7\n    /* \"#utility.yul\":2527:2544   */\n  add\n    /* \"#utility.yul\":2468:2558   */\n  tag_20\n  jump\t// in\ntag_72:\n    /* \"#utility.yul\":2459:2558   */\n  swap2\n  pop\n    /* \"#utility.yul\":2282:2564   */\n  pop\n    /* \"#utility.yul\":2209:2564   */\n  swap3\n  swap2\n  pop\n  pop\n  jump\t// out\n    /* \"#utility.yul\":2570:2647   */\ntag_22:\n    /* \"#utility.yul\":2607:2614   */\n  0x00\n    /* \"#utility.yul\":2636:2641   */\n  dup2\n    /* \"#utility.yul\":2625:2641   */\n  swap1\n  pop\n    /* \"#utility.yul\":2570:2647   */\n  swap2\n  swap1\n  pop\n  jump\t// out\n    /* \"#utility.yul\":2653:2775   */\ntag_23:\n    /* \"#utility.yul\":2726:2750   */\n  tag_75\n    /* \"#utility.yul\":2744:2749   */\n  dup2\n    /* \"#utility.yul\":2726:2750   */\n  tag_22\n  jump\t// in\ntag_75:\n    /* \"#utility.yul\":2719:2724   */\n  dup2\n    /* \"#utility.yul\":2716:2751   */\n  eq\n    /* \"#utility.yul\":2706:2769   */\n  tag_76\n  jumpi\n    /* \"#utility.yul\":2765:2766   */\n  0x00\n    /* \"#utility.yul\":2762:2763   */\n  dup1\n    /* \"#utility.yul\":2755:2767   */\n  revert\n    /* \"#utility.yul\":2706:2769   */\ntag_76:\n    /* \"#utility.yul\":2653:2775   */\n  pop\n  jump\t// out\n    /* \"#utility.yul\":2781:2924   */\ntag_24:\n    /* \"#utility.yul\":2838:2843   */\n  0x00\n    /* \"#utility.yul\":2869:2875   */\n  dup2\n    /* \"#utility.yul\":2863:2876   */\n  mload\n    /* \"#utility.yul\":2854:2876   */\n  swap1\n  pop\n    /* \"#utility.yul\":2885:2918   */\n  tag_78\n    /* \"#utility.yul\":2912:2917   */\n  dup2\n    /* \"#utility.yul\":2885:2918   */\n  tag_23\n  jump\t// in\ntag_78:\n    /* \"#utility.yul\":2781:2924   */\n  swap3\n  swap2\n  pop\n  pop\n  jump\t// out\n    /* \"#utility.yul\":2930:3610   */\ntag_3:\n    /* \"#utility.yul\":3019:3025   */\n  0x00\n    /* \"#utility.yul\":3027:3033   */\n  dup1\n    /* \"#utility.yul\":3076:3078   */\n  0x40\n    /* \"#utility.yul\":3064:3073   */\n  dup4\n    /* \"#utility.yul\":3055:3062   */\n  dup6\n    /* \"#utility.yul\":3051:3074   */\n  sub\n    /* \"#utility.yul\":3047:3079   */\n  slt\n    /* \"#utility.yul\":3044:3163   */\n  iszero\n  tag_80\n  jumpi\n    /* \"#utility.yul\":3082:3161   */\n  tag_81\n  tag_10\n  jump\t// in\ntag_81:\n    /* \"#utility.yul\":3044:3163   */\ntag_80:\n    /* \"#utility.yul\":3223:3224   */\n  0x00\n    /* \"#utility.yul\":3212:3221   */\n  dup4\n    /* \"#utility.yul\":3208:3225   */\n  add\n    /* \"#utility.yul\":3202:3226   */\n  mload\n    /* \"#utility.yul\":3253:3271   */\n  0xffffffffffffffff\n    /* \"#utility.yul\":3245:3251   */\n  dup2\n    /* \"#utility.yul\":3242:3272   */\n  gt\n    /* \"#utility.yul\":3239:3356   */\n  iszero\n  tag_82\n  jumpi\n    /* \"#utility.yul\":3275:3354   */\n  tag_83\n  tag_11\n  jump\t// in\ntag_83:\n    /* \"#utility.yul\":3239:3356   */\ntag_82:\n    /* \"#utility.yul\":3380:3454   */\n  tag_84\n    /* \"#utility.yul\":3446:3453   */\n  dup6\n    /* \"#utility.yul\":3437:3443   */\n  dup3\n    /* \"#utility.yul\":3426:3435   */\n  dup7\n    /* \"#utility.yul\":3422:3444   */\n  add\n    /* \"#utility.yul\":3380:3454   */\n  tag_21\n  jump\t// in\ntag_84:\n    /* \"#utility.yul\":3370:3454   */\n  swap3\n  pop\n    /* \"#utility.yul\":3173:3464   */\n  pop\n    /* \"#utility.yul\":3503:3505   */\n  0x20\n    /* \"#utility.yul\":3529:3593   */\n  tag_85\n    /* \"#utility.yul\":3585:3592   */\n  dup6\n    /* \"#utility.yul\":3576:3582   */\n  dup3\n    /* \"#utility.yul\":3565:3574   */\n  dup7\n    /* \"#utility.yul\":3561:3583   */\n  add\n    /* \"#utility.yul\":3529:3593   */\n  tag_24\n  jump\t// in\ntag_85:\n    /* \"#utility.yul\":3519:3593   */\n  swap2\n  pop\n    /* \"#utility.yul\":3474:3603   */\n  pop\n    /* \"#utility.yul\":2930:3610   */\n  swap3\n  pop\n  swap3\n  swap1\n  pop\n  jump\t// out\n    /* \"#utility.yul\":3616:3715   */\ntag_25:\n    /* \"#utility.yul\":3668:3674   */\n  0x00\n    /* \"#utility.yul\":3702:3707   */\n  dup2\n    /* \"#utility.yul\":3696:3708   */\n  mload\n    /* \"#utility.yul\":3686:3708   */\n  swap1\n  pop\n    /* \"#utility.yul\":3616:3715   */\n  swap2\n  swap1\n  pop\n  jump\t// out\n    /* \"#utility.yul\":3721:3901   */\ntag_26:\n    /* \"#utility.yul\":3769:3846   */\n  0x4e487b7100000000000000000000000000000000000000000000000000000000\n    /* \"#utility.yul\":3766:3767   */\n  0x00\n    /* \"#utility.yul\":3759:3847   */\n  mstore\n    /* \"#utility.yul\":3866:3870   */\n  0x22\n    /* \"#utility.yul\":3863:3864   */\n  0x04\n    /* \"#utility.yul\":3856:3871   */\n  mstore\n    /* \"#utility.yul\":3890:3894   */\n  0x24\n    /* \"#utility.yul\":3887:3888   */\n  0x00\n    /* \"#utility.yul\":3880:3895   */\n  revert\n    /* \"#utility.yul\":3907:4227   */\ntag_27:\n    /* \"#utility.yul\":3951:3957   */\n  0x00\n    /* \"#utility.yul\":3988:3989   */\n  0x02\n    /* \"#utility.yul\":3982:3986   */\n  dup3\n    /* \"#utility.yul\":3978:3990   */\n  div\n    /* \"#utility.yul\":3968:3990   */\n  swap1\n  pop\n    /* \"#utility.yul\":4035:4036   */\n  0x01\n    /* \"#utility.yul\":4029:4033   */\n  dup3\n    /* \"#utility.yul\":4025:4037   */\n  and\n    /* \"#utility.yul\":4056:4074   */\n  dup1\n    /* \"#utility.yul\":4046:4127   */\n  tag_89\n  jumpi\n    /* \"#utility.yul\":4112:4116   */\n  0x7f\n    /* \"#utility.yul\":4104:4110   */\n  dup3\n    /* \"#utility.yul\":4100:4117   */\n  and\n    /* \"#utility.yul\":4090:4117   */\n  swap2\n  pop\n    /* \"#utility.yul\":4046:4127   */\ntag_89:\n    /* \"#utility.yul\":4174:4176   */\n  0x20\n    /* \"#utility.yul\":4166:4172   */\n  dup3\n    /* \"#utility.yul\":4163:4177   */\n  lt\n    /* \"#utility.yul\":4143:4161   */\n  dup2\n    /* \"#utility.yul\":4140:4178   */\n  sub\n    /* \"#utility.yul\":4137:4221   */\n  tag_90\n  jumpi\n    /* \"#utility.yul\":4193:4211   */\n  tag_91\n  tag_26\n  jump\t// in\ntag_91:\n    /* \"#utility.yul\":4137:4221   */\ntag_90:\n    /* \"#utility.yul\":3958:4227   */\n  pop\n    /* \"#utility.yul\":3907:4227   */\n  swap2\n  swap1\n  pop\n  jump\t// out\n    /* \"#utility.yul\":4233:4374   */\ntag_28:\n    /* \"#utility.yul\":4282:4286   */\n  0x00\n    /* \"#utility.yul\":4305:4308   */\n  dup2\n    /* \"#utility.yul\":4297:4308   */\n  swap1\n  pop\n    /* \"#utility.yul\":4328:4331   */\n  dup2\n    /* \"#utility.yul\":4325:4326   */\n  0x00\n    /* \"#utility.yul\":4318:4332   */\n  mstore\n    /* \"#utility.yul\":4362:4366   */\n  0x20\n    /* \"#utility.yul\":4359:4360   */\n  0x00\n    /* \"#utility.yul\":4349:4367   */\n  keccak256\n    /* \"#utility.yul\":4341:4367   */\n  swap1\n  pop\n    /* \"#utility.yul\":4233:4374   */\n  swap2\n  swap1\n  pop\n  jump\t// out\n    /* \"#utility.yul\":4380:4473   */\ntag_29:\n    /* \"#utility.yul\":4417:4423   */\n  0x00\n    /* \"#utility.yul\":4464:4466   */\n  0x20\n    /* \"#utility.yul\":4459:4461   */\n  0x1f\n    /* \"#utility.yul\":4452:4457   */\n  dup4\n    /* \"#utility.yul\":4448:4462   */\n  add\n    /* \"#utility.yul\":4444:4467   */\n  div\n    /* \"#utility.yul\":4434:4467   */\n  swap1\n  pop\n    /* \"#utility.yul\":4380:4473   */\n  swap2\n  swap1\n  pop\n  jump\t// out\n    /* \"#utility.yul\":4479:4586   */\ntag_30:\n    /* \"#utility.yul\":4523:4531   */\n  0x00\n    /* \"#utility.yul\":4573:4578   */\n  dup3\n    /* \"#utility.yul\":4567:4571   */\n  dup3\n    /* \"#utility.yul\":4563:4579   */\n  shl\n    /* \"#utility.yul\":4542:4579   */\n  swap1\n  pop\n    /* \"#utility.yul\":4479:4586   */\n  swap3\n  swap2\n  pop\n  pop\n  jump\t// out\n    /* \"#utility.yul\":4592:4985   */\ntag_31:\n    /* \"#utility.yul\":4661:4667   */\n  0x00\n    /* \"#utility.yul\":4711:4712   */\n  0x08\n    /* \"#utility.yul\":4699:4709   */\n  dup4\n    /* \"#utility.yul\":4695:4713   */\n  mul\n    /* \"#utility.yul\":4734:4831   */\n  tag_96\n    /* \"#utility.yul\":4764:4830   */\n  0xffffffffffffffffffffffffffffffffffffffffffffffffffffffffffffffff\n    /* \"#utility.yul\":4753:4762   */\n  dup3\n    /* \"#utility.yul\":4734:4831   */\n  tag_30\n  jump\t// in\ntag_96:\n    /* \"#utility.yul\":4852:4891   */\n  tag_97\n    /* \"#utility.yul\":4882:4890   */\n  dup7\n    /* \"#utility.yul\":4871:4880   */\n  dup4\n    /* \"#utility.yul\":4852:4891   */\n  tag_30\n  jump\t// in\ntag_97:\n    /* \"#utility.yul\":4840:4891   */\n  swap6\n  pop\n    /* \"#utility.yul\":4924:4928   */\n  dup1\n    /* \"#utility.yul\":4920:4929   */\n  not\n    /* \"#utility.yul\":4913:4918   */\n  dup5\n    /* \"#utility.yul\":4909:4930   */\n  and\n    /* \"#utility.yul\":4900:4930   */\n  swap4\n  pop\n    /* \"#utility.yul\":4973:4977   */\n  dup1\n    /* \"#utility.yul\":4963:4971   */\n  dup7\n    /* \"#utility.yul\":4959:4978   */\n  and\n    /* \"#utility.yul\":4952:4957   */\n  dup5\n    /* \"#utility.yul\":4949:4979   */\n  or\n    /* \"#utility.yul\":4939:4979   */\n  swap3\n  pop\n    /* \"#utility.yul\":4668:4985   */\n  pop\n  pop\n    /* \"#utility.yul\":4592:4985   */\n  swap4\n  swap3\n  pop\n  pop\n  pop\n  jump\t// out\n    /* \"#utility.yul\":4991:5051   */\ntag_32:\n    /* \"#utility.yul\":5019:5022   */\n  0x00\n    /* \"#utility.yul\":5040:5045   */\n  dup2\n    /* \"#utility.yul\":5033:5045   */\n  swap1\n  pop\n    /* \"#utility.yul\":4991:5051   */\n  swap2\n  swap1\n  pop\n  jump\t// out\n    /* \"#utility.yul\":5057:5199   */\ntag_33:\n    /* \"#utility.yul\":5107:5116   */\n  0x00\n    /* \"#utility.yul\":5140:5193   */\n  tag_100\n    /* \"#utility.yul\":5158:5192   */\n  tag_101\n    /* \"#utility.yul\":5167:5191   */\n  tag_102\n    /* \"#utility.yul\":5185:5190   */\n  dup5\n    /* \"#utility.yul\":5167:5191   */\n  tag_22\n  jump\t// in\ntag_102:\n    /* \"#utility.yul\":5158:5192   */\n  tag_32\n  jump\t// in\ntag_101:\n    /* \"#utility.yul\":5140:5193   */\n  tag_22\n  jump\t// in\ntag_100:\n    /* \"#utility.yul\":5127:5193   */\n  swap1\n  pop\n    /* \"#utility.yul\":5057:5199   */\n  swap2\n  swap1\n  pop\n  jump\t// out\n    /* \"#utility.yul\":5205:5280   */\ntag_34:\n    /* \"#utility.yul\":5248:5251   */\n  0x00\n    /* \"#utility.yul\":5269:5274   */\n  dup2\n    /* \"#utility.yul\":5262:5274   */\n  swap1\n  pop\n    /* \"#utility.yul\":5205:5280   */\n  swap2\n  swap1\n  pop\n  jump\t// out\n    /* \"#utility.yul\":5286:5555   */\ntag_35:\n    /* \"#utility.yul\":5396:5435   */\n  tag_105\n    /* \"#utility.yul\":5427:5434   */\n  dup4\n    /* \"#utility.yul\":5396:5435   */\n  tag_33\n  jump\t// in\ntag_105:\n    /* \"#utility.yul\":5457:5548   */\n  tag_106\n    /* \"#utility.yul\":5506:5547   */\n  tag_107\n    /* \"#utility.yul\":5530:5546   */\n  dup3\n    /* \"#utility.yul\":5506:5547   */\n  tag_34\n  jump\t// in\ntag_107:\n    /* \"#utility.yul\":5498:5504   */\n  dup5\n    /* \"#utility.yul\":5491:5495   */\n  dup5\n    /* \"#utility.yul\":5485:5496   */\n  sload\n    /* \"#utility.yul\":5457:5548   */\n  tag_31\n  jump\t// in\ntag_106:\n    /* \"#utility.yul\":5451:5455   */\n  dup3\n    /* \"#utility.yul\":5444:5549   */\n  sstore\n    /* \"#utility.yul\":5362:5555   */\n  pop\n    /* \"#utility.yul\":5286:5555   */\n  pop\n  pop\n  pop\n  jump\t// out\n    /* \"#utility.yul\":5561:5634   */\ntag_36:\n    /* \"#utility.yul\":5606:5609   */\n  0x00\n    /* \"#utility.yul\":5561:5634   */\n  swap1\n  jump\t// out\n    /* \"#utility.yul\":5640:5829   */\ntag_37:\n    /* \"#utility.yul\":5717:5749   */\n  tag_110\n  tag_36\n  jump\t// in\ntag_110:\n    /* \"#utility.yul\":5758:5823   */\n  tag_111\n    /* \"#utility.yul\":5816:5822   */\n  dup2\n    /* \"#utility.yul\":5808:5814   */\n  dup5\n    /* \"#utility.yul\":5802:5806   */\n  dup5\n    /* \"#utility.yul\":5758:5823   */\n  tag_35\n  jump\t// in\ntag_111:\n    /* \"#utility.yul\":5693:5829   */\n  pop\n    /* \"#utility.yul\":5640:5829   */\n  pop\n  pop\n  jump\t// out\n    /* \"#utility.yul\":5835:6021   */\ntag_38:\n    /* \"#utility.yul\":5895:6015   */\ntag_113:\n    /* \"#utility.yul\":5912:5915   */\n  dup2\n    /* \"#utility.yul\":5905:5910   */\n  dup2\n    /* \"#utility.yul\":5902:5916   */\n  lt\n    /* \"#utility.yul\":5895:6015   */\n  iszero\n  tag_115\n  jumpi\n    /* \"#utility.yul\":5966:6005   */\n  tag_116\n    /* \"#utility.yul\":6003:6004   */\n  0x00\n    /* \"#utility.yul\":5996:6001   */\n  dup3\n    /* \"#utility.yul\":5966:6005   */\n  tag_37\n  jump\t// in\ntag_116:\n    /* \"#utility.yul\":5939:5940   */\n  0x01\n    /* \"#utility.yul\":5932:5937   */\n  dup2\n    /* \"#utility.yul\":5928:5941   */\n  add\n    /* \"#utility.yul\":5919:5941   */\n  swap1\n  pop\n    /* \"#utility.yul\":5895:6015   */\n  jump(tag_113)\ntag_115:\n    /* \"#utility.yul\":5835:6021   */\n  pop\n  pop\n  jump\t// out\n    /* \"#utility.yul\":6027:6570   */\ntag_39:\n    /* \"#utility.yul\":6128:6130   */\n  0x1f\n    /* \"#utility.yul\":6123:6126   */\n  dup3\n    /* \"#utility.yul\":6120:6131   */\n  gt\n    /* \"#utility.yul\":6117:6563   */\n  iszero\n  tag_118\n  jumpi\n    /* \"#utility.yul\":6162:6200   */\n  tag_119\n    /* \"#utility.yul\":6194:6199   */\n  dup2\n    /* \"#utility.yul\":6162:6200   */\n  tag_28\n  jump\t// in\ntag_119:\n    /* \"#utility.yul\":6246:6275   */\n  tag_120\n    /* \"#utility.yul\":6264:6274   */\n  dup5\n    /* \"#utility.yul\":6246:6275   */\n  tag_29\n  jump\t// in\ntag_120:\n    /* \"#utility.yul\":6236:6244   */\n  dup2\n    /* \"#utility.yul\":6232:6276   */\n  add\n    /* \"#utility.yul\":6429:6431   */\n  0x20\n    /* \"#utility.yul\":6417:6427   */\n  dup6\n    /* \"#utility.yul\":6414:6432   */\n  lt\n    /* \"#utility.yul\":6411:6460   */\n  iszero\n  tag_121\n  jumpi\n    /* \"#utility.yul\":6450:6458   */\n  dup2\n    /* \"#utility.yul\":6435:6458   */\n  swap1\n  pop\n    /* \"#utility.yul\":6411:6460   */\ntag_121:\n    /* \"#utility.yul\":6473:6553   */\n  tag_122\n    /* \"#utility.yul\":6529:6551   */\n  tag_123\n    /* \"#utility.yul\":6547:6550   */\n  dup6\n    /* \"#utility.yul\":6529:6551   */\n  tag_29\n  jump\t// in\ntag_123:\n    /* \"#utility.yul\":6519:6527   */\n  dup4\n    /* \"#utility.yul\":6515:6552   */\n  add\n    /* \"#utility.yul\":6502:6513   */\n  dup3\n    /* \"#utility.yul\":6473:6553   */\n  tag_38\n  jump\t// in\ntag_122:\n    /* \"#utility.yul\":6132:6563   */\n  pop\n  pop\n    /* \"#utility.yul\":6117:6563   */\ntag_118:\n    /* \"#utility.yul\":6027:6570   */\n  pop\n  pop\n  pop\n  jump\t// out\n    /* \"#utility.yul\":6576:6693   */\ntag_40:\n    /* \"#utility.yul\":6630:6638   */\n  0x00\n    /* \"#utility.yul\":6680:6685   */\n  dup3\n    /* \"#utility.yul\":6674:6678   */\n  dup3\n    /* \"#utility.yul\":6670:6686   */\n  shr\n    /* \"#utility.yul\":6649:6686   */\n  swap1\n  pop\n    /* \"#utility.yul\":6576:6693   */\n  swap3\n  swap2\n  pop\n  pop\n  jump\t// out\n    /* \"#utility.yul\":6699:6868   */\ntag_41:\n    /* \"#utility.yul\":6743:6749   */\n  0x00\n    /* \"#utility.yul\":6776:6827   */\n  tag_126\n    /* \"#utility.yul\":6824:6825   */\n  0x00\n    /* \"#utility.yul\":6820:6826   */\n  not\n    /* \"#utility.yul\":6812:6817   */\n  dup5\n    /* \"#utility.yul\":6809:6810   */\n  0x08\n    /* \"#utility.yul\":6805:6818   */\n  mul\n    /* \"#utility.yul\":6776:6827   */\n  tag_40\n  jump\t// in\ntag_126:\n    /* \"#utility.yul\":6772:6828   */\n  not\n    /* \"#utility.yul\":6857:6861   */\n  dup1\n    /* \"#utility.yul\":6851:6855   */\n  dup4\n    /* \"#utility.yul\":6847:6862   */\n  and\n    /* \"#utility.yul\":6837:6862   */\n  swap2\n  pop\n    /* \"#utility.yul\":6750:6868   */\n  pop\n    /* \"#utility.yul\":6699:6868   */\n  swap3\n  swap2\n  pop\n  pop\n  jump\t// out\n    /* \"#utility.yul\":6873:7168   */\ntag_42:\n    /* \"#utility.yul\":6949:6953   */\n  0x00\n    /* \"#utility.yul\":7095:7124   */\n  tag_128\n    /* \"#utility.yul\":7120:7123   */\n  dup4\n    /* \"#utility.yul\":7114:7118   */\n  dup4\n    /* \"#utility.yul\":7095:7124   */\n  tag_41\n  jump\t// in\ntag_128:\n    /* \"#utility.yul\":7087:7124   */\n  swap2\n  pop\n    /* \"#utility.yul\":7157:7160   */\n  dup3\n    /* \"#utility.yul\":7154:7155   */\n  0x02\n    /* \"#utility.yul\":7150:7161   */\n  mul\n    /* \"#utility.yul\":7144:7148   */\n  dup3\n    /* \"#utility.yul\":7141:7162   */\n  or\n    /* \"#utility.yul\":7133:7162   */\n  swap1\n  pop\n    /* \"#utility.yul\":6873:7168   */\n  swap3\n  swap2\n  pop\n  pop\n  jump\t// out\n    /* \"#utility.yul\":7173:8568   */\ntag_7:\n    /* \"#utility.yul\":7290:7327   */\n  tag_130\n    /* \"#utility.yul\":7323:7326   */\n  dup3\n    /* \"#utility.yul\":7290:7327   */\n  tag_25\n  jump\t// in\ntag_130:\n    /* \"#utility.yul\":7392:7410   */\n  0xffffffffffffffff\n    /* \"#utility.yul\":7384:7390   */\n  dup2\n    /* \"#utility.yul\":7381:7411   */\n  gt\n    /* \"#utility.yul\":7378:7434   */\n  iszero\n  tag_131\n  jumpi\n    /* \"#utility.yul\":7414:7432   */\n  tag_132\n  tag_15\n  jump\t// in\ntag_132:\n    /* \"#utility.yul\":7378:7434   */\ntag_131:\n    /* \"#utility.yul\":7458:7496   */\n  tag_133\n    /* \"#utility.yul\":7490:7494   */\n  dup3\n    /* \"#utility.yul\":7484:7495   */\n  sload\n    /* \"#utility.yul\":7458:7496   */\n  tag_27\n  jump\t// in\ntag_133:\n    /* \"#utility.yul\":7543:7610   */\n  tag_134\n    /* \"#utility.yul\":7603:7609   */\n  dup3\n    /* \"#utility.yul\":7595:7601   */\n  dup3\n    /* \"#utility.yul\":7589:7593   */\n  dup6\n    /* \"#utility.yul\":7543:7610   */\n  tag_39\n  jump\t// in\ntag_134:\n    /* \"#utility.yul\":7637:7638   */\n  0x00\n    /* \"#utility.yul\":7661:7665   */\n  0x20\n    /* \"#utility.yul\":7648:7665   */\n  swap1\n  pop\n    /* \"#utility.yul\":7693:7695   */\n  0x1f\n    /* \"#utility.yul\":7685:7691   */\n  dup4\n    /* \"#utility.yul\":7682:7696   */\n  gt\n    /* \"#utility.yul\":7710:7711   */\n  0x01\n    /* \"#utility.yul\":7705:8323   */\n  dup2\n  eq\n  tag_136\n  jumpi\n    /* \"#utility.yul\":8367:8368   */\n  0x00\n    /* \"#utility.yul\":8384:8390   */\n  dup5\n    /* \"#utility.yul\":8381:8458   */\n  iszero\n  tag_137\n  jumpi\n    /* \"#utility.yul\":8433:8442   */\n  dup3\n    /* \"#utility.yul\":8428:8431   */\n  dup8\n    /* \"#utility.yul\":8424:8443   */\n  add\n    /* \"#utility.yul\":8418:8444   */\n  mload\n    /* \"#utility.yul\":8409:8444   */\n  swap1\n  pop\n    /* \"#utility.yul\":8381:8458   */\ntag_137:\n    /* \"#utility.yul\":8484:8551   */\n  tag_138\n    /* \"#utility.yul\":8544:8550   */\n  dup6\n    /* \"#utility.yul\":8537:8542   */\n  dup3\n    /* \"#utility.yul\":8484:8551   */\n  tag_42\n  jump\t// in\ntag_138:\n    /* \"#utility.yul\":8478:8482   */\n  dup7\n    /* \"#utility.yul\":8471:8552   */\n  sstore\n    /* \"#utility.yul\":8340:8562   */\n  pop\n    /* \"#utility.yul\":7675:8562   */\n  jump(tag_135)\n    /* \"#utility.yul\":7705:8323   */\ntag_136:\n    /* \"#utility.yul\":7757:7761   */\n  0x1f\n    /* \"#utility.yul\":7753:7762   */\n  not\n    /* \"#utility.yul\":7745:7751   */\n  dup5\n    /* \"#utility.yul\":7741:7763   */\n  and\n    /* \"#utility.yul\":7791:7828   */\n  tag_139\n    /* \"#utility.yul\":7823:7827   */\n  dup7\n    /* \"#utility.yul\":7791:7828   */\n  tag_28\n  jump\t// in\ntag_139:\n    /* \"#utility.yul\":7850:7851   */\n  0x00\n    /* \"#utility.yul\":7864:8072   */\ntag_140:\n    /* \"#utility.yul\":7878:7885   */\n  dup3\n    /* \"#utility.yul\":7875:7876   */\n  dup2\n    /* \"#utility.yul\":7872:7886   */\n  lt\n    /* \"#utility.yul\":7864:8072   */\n  iszero\n  tag_142\n  jumpi\n    /* \"#utility.yul\":7957:7966   */\n  dup5\n    /* \"#utility.yul\":7952:7955   */\n  dup10\n    /* \"#utility.yul\":7948:7967   */\n  add\n    /* \"#utility.yul\":7942:7968   */\n  mload\n    /* \"#utility.yul\":7934:7940   */\n  dup3\n    /* \"#utility.yul\":7927:7969   */\n  sstore\n    /* \"#utility.yul\":8008:8009   */\n  0x01\n    /* \"#utility.yul\":8000:8006   */\n  dup3\n    /* \"#utility.yul\":7996:8010   */\n  add\n    /* \"#utility.yul\":7986:8010   */\n  swap2\n  pop\n    /* \"#utility.yul\":8055:8057   */\n  0x20\n    /* \"#utility.yul\":8044:8053   */\n  dup6\n    /* \"#utility.yul\":8040:8058   */\n  add\n    /* \"#utility.yul\":8027:8058   */\n  swap5\n  pop\n    /* \"#utility.yul\":7901:7905   */\n  0x20\n    /* \"#utility.yul\":7898:7899   */\n  dup2\n    /* \"#utility.yul\":7894:7906   */\n  add\n    /* \"#utility.yul\":7889:7906   */\n  swap1\n  pop\n    /* \"#utility.yul\":7864:8072   */\n  jump(tag_140)\ntag_142:\n    /* \"#utility.yul\":8100:8106   */\n  dup7\n    /* \"#utility.yul\":8091:8098   */\n  dup4\n    /* \"#utility.yul\":8088:8107   */\n  lt\n    /* \"#utility.yul\":8085:8264   */\n  iszero\n  tag_143\n  jumpi\n    /* \"#utility.yul\":8158:8167   */\n  dup5\n    /* \"#utility.yul\":8153:8156   */\n  dup10\n    /* \"#utility.yul\":8149:8168   */\n  add\n    /* \"#utility.yul\":8143:8169   */\n  mload\n    /* \"#utility.yul\":8201:8249   */\n  tag_144\n    /* \"#utility.yul\":8243:8247   */\n  0x1f\n    /* \"#utility.yul\":8235:8241   */\n  dup10\n    /* \"#utility.yul\":8231:8248   */\n  and\n    /* \"#utility.yul\":8220:8229   */\n  dup3\n    /* \"#utility.yul\":8201:8249   */\n  tag_41\n  jump\t// in\ntag_144:\n    /* \"#utility.yul\":8193:8199   */\n  dup4\n    /* \"#utility.yul\":8186:8250   */\n  sstore\n    /* \"#utility.yul\":8108:8264   */\n  pop\n    /* \"#utility.yul\":8085:8264   */\ntag_143:\n    /* \"#utility.yul\":8310:8311   */\n  0x01\n    /* \"#utility.yul\":8306:8307   */\n  0x02\n    /* \"#utility.yul\":8298:8304   */\n  dup9\n    /* \"#utility.yul\":8294:8308   */\n  mul\n    /* \"#utility.yul\":8290:8312   */\n  add\n    /* \"#utility.yul\":8284:8288   */\n  dup9\n    /* \"#utility.yul\":8277:8313   */\n  sstore\n    /* \"#utility.yul\":7712:8323   */\n  pop\n  pop\n  pop\n    /* \"#utility.yul\":7675:8562   */\ntag_135:\n  pop\n    /* \"#utility.yul\":7265:8568   */\n  pop\n  pop\n  pop\n    /* \"#utility.yul\":7173:8568   */\n  pop\n  pop\n  jump\t// out\n    /* \"contracts/PersonStruct.sol\":59:483  contract PersonStruct{... */\ntag_8:\n  dataSize(sub_0)\n  dup1\n  dataOffset(sub_0)\n  0x00\n  codecopy\n  0x00\n  return\nstop\n\nsub_0: assembly {\n        /* \"contracts/PersonStruct.sol\":59:483  contract PersonStruct{... */\n      mstore(0x40, 0x80)\n      callvalue\n      dup1\n      iszero\n      tag_1\n      jumpi\n      0x00\n      dup1\n      revert\n    tag_1:\n      pop\n      jumpi(tag_2, lt(calldatasize, 0x04))\n      shr(0xe0, calldataload(0x00))\n      dup1\n      0x8ec4dc95\n      eq\n      tag_3\n      jumpi\n      dup1\n      0xa883ba14\n      eq\n      tag_4\n      jumpi\n    tag_2:\n      0x00\n      dup1\n      revert\n        /* \"contracts/PersonStruct.sol\":381:480  function getPerson()public view returns(string memory,uint){... */\n    tag_3:\n      tag_5\n      tag_6\n      jump\t// in\n    tag_5:\n      mload(0x40)\n      tag_7\n      swap3\n      swap2\n      swap1\n      tag_8\n      jump\t// in\n    tag_7:\n      mload(0x40)\n      dup1\n      swap2\n      sub\n      swap1\n      return\n        /* \"contracts/PersonStruct.sol\":262:374  function updatePerson(string memory _name, uint _age)public{... */\n    tag_4:\n      tag_9\n      0x04\n      dup1\n      calldatasize\n      sub\n      dup2\n      add\n      swap1\n      tag_10\n      swap2\n      swap1\n      tag_11\n      jump\t// in\n    tag_10:\n      tag_12\n      jump\t// in\n    tag_9:\n      stop\n        /* \"contracts/PersonStruct.sol\":381:480  function getPerson()public view returns(string memory,uint){... */\n    tag_6:\n        /* \"contracts/PersonStruct.sol\":421:434  string memory */\n      0x60\n        /* \"contracts/PersonStruct.sol\":435:439  uint */\n      0x00\n        /* \"contracts/PersonStruct.sol\":458:459  p */\n      dup1\n        /* \"contracts/PersonStruct.sol\":458:464  p.name */\n      0x00\n      add\n        /* \"contracts/PersonStruct.sol\":465:466  p */\n      0x00\n        /* \"contracts/PersonStruct.sol\":465:470  p.age */\n      0x01\n      add\n      sload\n        /* \"contracts/PersonStruct.sol\":451:471  return(p.name,p.age) */\n      dup2\n      dup1\n      sload\n      tag_14\n      swap1\n      tag_15\n      jump\t// in\n    tag_14:\n      dup1\n      0x1f\n      add\n      0x20\n      dup1\n      swap2\n      div\n      mul\n      0x20\n      add\n      mload(0x40)\n      swap1\n      dup2\n      add\n      0x40\n      mstore\n      dup1\n      swap3\n      swap2\n      swap1\n      dup2\n      dup2\n      mstore\n      0x20\n      add\n      dup3\n      dup1\n      sload\n      tag_16\n      swap1\n      tag_15\n      jump\t// in\n    tag_16:\n      dup1\n      iszero\n      tag_17\n      jumpi\n      dup1\n      0x1f\n      lt\n      tag_18\n      jumpi\n      0x0100\n      dup1\n      dup4\n      sload\n      div\n      mul\n      dup4\n      mstore\n      swap2\n      0x20\n      add\n      swap2\n      jump(tag_17)\n    tag_18:\n      dup3\n      add\n      swap2\n      swap1\n      0x00\n      mstore\n      keccak256(0x00, 0x20)\n      swap1\n    tag_19:\n      dup2\n      sload\n      dup2\n      mstore\n      swap1\n      0x01\n      add\n      swap1\n      0x20\n      add\n      dup1\n      dup4\n      gt\n      tag_19\n      jumpi\n      dup3\n      swap1\n      sub\n      0x1f\n      and\n      dup3\n      add\n      swap2\n    tag_17:\n      pop\n      pop\n      pop\n      pop\n      pop\n      swap2\n      pop\n      swap2\n      pop\n      swap2\n      pop\n        /* \"contracts/PersonStruct.sol\":381:480  function getPerson()public view returns(string memory,uint){... */\n      swap1\n      swap2\n      jump\t// out\n        /* \"contracts/PersonStruct.sol\":262:374  function updatePerson(string memory _name, uint _age)public{... */\n    tag_12:\n        /* \"contracts/PersonStruct.sol\":339:344  _name */\n      dup2\n        /* \"contracts/PersonStruct.sol\":332:333  p */\n      0x00\n        /* \"contracts/PersonStruct.sol\":332:338  p.name */\n      dup1\n      add\n        /* \"contracts/PersonStruct.sol\":332:344  p.name=_name */\n      swap1\n      dup2\n      tag_21\n      swap2\n      swap1\n      tag_22\n      jump\t// in\n    tag_21:\n      pop\n        /* \"contracts/PersonStruct.sol\":361:365  _age */\n      dup1\n        /* \"contracts/PersonStruct.sol\":355:356  p */\n      0x00\n        /* \"contracts/PersonStruct.sol\":355:360  p.age */\n      0x01\n      add\n        /* \"contracts/PersonStruct.sol\":355:365  p.age=_age */\n      dup2\n      swap1\n      sstore\n      pop\n        /* \"contracts/PersonStruct.sol\":262:374  function updatePerson(string memory _name, uint _age)public{... */\n      pop\n      pop\n      jump\t// out\n        /* \"#utility.yul\":7:106   */\n    tag_23:\n        /* \"#utility.yul\":59:65   */\n      0x00\n        /* \"#utility.yul\":93:98   */\n      dup2\n        /* \"#utility.yul\":87:99   */\n      mload\n        /* \"#utility.yul\":77:99   */\n      swap1\n      pop\n        /* \"#utility.yul\":7:106   */\n      swap2\n      swap1\n      pop\n      jump\t// out\n        /* \"#utility.yul\":112:281   */\n    tag_24:\n        /* \"#utility.yul\":196:207   */\n      0x00\n        /* \"#utility.yul\":230:236   */\n      dup3\n        /* \"#utility.yul\":225:228   */\n      dup3\n        /* \"#utility.yul\":218:237   */\n      mstore\n        /* \"#utility.yul\":270:274   */\n      0x20\n        /* \"#utility.yul\":265:268   */\n      dup3\n        /* \"#utility.yul\":261:275   */\n      add\n        /* \"#utility.yul\":246:275   */\n      swap1\n      pop\n        /* \"#utility.yul\":112:281   */\n      swap3\n      swap2\n      pop\n      pop\n      jump\t// out\n        /* \"#utility.yul\":287:426   */\n    tag_25:\n        /* \"#utility.yul\":376:382   */\n      dup3\n        /* \"#utility.yul\":371:374   */\n      dup2\n        /* \"#utility.yul\":366:369   */\n      dup4\n        /* \"#utility.yul\":360:383   */\n      mcopy\n        /* \"#utility.yul\":417:418   */\n      0x00\n        /* \"#utility.yul\":408:414   */\n      dup4\n        /* \"#utility.yul\":403:406   */\n      dup4\n        /* \"#utility.yul\":399:415   */\n      add\n        /* \"#utility.yul\":392:419   */\n      mstore\n        /* \"#utility.yul\":287:426   */\n      pop\n      pop\n      pop\n      jump\t// out\n        /* \"#utility.yul\":432:534   */\n    tag_26:\n        /* \"#utility.yul\":473:479   */\n      0x00\n        /* \"#utility.yul\":524:526   */\n      0x1f\n        /* \"#utility.yul\":520:527   */\n      not\n        /* \"#utility.yul\":515:517   */\n      0x1f\n        /* \"#utility.yul\":508:513   */\n      dup4\n        /* \"#utility.yul\":504:518   */\n      add\n        /* \"#utility.yul\":500:528   */\n      and\n        /* \"#utility.yul\":490:528   */\n      swap1\n      pop\n        /* \"#utility.yul\":432:534   */\n      swap2\n      swap1\n      pop\n      jump\t// out\n        /* \"#utility.yul\":540:917   */\n    tag_27:\n        /* \"#utility.yul\":628:631   */\n      0x00\n        /* \"#utility.yul\":656:695   */\n      tag_66\n        /* \"#utility.yul\":689:694   */\n      dup3\n        /* \"#utility.yul\":656:695   */\n      tag_23\n      jump\t// in\n    tag_66:\n        /* \"#utility.yul\":711:782   */\n      tag_67\n        /* \"#utility.yul\":775:781   */\n      dup2\n        /* \"#utility.yul\":770:773   */\n      dup6\n        /* \"#utility.yul\":711:782   */\n      tag_24\n      jump\t// in\n    tag_67:\n        /* \"#utility.yul\":704:782   */\n      swap4\n      pop\n        /* \"#utility.yul\":791:856   */\n      tag_68\n        /* \"#utility.yul\":849:855   */\n      dup2\n        /* \"#utility.yul\":844:847   */\n      dup6\n        /* \"#utility.yul\":837:841   */\n      0x20\n        /* \"#utility.yul\":830:835   */\n      dup7\n        /* \"#utility.yul\":826:842   */\n      add\n        /* \"#utility.yul\":791:856   */\n      tag_25\n      jump\t// in\n    tag_68:\n        /* \"#utility.yul\":881:910   */\n      tag_69\n        /* \"#utility.yul\":903:909   */\n      dup2\n        /* \"#utility.yul\":881:910   */\n      tag_26\n      jump\t// in\n    tag_69:\n        /* \"#utility.yul\":876:879   */\n      dup5\n        /* \"#utility.yul\":872:911   */\n      add\n        /* \"#utility.yul\":865:911   */\n      swap2\n      pop\n        /* \"#utility.yul\":632:917   */\n      pop\n        /* \"#utility.yul\":540:917   */\n      swap3\n      swap2\n      pop\n      pop\n      jump\t// out\n        /* \"#utility.yul\":923:1000   */\n    tag_28:\n        /* \"#utility.yul\":960:967   */\n      0x00\n        /* \"#utility.yul\":989:994   */\n      dup2\n        /* \"#utility.yul\":978:994   */\n      swap1\n      pop\n        /* \"#utility.yul\":923:1000   */\n      swap2\n      swap1\n      pop\n      jump\t// out\n        /* \"#utility.yul\":1006:1124   */\n    tag_29:\n        /* \"#utility.yul\":1093:1117   */\n      tag_72\n        /* \"#utility.yul\":1111:1116   */\n      dup2\n        /* \"#utility.yul\":1093:1117   */\n      tag_28\n      jump\t// in\n    tag_72:\n        /* \"#utility.yul\":1088:1091   */\n      dup3\n        /* \"#utility.yul\":1081:1118   */\n      mstore\n        /* \"#utility.yul\":1006:1124   */\n      pop\n      pop\n      jump\t// out\n        /* \"#utility.yul\":1130:1553   */\n    tag_8:\n        /* \"#utility.yul\":1271:1275   */\n      0x00\n        /* \"#utility.yul\":1309:1311   */\n      0x40\n        /* \"#utility.yul\":1298:1307   */\n      dup3\n        /* \"#utility.yul\":1294:1312   */\n      add\n        /* \"#utility.yul\":1286:1312   */\n      swap1\n      pop\n        /* \"#utility.yul\":1358:1367   */\n      dup2\n        /* \"#utility.yul\":1352:1356   */\n      dup2\n        /* \"#utility.yul\":1348:1368   */\n      sub\n        /* \"#utility.yul\":1344:1345   */\n      0x00\n        /* \"#utility.yul\":1333:1342   */\n      dup4\n        /* \"#utility.yul\":1329:1346   */\n      add\n        /* \"#utility.yul\":1322:1369   */\n      mstore\n        /* \"#utility.yul\":1386:1464   */\n      tag_74\n        /* \"#utility.yul\":1459:1463   */\n      dup2\n        /* \"#utility.yul\":1450:1456   */\n      dup6\n        /* \"#utility.yul\":1386:1464   */\n      tag_27\n      jump\t// in\n    tag_74:\n        /* \"#utility.yul\":1378:1464   */\n      swap1\n      pop\n        /* \"#utility.yul\":1474:1546   */\n      tag_75\n        /* \"#utility.yul\":1542:1544   */\n      0x20\n        /* \"#utility.yul\":1531:1540   */\n      dup4\n        /* \"#utility.yul\":1527:1545   */\n      add\n        /* \"#utility.yul\":1518:1524   */\n      dup5\n        /* \"#utility.yul\":1474:1546   */\n      tag_29\n      jump\t// in\n    tag_75:\n        /* \"#utility.yul\":1130:1553   */\n      swap4\n      swap3\n      pop\n      pop\n      pop\n      jump\t// out\n        /* \"#utility.yul\":1559:1634   */\n    tag_30:\n        /* \"#utility.yul\":1592:1598   */\n      0x00\n        /* \"#utility.yul\":1625:1627   */\n      0x40\n        /* \"#utility.yul\":1619:1628   */\n      mload\n        /* \"#utility.yul\":1609:1628   */\n      swap1\n      pop\n        /* \"#utility.yul\":1559:1634   */\n      swap1\n      jump\t// out\n        /* \"#utility.yul\":1640:1757   */\n    tag_31:\n        /* \"#utility.yul\":1749:1750   */\n      0x00\n        /* \"#utility.yul\":1746:1747   */\n      dup1\n        /* \"#utility.yul\":1739:1751   */\n      revert\n        /* \"#utility.yul\":1763:1880   */\n    tag_32:\n        /* \"#utility.yul\":1872:1873   */\n      0x00\n        /* \"#utility.yul\":1869:1870   */\n      dup1\n        /* \"#utility.yul\":1862:1874   */\n      revert\n        /* \"#utility.yul\":1886:2003   */\n    tag_33:\n        /* \"#utility.yul\":1995:1996   */\n      0x00\n        /* \"#utility.yul\":1992:1993   */\n      dup1\n        /* \"#utility.yul\":1985:1997   */\n      revert\n        /* \"#utility.yul\":2009:2126   */\n    tag_34:\n        /* \"#utility.yul\":2118:2119   */\n      0x00\n        /* \"#utility.yul\":2115:2116   */\n      dup1\n        /* \"#utility.yul\":2108:2120   */\n      revert\n        /* \"#utility.yul\":2132:2312   */\n    tag_35:\n        /* \"#utility.yul\":2180:2257   */\n      0x4e487b7100000000000000000000000000000000000000000000000000000000\n        /* \"#utility.yul\":2177:2178   */\n      0x00\n        /* \"#utility.yul\":2170:2258   */\n      mstore\n        /* \"#utility.yul\":2277:2281   */\n      0x41\n        /* \"#utility.yul\":2274:2275   */\n      0x04\n        /* \"#utility.yul\":2267:2282   */\n      mstore\n        /* \"#utility.yul\":2301:2305   */\n      0x24\n        /* \"#utility.yul\":2298:2299   */\n      0x00\n        /* \"#utility.yul\":2291:2306   */\n      revert\n        /* \"#utility.yul\":2318:2599   */\n    tag_36:\n        /* \"#utility.yul\":2401:2428   */\n      tag_83\n        /* \"#utility.yul\":2423:2427   */\n      dup3\n        /* \"#utility.yul\":2401:2428   */\n      tag_26\n      jump\t// in\n    tag_83:\n        /* \"#utility.yul\":2393:2399   */\n      dup2\n        /* \"#utility.yul\":2389:2429   */\n      add\n        /* \"#utility.yul\":2531:2537   */\n      dup2\n        /* \"#utility.yul\":2519:2529   */\n      dup2\n        /* \"#utility.yul\":2516:2538   */\n      lt\n        /* \"#utility.yul\":2495:2513   */\n      0xffffffffffffffff\n        /* \"#utility.yul\":2483:2493   */\n      dup3\n        /* \"#utility.yul\":2480:2514   */\n      gt\n        /* \"#utility.yul\":2477:2539   */\n      or\n        /* \"#utility.yul\":2474:2562   */\n      iszero\n      tag_84\n      jumpi\n        /* \"#utility.yul\":2542:2560   */\n      tag_85\n      tag_35\n      jump\t// in\n    tag_85:\n        /* \"#utility.yul\":2474:2562   */\n    tag_84:\n        /* \"#utility.yul\":2582:2592   */\n      dup1\n        /* \"#utility.yul\":2578:2580   */\n      0x40\n        /* \"#utility.yul\":2571:2593   */\n      mstore\n        /* \"#utility.yul\":2361:2599   */\n      pop\n        /* \"#utility.yul\":2318:2599   */\n      pop\n      pop\n      jump\t// out\n        /* \"#utility.yul\":2605:2734   */\n    tag_37:\n        /* \"#utility.yul\":2639:2645   */\n      0x00\n        /* \"#utility.yul\":2666:2686   */\n      tag_87\n      tag_30\n      jump\t// in\n    tag_87:\n        /* \"#utility.yul\":2656:2686   */\n      swap1\n      pop\n        /* \"#utility.yul\":2695:2728   */\n      tag_88\n        /* \"#utility.yul\":2723:2727   */\n      dup3\n        /* \"#utility.yul\":2715:2721   */\n      dup3\n        /* \"#utility.yul\":2695:2728   */\n      tag_36\n      jump\t// in\n    tag_88:\n        /* \"#utility.yul\":2605:2734   */\n      swap2\n      swap1\n      pop\n      jump\t// out\n        /* \"#utility.yul\":2740:3048   */\n    tag_38:\n        /* \"#utility.yul\":2802:2806   */\n      0x00\n        /* \"#utility.yul\":2892:2910   */\n      0xffffffffffffffff\n        /* \"#utility.yul\":2884:2890   */\n      dup3\n        /* \"#utility.yul\":2881:2911   */\n      gt\n        /* \"#utility.yul\":2878:2934   */\n      iszero\n      tag_90\n      jumpi\n        /* \"#utility.yul\":2914:2932   */\n      tag_91\n      tag_35\n      jump\t// in\n    tag_91:\n        /* \"#utility.yul\":2878:2934   */\n    tag_90:\n        /* \"#utility.yul\":2952:2981   */\n      tag_92\n        /* \"#utility.yul\":2974:2980   */\n      dup3\n        /* \"#utility.yul\":2952:2981   */\n      tag_26\n      jump\t// in\n    tag_92:\n        /* \"#utility.yul\":2944:2981   */\n      swap1\n      pop\n        /* \"#utility.yul\":3036:3040   */\n      0x20\n        /* \"#utility.yul\":3030:3034   */\n      dup2\n        /* \"#utility.yul\":3026:3041   */\n      add\n        /* \"#utility.yul\":3018:3041   */\n      swap1\n      pop\n        /* \"#utility.yul\":2740:3048   */\n      swap2\n      swap1\n      pop\n      jump\t// out\n        /* \"#utility.yul\":3054:3202   */\n    tag_39:\n        /* \"#utility.yul\":3152:3158   */\n      dup3\n        /* \"#utility.yul\":3147:3150   */\n      dup2\n        /* \"#utility.yul\":3142:3145   */\n      dup4\n        /* \"#utility.yul\":3129:3159   */\n      calldatacopy\n        /* \"#utility.yul\":3193:3194   */\n      0x00\n        /* \"#utility.yul\":3184:3190   */\n      dup4\n        /* \"#utility.yul\":3179:3182   */\n      dup4\n        /* \"#utility.yul\":3175:3191   */\n      add\n        /* \"#utility.yul\":3168:3195   */\n      mstore\n        /* \"#utility.yul\":3054:3202   */\n      pop\n      pop\n      pop\n      jump\t// out\n        /* \"#utility.yul\":3208:3633   */\n    tag_40:\n        /* \"#utility.yul\":3286:3291   */\n      0x00\n        /* \"#utility.yul\":3311:3377   */\n      tag_95\n        /* \"#utility.yul\":3327:3376   */\n      tag_96\n        /* \"#utility.yul\":3369:3375   */\n      dup5\n        /* \"#utility.yul\":3327:3376   */\n      tag_38\n      jump\t// in\n    tag_96:\n        /* \"#utility.yul\":3311:3377   */\n      tag_37\n      jump\t// in\n    tag_95:\n        /* \"#utility.yul\":3302:3377   */\n      swap1\n      pop\n        /* \"#utility.yul\":3400:3406   */\n      dup3\n        /* \"#utility.yul\":3393:3398   */\n      dup2\n        /* \"#utility.yul\":3386:3407   */\n      mstore\n        /* \"#utility.yul\":3438:3442   */\n      0x20\n        /* \"#utility.yul\":3431:3436   */\n      dup2\n        /* \"#utility.yul\":3427:3443   */\n      add\n        /* \"#utility.yul\":3476:3479   */\n      dup5\n        /* \"#utility.yul\":3467:3473   */\n      dup5\n        /* \"#utility.yul\":3462:3465   */\n      dup5\n        /* \"#utility.yul\":3458:3474   */\n      add\n        /* \"#utility.yul\":3455:3480   */\n      gt\n        /* \"#utility.yul\":3452:3564   */\n      iszero\n      tag_97\n      jumpi\n        /* \"#utility.yul\":3483:3562   */\n      tag_98\n      tag_34\n      jump\t// in\n    tag_98:\n        /* \"#utility.yul\":3452:3564   */\n    tag_97:\n        /* \"#utility.yul\":3573:3627   */\n      tag_99\n        /* \"#utility.yul\":3620:3626   */\n      dup5\n        /* \"#utility.yul\":3615:3618   */\n      dup3\n        /* \"#utility.yul\":3610:3613   */\n      dup6\n        /* \"#utility.yul\":3573:3627   */\n      tag_39\n      jump\t// in\n    tag_99:\n        /* \"#utility.yul\":3292:3633   */\n      pop\n        /* \"#utility.yul\":3208:3633   */\n      swap4\n      swap3\n      pop\n      pop\n      pop\n      jump\t// out\n        /* \"#utility.yul\":3653:3993   */\n    tag_41:\n        /* \"#utility.yul\":3709:3714   */\n      0x00\n        /* \"#utility.yul\":3758:3761   */\n      dup3\n        /* \"#utility.yul\":3751:3755   */\n      0x1f\n        /* \"#utility.yul\":3743:3749   */\n      dup4\n        /* \"#utility.yul\":3739:3756   */\n      add\n        /* \"#utility.yul\":3735:3762   */\n      slt\n        /* \"#utility.yul\":3725:3847   */\n      tag_101\n      jumpi\n        /* \"#utility.yul\":3766:3845   */\n      tag_102\n      tag_33\n      jump\t// in\n    tag_102:\n        /* \"#utility.yul\":3725:3847   */\n    tag_101:\n        /* \"#utility.yul\":3883:3889   */\n      dup2\n        /* \"#utility.yul\":3870:3890   */\n      calldataload\n        /* \"#utility.yul\":3908:3987   */\n      tag_103\n        /* \"#utility.yul\":3983:3986   */\n      dup5\n        /* \"#utility.yul\":3975:3981   */\n      dup3\n        /* \"#utility.yul\":3968:3972   */\n      0x20\n        /* \"#utility.yul\":3960:3966   */\n      dup7\n        /* \"#utility.yul\":3956:3973   */\n      add\n        /* \"#utility.yul\":3908:3987   */\n      tag_40\n      jump\t// in\n    tag_103:\n        /* \"#utility.yul\":3899:3987   */\n      swap2\n      pop\n        /* \"#utility.yul\":3715:3993   */\n      pop\n        /* \"#utility.yul\":3653:3993   */\n      swap3\n      swap2\n      pop\n      pop\n      jump\t// out\n        /* \"#utility.yul\":3999:4121   */\n    tag_42:\n        /* \"#utility.yul\":4072:4096   */\n      tag_105\n        /* \"#utility.yul\":4090:4095   */\n      dup2\n        /* \"#utility.yul\":4072:4096   */\n      tag_28\n      jump\t// in\n    tag_105:\n        /* \"#utility.yul\":4065:4070   */\n      dup2\n        /* \"#utility.yul\":4062:4097   */\n      eq\n        /* \"#utility.yul\":4052:4115   */\n      tag_106\n      jumpi\n        /* \"#utility.yul\":4111:4112   */\n      0x00\n        /* \"#utility.yul\":4108:4109   */\n      dup1\n        /* \"#utility.yul\":4101:4113   */\n      revert\n        /* \"#utility.yul\":4052:4115   */\n    tag_106:\n        /* \"#utility.yul\":3999:4121   */\n      pop\n      jump\t// out\n        /* \"#utility.yul\":4127:4266   */\n    tag_43:\n        /* \"#utility.yul\":4173:4178   */\n      0x00\n        /* \"#utility.yul\":4211:4217   */\n      dup2\n        /* \"#utility.yul\":4198:4218   */\n      calldataload\n        /* \"#utility.yul\":4189:4218   */\n      swap1\n      pop\n        /* \"#utility.yul\":4227:4260   */\n      tag_108\n        /* \"#utility.yul\":4254:4259   */\n      dup2\n        /* \"#utility.yul\":4227:4260   */\n      tag_42\n      jump\t// in\n    tag_108:\n        /* \"#utility.yul\":4127:4266   */\n      swap3\n      swap2\n      pop\n      pop\n      jump\t// out\n        /* \"#utility.yul\":4272:4926   */\n    tag_11:\n        /* \"#utility.yul\":4350:4356   */\n      0x00\n        /* \"#utility.yul\":4358:4364   */\n      dup1\n        /* \"#utility.yul\":4407:4409   */\n      0x40\n        /* \"#utility.yul\":4395:4404   */\n      dup4\n        /* \"#utility.yul\":4386:4393   */\n      dup6\n        /* \"#utility.yul\":4382:4405   */\n      sub\n        /* \"#utility.yul\":4378:4410   */\n      slt\n        /* \"#utility.yul\":4375:4494   */\n      iszero\n      tag_110\n      jumpi\n        /* \"#utility.yul\":4413:4492   */\n      tag_111\n      tag_31\n      jump\t// in\n    tag_111:\n        /* \"#utility.yul\":4375:4494   */\n    tag_110:\n        /* \"#utility.yul\":4561:4562   */\n      0x00\n        /* \"#utility.yul\":4550:4559   */\n      dup4\n        /* \"#utility.yul\":4546:4563   */\n      add\n        /* \"#utility.yul\":4533:4564   */\n      calldataload\n        /* \"#utility.yul\":4591:4609   */\n      0xffffffffffffffff\n        /* \"#utility.yul\":4583:4589   */\n      dup2\n        /* \"#utility.yul\":4580:4610   */\n      gt\n        /* \"#utility.yul\":4577:4694   */\n      iszero\n      tag_112\n      jumpi\n        /* \"#utility.yul\":4613:4692   */\n      tag_113\n      tag_32\n      jump\t// in\n    tag_113:\n        /* \"#utility.yul\":4577:4694   */\n    tag_112:\n        /* \"#utility.yul\":4718:4781   */\n      tag_114\n        /* \"#utility.yul\":4773:4780   */\n      dup6\n        /* \"#utility.yul\":4764:4770   */\n      dup3\n        /* \"#utility.yul\":4753:4762   */\n      dup7\n        /* \"#utility.yul\":4749:4771   */\n      add\n        /* \"#utility.yul\":4718:4781   */\n      tag_41\n      jump\t// in\n    tag_114:\n        /* \"#utility.yul\":4708:4781   */\n      swap3\n      pop\n        /* \"#utility.yul\":4504:4791   */\n      pop\n        /* \"#utility.yul\":4830:4832   */\n      0x20\n        /* \"#utility.yul\":4856:4909   */\n      tag_115\n        /* \"#utility.yul\":4901:4908   */\n      dup6\n        /* \"#utility.yul\":4892:4898   */\n      dup3\n        /* \"#utility.yul\":4881:4890   */\n      dup7\n        /* \"#utility.yul\":4877:4899   */\n      add\n        /* \"#utility.yul\":4856:4909   */\n      tag_43\n      jump\t// in\n    tag_115:\n        /* \"#utility.yul\":4846:4909   */\n      swap2\n      pop\n        /* \"#utility.yul\":4801:4919   */\n      pop\n        /* \"#utility.yul\":4272:4926   */\n      swap3\n      pop\n      swap3\n      swap1\n      pop\n      jump\t// out\n        /* \"#utility.yul\":4932:5112   */\n    tag_44:\n        /* \"#utility.yul\":4980:5057   */\n      0x4e487b7100000000000000000000000000000000000000000000000000000000\n        /* \"#utility.yul\":4977:4978   */\n      0x00\n        /* \"#utility.yul\":4970:5058   */\n      mstore\n        /* \"#utility.yul\":5077:5081   */\n      0x22\n        /* \"#utility.yul\":5074:5075   */\n      0x04\n        /* \"#utility.yul\":5067:5082   */\n      mstore\n        /* \"#utility.yul\":5101:5105   */\n      0x24\n        /* \"#utility.yul\":5098:5099   */\n      0x00\n        /* \"#utility.yul\":5091:5106   */\n      revert\n        /* \"#utility.yul\":5118:5438   */\n    tag_15:\n        /* \"#utility.yul\":5162:5168   */\n      0x00\n        /* \"#utility.yul\":5199:5200   */\n      0x02\n        /* \"#utility.yul\":5193:5197   */\n      dup3\n        /* \"#utility.yul\":5189:5201   */\n      div\n        /* \"#utility.yul\":5179:5201   */\n      swap1\n      pop\n        /* \"#utility.yul\":5246:5247   */\n      0x01\n        /* \"#utility.yul\":5240:5244   */\n      dup3\n        /* \"#utility.yul\":5236:5248   */\n      and\n        /* \"#utility.yul\":5267:5285   */\n      dup1\n        /* \"#utility.yul\":5257:5338   */\n      tag_118\n      jumpi\n        /* \"#utility.yul\":5323:5327   */\n      0x7f\n        /* \"#utility.yul\":5315:5321   */\n      dup3\n        /* \"#utility.yul\":5311:5328   */\n      and\n        /* \"#utility.yul\":5301:5328   */\n      swap2\n      pop\n        /* \"#utility.yul\":5257:5338   */\n    tag_118:\n        /* \"#utility.yul\":5385:5387   */\n      0x20\n        /* \"#utility.yul\":5377:5383   */\n      dup3\n        /* \"#utility.yul\":5374:5388   */\n      lt\n        /* \"#utility.yul\":5354:5372   */\n      dup2\n        /* \"#utility.yul\":5351:5389   */\n      sub\n        /* \"#utility.yul\":5348:5432   */\n      tag_119\n      jumpi\n        /* \"#utility.yul\":5404:5422   */\n      tag_120\n      tag_44\n      jump\t// in\n    tag_120:\n        /* \"#utility.yul\":5348:5432   */\n    tag_119:\n        /* \"#utility.yul\":5169:5438   */\n      pop\n        /* \"#utility.yul\":5118:5438   */\n      swap2\n      swap1\n      pop\n      jump\t// out\n        /* \"#utility.yul\":5444:5585   */\n    tag_45:\n        /* \"#utility.yul\":5493:5497   */\n      0x00\n        /* \"#utility.yul\":5516:5519   */\n      dup2\n        /* \"#utility.yul\":5508:5519   */\n      swap1\n      pop\n        /* \"#utility.yul\":5539:5542   */\n      dup2\n        /* \"#utility.yul\":5536:5537   */\n      0x00\n        /* \"#utility.yul\":5529:5543   */\n      mstore\n        /* \"#utility.yul\":5573:5577   */\n      0x20\n        /* \"#utility.yul\":5570:5571   */\n      0x00\n        /* \"#utility.yul\":5560:5578   */\n      keccak256\n        /* \"#utility.yul\":5552:5578   */\n      swap1\n      pop\n        /* \"#utility.yul\":5444:5585   */\n      swap2\n      swap1\n      pop\n      jump\t// out\n        /* \"#utility.yul\":5591:5684   */\n    tag_46:\n        /* \"#utility.yul\":5628:5634   */\n      0x00\n        /* \"#utility.yul\":5675:5677   */\n      0x20\n        /* \"#utility.yul\":5670:5672   */\n      0x1f\n        /* \"#utility.yul\":5663:5668   */\n      dup4\n        /* \"#utility.yul\":5659:5673   */\n      add\n        /* \"#utility.yul\":5655:5678   */\n      div\n        /* \"#utility.yul\":5645:5678   */\n      swap1\n      pop\n        /* \"#utility.yul\":5591:5684   */\n      swap2\n      swap1\n      pop\n      jump\t// out\n        /* \"#utility.yul\":5690:5797   */\n    tag_47:\n        /* \"#utility.yul\":5734:5742   */\n      0x00\n        /* \"#utility.yul\":5784:5789   */\n      dup3\n        /* \"#utility.yul\":5778:5782   */\n      dup3\n        /* \"#utility.yul\":5774:5790   */\n      shl\n        /* \"#utility.yul\":5753:5790   */\n      swap1\n      pop\n        /* \"#utility.yul\":5690:5797   */\n      swap3\n      swap2\n      pop\n      pop\n      jump\t// out\n        /* \"#utility.yul\":5803:6196   */\n    tag_48:\n        /* \"#utility.yul\":5872:5878   */\n      0x00\n        /* \"#utility.yul\":5922:5923   */\n      0x08\n        /* \"#utility.yul\":5910:5920   */\n      dup4\n        /* \"#utility.yul\":5906:5924   */\n      mul\n        /* \"#utility.yul\":5945:6042   */\n      tag_125\n        /* \"#utility.yul\":5975:6041   */\n      0xffffffffffffffffffffffffffffffffffffffffffffffffffffffffffffffff\n        /* \"#utility.yul\":5964:5973   */\n      dup3\n        /* \"#utility.yul\":5945:6042   */\n      tag_47\n      jump\t// in\n    tag_125:\n        /* \"#utility.yul\":6063:6102   */\n      tag_126\n        /* \"#utility.yul\":6093:6101   */\n      dup7\n        /* \"#utility.yul\":6082:6091   */\n      dup4\n        /* \"#utility.yul\":6063:6102   */\n      tag_47\n      jump\t// in\n    tag_126:\n        /* \"#utility.yul\":6051:6102   */\n      swap6\n      pop\n        /* \"#utility.yul\":6135:6139   */\n      dup1\n        /* \"#utility.yul\":6131:6140   */\n      not\n        /* \"#utility.yul\":6124:6129   */\n      dup5\n        /* \"#utility.yul\":6120:6141   */\n      and\n        /* \"#utility.yul\":6111:6141   */\n      swap4\n      pop\n        /* \"#utility.yul\":6184:6188   */\n      dup1\n        /* \"#utility.yul\":6174:6182   */\n      dup7\n        /* \"#utility.yul\":6170:6189   */\n      and\n        /* \"#utility.yul\":6163:6168   */\n      dup5\n        /* \"#utility.yul\":6160:6190   */\n      or\n        /* \"#utility.yul\":6150:6190   */\n      swap3\n      pop\n        /* \"#utility.yul\":5879:6196   */\n      pop\n      pop\n        /* \"#utility.yul\":5803:6196   */\n      swap4\n      swap3\n      pop\n      pop\n      pop\n      jump\t// out\n        /* \"#utility.yul\":6202:6262   */\n    tag_49:\n        /* \"#utility.yul\":6230:6233   */\n      0x00\n        /* \"#utility.yul\":6251:6256   */\n      dup2\n        /* \"#utility.yul\":6244:6256   */\n      swap1\n      pop\n        /* \"#utility.yul\":6202:6262   */\n      swap2\n      swap1\n      pop\n      jump\t// out\n        /* \"#utility.yul\":6268:6410   */\n    tag_50:\n        /* \"#utility.yul\":6318:6327   */\n      0x00\n        /* \"#utility.yul\":6351:6404   */\n      tag_129\n        /* \"#utility.yul\":6369:6403   */\n      tag_130\n        /* \"#utility.yul\":6378:6402   */\n      tag_131\n        /* \"#utility.yul\":6396:6401   */\n      dup5\n        /* \"#utility.yul\":6378:6402   */\n      tag_28\n      jump\t// in\n    tag_131:\n        /* \"#utility.yul\":6369:6403   */\n      tag_49\n      jump\t// in\n    tag_130:\n        /* \"#utility.yul\":6351:6404   */\n      tag_28\n      jump\t// in\n    tag_129:\n        /* \"#utility.yul\":6338:6404   */\n      swap1\n      pop\n        /* \"#utility.yul\":6268:6410   */\n      swap2\n      swap1\n      pop\n      jump\t// out\n        /* \"#utility.yul\":6416:6491   */\n    tag_51:\n        /* \"#utility.yul\":6459:6462   */\n      0x00\n        /* \"#utility.yul\":6480:6485   */\n      dup2\n        /* \"#utility.yul\":6473:6485   */\n      swap1\n      pop\n        /* \"#utility.yul\":6416:6491   */\n      swap2\n      swap1\n      pop\n      jump\t// out\n        /* \"#utility.yul\":6497:6766   */\n    tag_52:\n        /* \"#utility.yul\":6607:6646   */\n      tag_134\n        /* \"#utility.yul\":6638:6645   */\n      dup4\n        /* \"#utility.yul\":6607:6646   */\n      tag_50\n      jump\t// in\n    tag_134:\n        /* \"#utility.yul\":6668:6759   */\n      tag_135\n        /* \"#utility.yul\":6717:6758   */\n      tag_136\n        /* \"#utility.yul\":6741:6757   */\n      dup3\n        /* \"#utility.yul\":6717:6758   */\n      tag_51\n      jump\t// in\n    tag_136:\n        /* \"#utility.yul\":6709:6715   */\n      dup5\n        /* \"#utility.yul\":6702:6706   */\n      dup5\n        /* \"#utility.yul\":6696:6707   */\n      sload\n        /* \"#utility.yul\":6668:6759   */\n      tag_48\n      jump\t// in\n    tag_135:\n        /* \"#utility.yul\":6662:6666   */\n      dup3\n        /* \"#utility.yul\":6655:6760   */\n      sstore\n        /* \"#utility.yul\":6573:6766   */\n      pop\n        /* \"#utility.yul\":6497:6766   */\n      pop\n      pop\n      pop\n      jump\t// out\n        /* \"#utility.yul\":6772:6845   */\n    tag_53:\n        /* \"#utility.yul\":6817:6820   */\n      0x00\n        /* \"#utility.yul\":6772:6845   */\n      swap1\n      jump\t// out\n        /* \"#utility.yul\":6851:7040   */\n    tag_54:\n        /* \"#utility.yul\":6928:6960   */\n      tag_139\n      tag_53\n      jump\t// in\n    tag_139:\n        /* \"#utility.yul\":6969:7034   */\n      tag_140\n        /* \"#utility.yul\":7027:7033   */\n      dup2\n        /* \"#utility.yul\":7019:7025   */\n      dup5\n        /* \"#utility.yul\":7013:7017   */\n      dup5\n        /* \"#utility.yul\":6969:7034   */\n      tag_52\n      jump\t// in\n    tag_140:\n        /* \"#utility.yul\":6904:7040   */\n      pop\n        /* \"#utility.yul\":6851:7040   */\n      pop\n      pop\n      jump\t// out\n        /* \"#utility.yul\":7046:7232   */\n    tag_55:\n        /* \"#utility.yul\":7106:7226   */\n    tag_142:\n        /* \"#utility.yul\":7123:7126   */\n      dup2\n        /* \"#utility.yul\":7116:7121   */\n      dup2\n        /* \"#utility.yul\":7113:7127   */\n      lt\n        /* \"#utility.yul\":7106:7226   */\n      iszero\n      tag_144\n      jumpi\n        /* \"#utility.yul\":7177:7216   */\n      tag_145\n        /* \"#utility.yul\":7214:7215   */\n      0x00\n        /* \"#utility.yul\":7207:7212   */\n      dup3\n        /* \"#utility.yul\":7177:7216   */\n      tag_54\n      jump\t// in\n    tag_145:\n        /* \"#utility.yul\":7150:7151   */\n      0x01\n        /* \"#utility.yul\":7143:7148   */\n      dup2\n        /* \"#utility.yul\":7139:7152   */\n      add\n        /* \"#utility.yul\":7130:7152   */\n      swap1\n      pop\n        /* \"#utility.yul\":7106:7226   */\n      jump(tag_142)\n    tag_144:\n        /* \"#utility.yul\":7046:7232   */\n      pop\n      pop\n      jump\t// out\n        /* \"#utility.yul\":7238:7781   */\n    tag_56:\n        /* \"#utility.yul\":7339:7341   */\n      0x1f\n        /* \"#utility.yul\":7334:7337   */\n      dup3\n        /* \"#utility.yul\":7331:7342   */\n      gt\n        /* \"#utility.yul\":7328:7774   */\n      iszero\n      tag_147\n      jumpi\n        /* \"#utility.yul\":7373:7411   */\n      tag_148\n        /* \"#utility.yul\":7405:7410   */\n      dup2\n        /* \"#utility.yul\":7373:7411   */\n      tag_45\n      jump\t// in\n    tag_148:\n        /* \"#utility.yul\":7457:7486   */\n      tag_149\n        /* \"#utility.yul\":7475:7485   */\n      dup5\n        /* \"#utility.yul\":7457:7486   */\n      tag_46\n      jump\t// in\n    tag_149:\n        /* \"#utility.yul\":7447:7455   */\n      dup2\n        /* \"#utility.yul\":7443:7487   */\n      add\n        /* \"#utility.yul\":7640:7642   */\n      0x20\n        /* \"#utility.yul\":7628:7638   */\n      dup6\n        /* \"#utility.yul\":7625:7643   */\n      lt\n        /* \"#utility.yul\":7622:7671   */\n      iszero\n      tag_150\n      jumpi\n        /* \"#utility.yul\":7661:7669   */\n      dup2\n        /* \"#utility.yul\":7646:7669   */\n      swap1\n      pop\n        /* \"#utility.yul\":7622:7671   */\n    tag_150:\n        /* \"#utility.yul\":7684:7764   */\n      tag_151\n        /* \"#utility.yul\":7740:7762   */\n      tag_152\n        /* \"#utility.yul\":7758:7761   */\n      dup6\n        /* \"#utility.yul\":7740:7762   */\n      tag_46\n      jump\t// in\n    tag_152:\n        /* \"#utility.yul\":7730:7738   */\n      dup4\n        /* \"#utility.yul\":7726:7763   */\n      add\n        /* \"#utility.yul\":7713:7724   */\n      dup3\n        /* \"#utility.yul\":7684:7764   */\n      tag_55\n      jump\t// in\n    tag_151:\n        /* \"#utility.yul\":7343:7774   */\n      pop\n      pop\n        /* \"#utility.yul\":7328:7774   */\n    tag_147:\n        /* \"#utility.yul\":7238:7781   */\n      pop\n      pop\n      pop\n      jump\t// out\n        /* \"#utility.yul\":7787:7904   */\n    tag_57:\n        /* \"#utility.yul\":7841:7849   */\n      0x00\n        /* \"#utility.yul\":7891:7896   */\n      dup3\n        /* \"#utility.yul\":7885:7889   */\n      dup3\n        /* \"#utility.yul\":7881:7897   */\n      shr\n        /* \"#utility.yul\":7860:7897   */\n      swap1\n      pop\n        /* \"#utility.yul\":7787:7904   */\n      swap3\n      swap2\n      pop\n      pop\n      jump\t// out\n        /* \"#utility.yul\":7910:8079   */\n    tag_58:\n        /* \"#utility.yul\":7954:7960   */\n      0x00\n        /* \"#utility.yul\":7987:8038   */\n      tag_155\n        /* \"#utility.yul\":8035:8036   */\n      0x00\n        /* \"#utility.yul\":8031:8037   */\n      not\n        /* \"#utility.yul\":8023:8028   */\n      dup5\n        /* \"#utility.yul\":8020:8021   */\n      0x08\n        /* \"#utility.yul\":8016:8029   */\n      mul\n        /* \"#utility.yul\":7987:8038   */\n      tag_57\n      jump\t// in\n    tag_155:\n        /* \"#utility.yul\":7983:8039   */\n      not\n        /* \"#utility.yul\":8068:8072   */\n      dup1\n        /* \"#utility.yul\":8062:8066   */\n      dup4\n        /* \"#utility.yul\":8058:8073   */\n      and\n        /* \"#utility.yul\":8048:8073   */\n      swap2\n      pop\n        /* \"#utility.yul\":7961:8079   */\n      pop\n        /* \"#utility.yul\":7910:8079   */\n      swap3\n      swap2\n      pop\n      pop\n      jump\t// out\n        /* \"#utility.yul\":8084:8379   */\n    tag_59:\n        /* \"#utility.yul\":8160:8164   */\n      0x00\n        /* \"#utility.yul\":8306:8335   */\n      tag_157\n        /* \"#utility.yul\":8331:8334   */\n      dup4\n        /* \"#utility.yul\":8325:8329   */\n      dup4\n        /* \"#utility.yul\":8306:8335   */\n      tag_58\n      jump\t// in\n    tag_157:\n        /* \"#utility.yul\":8298:8335   */\n      swap2\n      pop\n        /* \"#utility.yul\":8368:8371   */\n      dup3\n        /* \"#utility.yul\":8365:8366   */\n      0x02\n        /* \"#utility.yul\":8361:8372   */\n      mul\n        /* \"#utility.yul\":8355:8359   */\n      dup3\n        /* \"#utility.yul\":8352:8373   */\n      or\n        /* \"#utility.yul\":8344:8373   */\n      swap1\n      pop\n        /* \"#utility.yul\":8084:8379   */\n      swap3\n      swap2\n      pop\n      pop\n      jump\t// out\n        /* \"#utility.yul\":8384:9779   */\n    tag_22:\n        /* \"#utility.yul\":8501:8538   */\n      tag_159\n        /* \"#utility.yul\":8534:8537   */\n      dup3\n        /* \"#utility.yul\":8501:8538   */\n      tag_23\n      jump\t// in\n    tag_159:\n        /* \"#utility.yul\":8603:8621   */\n      0xffffffffffffffff\n        /* \"#utility.yul\":8595:8601   */\n      dup2\n        /* \"#utility.yul\":8592:8622   */\n      gt\n        /* \"#utility.yul\":8589:8645   */\n      iszero\n      tag_160\n      jumpi\n        /* \"#utility.yul\":8625:8643   */\n      tag_161\n      tag_35\n      jump\t// in\n    tag_161:\n        /* \"#utility.yul\":8589:8645   */\n    tag_160:\n        /* \"#utility.yul\":8669:8707   */\n      tag_162\n        /* \"#utility.yul\":8701:8705   */\n      dup3\n        /* \"#utility.yul\":8695:8706   */\n      sload\n        /* \"#utility.yul\":8669:8707   */\n      tag_15\n      jump\t// in\n    tag_162:\n        /* \"#utility.yul\":8754:8821   */\n      tag_163\n        /* \"#utility.yul\":8814:8820   */\n      dup3\n        /* \"#utility.yul\":8806:8812   */\n      dup3\n        /* \"#utility.yul\":8800:8804   */\n      dup6\n        /* \"#utility.yul\":8754:8821   */\n      tag_56\n      jump\t// in\n    tag_163:\n        /* \"#utility.yul\":8848:8849   */\n      0x00\n        /* \"#utility.yul\":8872:8876   */\n      0x20\n        /* \"#utility.yul\":8859:8876   */\n      swap1\n      pop\n        /* \"#utility.yul\":8904:8906   */\n      0x1f\n        /* \"#utility.yul\":8896:8902   */\n      dup4\n        /* \"#utility.yul\":8893:8907   */\n      gt\n        /* \"#utility.yul\":8921:8922   */\n      0x01\n        /* \"#utility.yul\":8916:9534   */\n      dup2\n      eq\n      tag_165\n      jumpi\n        /* \"#utility.yul\":9578:9579   */\n      0x00\n        /* \"#utility.yul\":9595:9601   */\n      dup5\n        /* \"#utility.yul\":9592:9669   */\n      iszero\n      tag_166\n      jumpi\n        /* \"#utility.yul\":9644:9653   */\n      dup3\n        /* \"#utility.yul\":9639:9642   */\n      dup8\n        /* \"#utility.yul\":9635:9654   */\n      add\n        /* \"#utility.yul\":9629:9655   */\n      mload\n        /* \"#utility.yul\":9620:9655   */\n      swap1\n      pop\n        /* \"#utility.yul\":9592:9669   */\n    tag_166:\n        /* \"#utility.yul\":9695:9762   */\n      tag_167\n        /* \"#utility.yul\":9755:9761   */\n      dup6\n        /* \"#utility.yul\":9748:9753   */\n      dup3\n        /* \"#utility.yul\":9695:9762   */\n      tag_59\n      jump\t// in\n    tag_167:\n        /* \"#utility.yul\":9689:9693   */\n      dup7\n        /* \"#utility.yul\":9682:9763   */\n      sstore\n        /* \"#utility.yul\":9551:9773   */\n      pop\n        /* \"#utility.yul\":8886:9773   */\n      jump(tag_164)\n        /* \"#utility.yul\":8916:9534   */\n    tag_165:\n        /* \"#utility.yul\":8968:8972   */\n      0x1f\n        /* \"#utility.yul\":8964:8973   */\n      not\n        /* \"#utility.yul\":8956:8962   */\n      dup5\n        /* \"#utility.yul\":8952:8974   */\n      and\n        /* \"#utility.yul\":9002:9039   */\n      tag_168\n        /* \"#utility.yul\":9034:9038   */\n      dup7\n        /* \"#utility.yul\":9002:9039   */\n      tag_45\n      jump\t// in\n    tag_168:\n        /* \"#utility.yul\":9061:9062   */\n      0x00\n        /* \"#utility.yul\":9075:9283   */\n    tag_169:\n        /* \"#utility.yul\":9089:9096   */\n      dup3\n        /* \"#utility.yul\":9086:9087   */\n      dup2\n        /* \"#utility.yul\":9083:9097   */\n      lt\n        /* \"#utility.yul\":9075:9283   */\n      iszero\n      tag_171\n      jumpi\n        /* \"#utility.yul\":9168:9177   */\n      dup5\n        /* \"#utility.yul\":9163:9166   */\n      dup10\n        /* \"#utility.yul\":9159:9178   */\n      add\n        /* \"#utility.yul\":9153:9179   */\n      mload\n        /* \"#utility.yul\":9145:9151   */\n      dup3\n        /* \"#utility.yul\":9138:9180   */\n      sstore\n        /* \"#utility.yul\":9219:9220   */\n      0x01\n        /* \"#utility.yul\":9211:9217   */\n      dup3\n        /* \"#utility.yul\":9207:9221   */\n      add\n        /* \"#utility.yul\":9197:9221   */\n      swap2\n      pop\n        /* \"#utility.yul\":9266:9268   */\n      0x20\n        /* \"#utility.yul\":9255:9264   */\n      dup6\n        /* \"#utility.yul\":9251:9269   */\n      add\n        /* \"#utility.yul\":9238:9269   */\n      swap5\n      pop\n        /* \"#utility.yul\":9112:9116   */\n      0x20\n        /* \"#utility.yul\":9109:9110   */\n      dup2\n        /* \"#utility.yul\":9105:9117   */\n      add\n        /* \"#utility.yul\":9100:9117   */\n      swap1\n      pop\n        /* \"#utility.yul\":9075:9283   */\n      jump(tag_169)\n    tag_171:\n        /* \"#utility.yul\":9311:9317   */\n      dup7\n        /* \"#utility.yul\":9302:9309   */\n      dup4\n        /* \"#utility.yul\":9299:9318   */\n      lt\n        /* \"#utility.yul\":9296:9475   */\n      iszero\n      tag_172\n      jumpi\n        /* \"#utility.yul\":9369:9378   */\n      dup5\n        /* \"#utility.yul\":9364:9367   */\n      dup10\n        /* \"#utility.yul\":9360:9379   */\n      add\n        /* \"#utility.yul\":9354:9380   */\n      mload\n        /* \"#utility.yul\":9412:9460   */\n      tag_173\n        /* \"#utility.yul\":9454:9458   */\n      0x1f\n        /* \"#utility.yul\":9446:9452   */\n      dup10\n        /* \"#utility.yul\":9442:9459   */\n      and\n        /* \"#utility.yul\":9431:9440   */\n      dup3\n        /* \"#utility.yul\":9412:9460   */\n      tag_58\n      jump\t// in\n    tag_173:\n        /* \"#utility.yul\":9404:9410   */\n      dup4\n        /* \"#utility.yul\":9397:9461   */\n      sstore\n        /* \"#utility.yul\":9319:9475   */\n      pop\n        /* \"#utility.yul\":9296:9475   */\n    tag_172:\n        /* \"#utility.yul\":9521:9522   */\n      0x01\n        /* \"#utility.yul\":9517:9518   */\n      0x02\n        /* \"#utility.yul\":9509:9515   */\n      dup9\n        /* \"#utility.yul\":9505:9519   */\n      mul\n        /* \"#utility.yul\":9501:9523   */\n      add\n        /* \"#utility.yul\":9495:9499   */\n      dup9\n        /* \"#utility.yul\":9488:9524   */\n      sstore\n        /* \"#utility.yul\":8923:9534   */\n      pop\n      pop\n      pop\n        /* \"#utility.yul\":8886:9773   */\n    tag_164:\n      pop\n        /* \"#utility.yul\":8476:9779   */\n      pop\n      pop\n      pop\n        /* \"#utility.yul\":8384:9779   */\n      pop\n      pop\n      jump\t// out\n\n    auxdata: 0xa2646970667358221220e7ecd6d57733cfb4c76dcf12eba5794b7e45bc3c5d5b2b345c3737d8daf99bfb64736f6c634300081a0033\n}\n",
				"bytecode": {
					"linkReferences": {},
					"object": "608060405234801561000f575f80fd5b50604051610bcd380380610bcd833981810160405281019061003191906101ef565b6040518060400160405280838152602001828152505f80820151815f01908161005a919061044d565b5060208201518160010155905050505061051c565b5f604051905090565b5f80fd5b5f80fd5b5f80fd5b5f80fd5b5f601f19601f8301169050919050565b7f4e487b71000000000000000000000000000000000000000000000000000000005f52604160045260245ffd5b6100ce82610088565b810181811067ffffffffffffffff821117156100ed576100ec610098565b5b80604052505050565b5f6100ff61006f565b905061010b82826100c5565b919050565b5f67ffffffffffffffff82111561012a57610129610098565b5b61013382610088565b9050602081019050919050565b8281835e5f83830152505050565b5f61016061015b84610110565b6100f6565b90508281526020810184848401111561017c5761017b610084565b5b610187848285610140565b509392505050565b5f82601f8301126101a3576101a2610080565b5b81516101b384826020860161014e565b91505092915050565b5f819050919050565b6101ce816101bc565b81146101d8575f80fd5b50565b5f815190506101e9816101c5565b92915050565b5f806040838503121561020557610204610078565b5b5f83015167ffffffffffffffff8111156102225761022161007c565b5b61022e8582860161018f565b925050602061023f858286016101db565b9150509250929050565b5f81519050919050565b7f4e487b71000000000000000000000000000000000000000000000000000000005f52602260045260245ffd5b5f600282049050600182168061029757607f821691505b6020821081036102aa576102a9610253565b5b50919050565b5f819050815f5260205f209050919050565b5f6020601f8301049050919050565b5f82821b905092915050565b5f6008830261030c7fffffffffffffffffffffffffffffffffffffffffffffffffffffffffffffffff826102d1565b61031686836102d1565b95508019841693508086168417925050509392505050565b5f819050919050565b5f61035161034c610347846101bc565b61032e565b6101bc565b9050919050565b5f819050919050565b61036a83610337565b61037e61037682610358565b8484546102dd565b825550505050565b5f90565b610392610386565b61039d818484610361565b505050565b5b818110156103c0576103b55f8261038a565b6001810190506103a3565b5050565b601f821115610405576103d6816102b0565b6103df846102c2565b810160208510156103ee578190505b6104026103fa856102c2565b8301826103a2565b50505b505050565b5f82821c905092915050565b5f6104255f198460080261040a565b1980831691505092915050565b5f61043d8383610416565b9150826002028217905092915050565b61045682610249565b67ffffffffffffffff81111561046f5761046e610098565b5b6104798254610280565b6104848282856103c4565b5f60209050601f8311600181146104b5575f84156104a3578287015190505b6104ad8582610432565b865550610514565b601f1984166104c3866102b0565b5f5b828110156104ea578489015182556001820191506020850194506020810190506104c5565b868310156105075784890151610503601f891682610416565b8355505b6001600288020188555050505b505050505050565b6106a4806105295f395ff3fe608060405234801561000f575f80fd5b5060043610610034575f3560e01c80638ec4dc9514610038578063a883ba1414610057575b5f80fd5b610040610073565b60405161004e9291906101b6565b60405180910390f35b610071600480360381019061006c919061034b565b610110565b005b60605f805f015f6001015481805461008a906103d2565b80601f01602080910402602001604051908101604052809291908181526020018280546100b6906103d2565b80156101015780601f106100d857610100808354040283529160200191610101565b820191905f5260205f20905b8154815290600101906020018083116100e457829003601f168201915b50505050509150915091509091565b815f80019081610120919061059f565b50805f600101819055505050565b5f81519050919050565b5f82825260208201905092915050565b8281835e5f83830152505050565b5f601f19601f8301169050919050565b5f6101708261012e565b61017a8185610138565b935061018a818560208601610148565b61019381610156565b840191505092915050565b5f819050919050565b6101b08161019e565b82525050565b5f6040820190508181035f8301526101ce8185610166565b90506101dd60208301846101a7565b9392505050565b5f604051905090565b5f80fd5b5f80fd5b5f80fd5b5f80fd5b7f4e487b71000000000000000000000000000000000000000000000000000000005f52604160045260245ffd5b61023382610156565b810181811067ffffffffffffffff82111715610252576102516101fd565b5b80604052505050565b5f6102646101e4565b9050610270828261022a565b919050565b5f67ffffffffffffffff82111561028f5761028e6101fd565b5b61029882610156565b9050602081019050919050565b828183375f83830152505050565b5f6102c56102c084610275565b61025b565b9050828152602081018484840111156102e1576102e06101f9565b5b6102ec8482856102a5565b509392505050565b5f82601f830112610308576103076101f5565b5b81356103188482602086016102b3565b91505092915050565b61032a8161019e565b8114610334575f80fd5b50565b5f8135905061034581610321565b92915050565b5f8060408385031215610361576103606101ed565b5b5f83013567ffffffffffffffff81111561037e5761037d6101f1565b5b61038a858286016102f4565b925050602061039b85828601610337565b9150509250929050565b7f4e487b71000000000000000000000000000000000000000000000000000000005f52602260045260245ffd5b5f60028204905060018216806103e957607f821691505b6020821081036103fc576103fb6103a5565b5b50919050565b5f819050815f5260205f209050919050565b5f6020601f8301049050919050565b5f82821b905092915050565b5f6008830261045e7fffffffffffffffffffffffffffffffffffffffffffffffffffffffffffffffff82610423565b6104688683610423565b95508019841693508086168417925050509392505050565b5f819050919050565b5f6104a361049e6104998461019e565b610480565b61019e565b9050919050565b5f819050919050565b6104bc83610489565b6104d06104c8826104aa565b84845461042f565b825550505050565b5f90565b6104e46104d8565b6104ef8184846104b3565b505050565b5b81811015610512576105075f826104dc565b6001810190506104f5565b5050565b601f8211156105575761052881610402565b61053184610414565b81016020851015610540578190505b61055461054c85610414565b8301826104f4565b50505b505050565b5f82821c905092915050565b5f6105775f198460080261055c565b1980831691505092915050565b5f61058f8383610568565b9150826002028217905092915050565b6105a88261012e565b67ffffffffffffffff8111156105c1576105c06101fd565b5b6105cb82546103d2565b6105d6828285610516565b5f60209050601f831160018114610607575f84156105f5578287015190505b6105ff8582610584565b865550610666565b601f19841661061586610402565b5f5b8281101561063c57848901518255600182019150602085019450602081019050610617565b868310156106595784890151610655601f891682610568565b8355505b6001600288020188555050505b50505050505056fea2646970667358221220e7ecd6d57733cfb4c76dcf12eba5794b7e45bc3c5d5b2b345c3737d8daf99bfb64736f6c634300081a0033",
					"opcodes": "PUSH1 0x80 PUSH1 0x40 MSTORE CALLVALUE DUP1 ISZERO PUSH2 0xF JUMPI PUSH0 DUP1 REVERT JUMPDEST POP PUSH1 0x40 MLOAD PUSH2 0xBCD CODESIZE SUB DUP1 PUSH2 0xBCD DUP4 CODECOPY DUP2 DUP2 ADD PUSH1 0x40 MSTORE DUP2 ADD SWAP1 PUSH2 0x31 SWAP2 SWAP1 PUSH2 0x1EF JUMP JUMPDEST PUSH1 0x40 MLOAD DUP1 PUSH1 0x40 ADD PUSH1 0x40 MSTORE DUP1 DUP4 DUP2 MSTORE PUSH1 0x20 ADD DUP3 DUP2 MSTORE POP PUSH0 DUP1 DUP3 ADD MLOAD DUP2 PUSH0 ADD SWAP1 DUP2 PUSH2 0x5A SWAP2 SWAP1 PUSH2 0x44D JUMP JUMPDEST POP PUSH1 0x20 DUP3 ADD MLOAD DUP2 PUSH1 0x1 ADD SSTORE SWAP1 POP POP POP POP PUSH2 0x51C JUMP JUMPDEST PUSH0 PUSH1 0x40 MLOAD SWAP1 POP SWAP1 JUMP JUMPDEST PUSH0 DUP1 REVERT JUMPDEST PUSH0 DUP1 REVERT JUMPDEST PUSH0 DUP1 REVERT JUMPDEST PUSH0 DUP1 REVERT JUMPDEST PUSH0 PUSH1 0x1F NOT PUSH1 0x1F DUP4 ADD AND SWAP1 POP SWAP2 SWAP1 POP JUMP JUMPDEST PUSH32 0x4E487B7100000000000000000000000000000000000000000000000000000000 PUSH0 MSTORE PUSH1 0x41 PUSH1 0x4 MSTORE PUSH1 0x24 PUSH0 REVERT JUMPDEST PUSH2 0xCE DUP3 PUSH2 0x88 JUMP JUMPDEST DUP2 ADD DUP2 DUP2 LT PUSH8 0xFFFFFFFFFFFFFFFF DUP3 GT OR ISZERO PUSH2 0xED JUMPI PUSH2 0xEC PUSH2 0x98 JUMP JUMPDEST JUMPDEST DUP1 PUSH1 0x40 MSTORE POP POP POP JUMP JUMPDEST PUSH0 PUSH2 0xFF PUSH2 0x6F JUMP JUMPDEST SWAP1 POP PUSH2 0x10B DUP3 DUP3 PUSH2 0xC5 JUMP JUMPDEST SWAP2 SWAP1 POP JUMP JUMPDEST PUSH0 PUSH8 0xFFFFFFFFFFFFFFFF DUP3 GT ISZERO PUSH2 0x12A JUMPI PUSH2 0x129 PUSH2 0x98 JUMP JUMPDEST JUMPDEST PUSH2 0x133 DUP3 PUSH2 0x88 JUMP JUMPDEST SWAP1 POP PUSH1 0x20 DUP2 ADD SWAP1 POP SWAP2 SWAP1 POP JUMP JUMPDEST DUP3 DUP2 DUP4 MCOPY PUSH0 DUP4 DUP4 ADD MSTORE POP POP POP JUMP JUMPDEST PUSH0 PUSH2 0x160 PUSH2 0x15B DUP5 PUSH2 0x110 JUMP JUMPDEST PUSH2 0xF6 JUMP JUMPDEST SWAP1 POP DUP3 DUP2 MSTORE PUSH1 0x20 DUP2 ADD DUP5 DUP5 DUP5 ADD GT ISZERO PUSH2 0x17C JUMPI PUSH2 0x17B PUSH2 0x84 JUMP JUMPDEST JUMPDEST PUSH2 0x187 DUP5 DUP3 DUP6 PUSH2 0x140 JUMP JUMPDEST POP SWAP4 SWAP3 POP POP POP JUMP JUMPDEST PUSH0 DUP3 PUSH1 0x1F DUP4 ADD SLT PUSH2 0x1A3 JUMPI PUSH2 0x1A2 PUSH2 0x80 JUMP JUMPDEST JUMPDEST DUP2 MLOAD PUSH2 0x1B3 DUP5 DUP3 PUSH1 0x20 DUP7 ADD PUSH2 0x14E JUMP JUMPDEST SWAP2 POP POP SWAP3 SWAP2 POP POP JUMP JUMPDEST PUSH0 DUP2 SWAP1 POP SWAP2 SWAP1 POP JUMP JUMPDEST PUSH2 0x1CE DUP2 PUSH2 0x1BC JUMP JUMPDEST DUP2 EQ PUSH2 0x1D8 JUMPI PUSH0 DUP1 REVERT JUMPDEST POP JUMP JUMPDEST PUSH0 DUP2 MLOAD SWAP1 POP PUSH2 0x1E9 DUP2 PUSH2 0x1C5 JUMP JUMPDEST SWAP3 SWAP2 POP POP JUMP JUMPDEST PUSH0 DUP1 PUSH1 0x40 DUP4 DUP6 SUB SLT ISZERO PUSH2 0x205 JUMPI PUSH2 0x204 PUSH2 0x78 JUMP JUMPDEST JUMPDEST PUSH0 DUP4 ADD MLOAD PUSH8 0xFFFFFFFFFFFFFFFF DUP2 GT ISZERO PUSH2 0x222 JUMPI PUSH2 0x221 PUSH2 0x7C JUMP JUMPDEST JUMPDEST PUSH2 0x22E DUP6 DUP3 DUP7 ADD PUSH2 0x18F JUMP JUMPDEST SWAP3 POP POP PUSH1 0x20 PUSH2 0x23F DUP6 DUP3 DUP7 ADD PUSH2 0x1DB JUMP JUMPDEST SWAP2 POP POP SWAP3 POP SWAP3 SWAP1 POP JUMP JUMPDEST PUSH0 DUP2 MLOAD SWAP1 POP SWAP2 SWAP1 POP JUMP JUMPDEST PUSH32 0x4E487B7100000000000000000000000000000000000000000000000000000000 PUSH0 MSTORE PUSH1 0x22 PUSH1 0x4 MSTORE PUSH1 0x24 PUSH0 REVERT JUMPDEST PUSH0 PUSH1 0x2 DUP3 DIV SWAP1 POP PUSH1 0x1 DUP3 AND DUP1 PUSH2 0x297 JUMPI PUSH1 0x7F DUP3 AND SWAP2 POP JUMPDEST PUSH1 0x20 DUP3 LT DUP2 SUB PUSH2 0x2AA JUMPI PUSH2 0x2A9 PUSH2 0x253 JUMP JUMPDEST JUMPDEST POP SWAP2 SWAP1 POP JUMP JUMPDEST PUSH0 DUP2 SWAP1 POP DUP2 PUSH0 MSTORE PUSH1 0x20 PUSH0 KECCAK256 SWAP1 POP SWAP2 SWAP1 POP JUMP JUMPDEST PUSH0 PUSH1 0x20 PUSH1 0x1F DUP4 ADD DIV SWAP1 POP SWAP2 SWAP1 POP JUMP JUMPDEST PUSH0 DUP3 DUP3 SHL SWAP1 POP SWAP3 SWAP2 POP POP JUMP JUMPDEST PUSH0 PUSH1 0x8 DUP4 MUL PUSH2 0x30C PUSH32 0xFFFFFFFFFFFFFFFFFFFFFFFFFFFFFFFFFFFFFFFFFFFFFFFFFFFFFFFFFFFFFFFF DUP3 PUSH2 0x2D1 JUMP JUMPDEST PUSH2 0x316 DUP7 DUP4 PUSH2 0x2D1 JUMP JUMPDEST SWAP6 POP DUP1 NOT DUP5 AND SWAP4 POP DUP1 DUP7 AND DUP5 OR SWAP3 POP POP POP SWAP4 SWAP3 POP POP POP JUMP JUMPDEST PUSH0 DUP2 SWAP1 POP SWAP2 SWAP1 POP JUMP JUMPDEST PUSH0 PUSH2 0x351 PUSH2 0x34C PUSH2 0x347 DUP5 PUSH2 0x1BC JUMP JUMPDEST PUSH2 0x32E JUMP JUMPDEST PUSH2 0x1BC JUMP JUMPDEST SWAP1 POP SWAP2 SWAP1 POP JUMP JUMPDEST PUSH0 DUP2 SWAP1 POP SWAP2 SWAP1 POP JUMP JUMPDEST PUSH2 0x36A DUP4 PUSH2 0x337 JUMP JUMPDEST PUSH2 0x37E PUSH2 0x376 DUP3 PUSH2 0x358 JUMP JUMPDEST DUP5 DUP5 SLOAD PUSH2 0x2DD JUMP JUMPDEST DUP3 SSTORE POP POP POP POP JUMP JUMPDEST PUSH0 SWAP1 JUMP JUMPDEST PUSH2 0x392 PUSH2 0x386 JUMP JUMPDEST PUSH2 0x39D DUP2 DUP5 DUP5 PUSH2 0x361 JUMP JUMPDEST POP POP POP JUMP JUMPDEST JUMPDEST DUP2 DUP2 LT ISZERO PUSH2 0x3C0 JUMPI PUSH2 0x3B5 PUSH0 DUP3 PUSH2 0x38A JUMP JUMPDEST PUSH1 0x1 DUP2 ADD SWAP1 POP PUSH2 0x3A3 JUMP JUMPDEST POP POP JUMP JUMPDEST PUSH1 0x1F DUP3 GT ISZERO PUSH2 0x405 JUMPI PUSH2 0x3D6 DUP2 PUSH2 0x2B0 JUMP JUMPDEST PUSH2 0x3DF DUP5 PUSH2 0x2C2 JUMP JUMPDEST DUP2 ADD PUSH1 0x20 DUP6 LT ISZERO PUSH2 0x3EE JUMPI DUP2 SWAP1 POP JUMPDEST PUSH2 0x402 PUSH2 0x3FA DUP6 PUSH2 0x2C2 JUMP JUMPDEST DUP4 ADD DUP3 PUSH2 0x3A2 JUMP JUMPDEST POP POP JUMPDEST POP POP POP JUMP JUMPDEST PUSH0 DUP3 DUP3 SHR SWAP1 POP SWAP3 SWAP2 POP POP JUMP JUMPDEST PUSH0 PUSH2 0x425 PUSH0 NOT DUP5 PUSH1 0x8 MUL PUSH2 0x40A JUMP JUMPDEST NOT DUP1 DUP4 AND SWAP2 POP POP SWAP3 SWAP2 POP POP JUMP JUMPDEST PUSH0 PUSH2 0x43D DUP4 DUP4 PUSH2 0x416 JUMP JUMPDEST SWAP2 POP DUP3 PUSH1 0x2 MUL DUP3 OR SWAP1 POP SWAP3 SWAP2 POP POP JUMP JUMPDEST PUSH2 0x456 DUP3 PUSH2 0x249 JUMP JUMPDEST PUSH8 0xFFFFFFFFFFFFFFFF DUP2 GT ISZERO PUSH2 0x46F JUMPI PUSH2 0x46E PUSH2 0x98 JUMP JUMPDEST JUMPDEST PUSH2 0x479 DUP3 SLOAD PUSH2 0x280 JUMP JUMPDEST PUSH2 0x484 DUP3 DUP3 DUP6 PUSH2 0x3C4 JUMP JUMPDEST PUSH0 PUSH1 0x20 SWAP1 POP PUSH1 0x1F DUP4 GT PUSH1 0x1 DUP2 EQ PUSH2 0x4B5 JUMPI PUSH0 DUP5 ISZERO PUSH2 0x4A3 JUMPI DUP3 DUP8 ADD MLOAD SWAP1 POP JUMPDEST PUSH2 0x4AD DUP6 DUP3 PUSH2 0x432 JUMP JUMPDEST DUP7 SSTORE POP PUSH2 0x514 JUMP JUMPDEST PUSH1 0x1F NOT DUP5 AND PUSH2 0x4C3 DUP7 PUSH2 0x2B0 JUMP JUMPDEST PUSH0 JUMPDEST DUP3 DUP2 LT ISZERO PUSH2 0x4EA JUMPI DUP5 DUP10 ADD MLOAD DUP3 SSTORE PUSH1 0x1 DUP3 ADD SWAP2 POP PUSH1 0x20 DUP6 ADD SWAP5 POP PUSH1 0x20 DUP2 ADD SWAP1 POP PUSH2 0x4C5 JUMP JUMPDEST DUP7 DUP4 LT ISZERO PUSH2 0x507 JUMPI DUP5 DUP10 ADD MLOAD PUSH2 0x503 PUSH1 0x1F DUP10 AND DUP3 PUSH2 0x416 JUMP JUMPDEST DUP4 SSTORE POP JUMPDEST PUSH1 0x1 PUSH1 0x2 DUP9 MUL ADD DUP9 SSTORE POP POP POP JUMPDEST POP POP POP POP POP POP JUMP JUMPDEST PUSH2 0x6A4 DUP1 PUSH2 0x529 PUSH0 CODECOPY PUSH0 RETURN INVALID PUSH1 0x80 PUSH1 0x40 MSTORE CALLVALUE DUP1 ISZERO PUSH2 0xF JUMPI PUSH0 DUP1 REVERT JUMPDEST POP PUSH1 0x4 CALLDATASIZE LT PUSH2 0x34 JUMPI PUSH0 CALLDATALOAD PUSH1 0xE0 SHR DUP1 PUSH4 0x8EC4DC95 EQ PUSH2 0x38 JUMPI DUP1 PUSH4 0xA883BA14 EQ PUSH2 0x57 JUMPI JUMPDEST PUSH0 DUP1 REVERT JUMPDEST PUSH2 0x40 PUSH2 0x73 JUMP JUMPDEST PUSH1 0x40 MLOAD PUSH2 0x4E SWAP3 SWAP2 SWAP1 PUSH2 0x1B6 JUMP JUMPDEST PUSH1 0x40 MLOAD DUP1 SWAP2 SUB SWAP1 RETURN JUMPDEST PUSH2 0x71 PUSH1 0x4 DUP1 CALLDATASIZE SUB DUP2 ADD SWAP1 PUSH2 0x6C SWAP2 SWAP1 PUSH2 0x34B JUMP JUMPDEST PUSH2 0x110 JUMP JUMPDEST STOP JUMPDEST PUSH1 0x60 PUSH0 DUP1 PUSH0 ADD PUSH0 PUSH1 0x1 ADD SLOAD DUP2 DUP1 SLOAD PUSH2 0x8A SWAP1 PUSH2 0x3D2 JUMP JUMPDEST DUP1 PUSH1 0x1F ADD PUSH1 0x20 DUP1 SWAP2 DIV MUL PUSH1 0x20 ADD PUSH1 0x40 MLOAD SWAP1 DUP2 ADD PUSH1 0x40 MSTORE DUP1 SWAP3 SWAP2 SWAP1 DUP2 DUP2 MSTORE PUSH1 0x20 ADD DUP3 DUP1 SLOAD PUSH2 0xB6 SWAP1 PUSH2 0x3D2 JUMP JUMPDEST DUP1 ISZERO PUSH2 0x101 JUMPI DUP1 PUSH1 0x1F LT PUSH2 0xD8 JUMPI PUSH2 0x100 DUP1 DUP4 SLOAD DIV MUL DUP4 MSTORE SWAP2 PUSH1 0x20 ADD SWAP2 PUSH2 0x101 JUMP JUMPDEST DUP3 ADD SWAP2 SWAP1 PUSH0 MSTORE PUSH1 0x20 PUSH0 KECCAK256 SWAP1 JUMPDEST DUP2 SLOAD DUP2 MSTORE SWAP1 PUSH1 0x1 ADD SWAP1 PUSH1 0x20 ADD DUP1 DUP4 GT PUSH2 0xE4 JUMPI DUP3 SWAP1 SUB PUSH1 0x1F AND DUP3 ADD SWAP2 JUMPDEST POP POP POP POP POP SWAP2 POP SWAP2 POP SWAP2 POP SWAP1 SWAP2 JUMP JUMPDEST DUP2 PUSH0 DUP1 ADD SWAP1 DUP2 PUSH2 0x120 SWAP2 SWAP1 PUSH2 0x59F JUMP JUMPDEST POP DUP1 PUSH0 PUSH1 0x1 ADD DUP2 SWAP1 SSTORE POP POP POP JUMP JUMPDEST PUSH0 DUP2 MLOAD SWAP1 POP SWAP2 SWAP1 POP JUMP JUMPDEST PUSH0 DUP3 DUP3 MSTORE PUSH1 0x20 DUP3 ADD SWAP1 POP SWAP3 SWAP2 POP POP JUMP JUMPDEST DUP3 DUP2 DUP4 MCOPY PUSH0 DUP4 DUP4 ADD MSTORE POP POP POP JUMP JUMPDEST PUSH0 PUSH1 0x1F NOT PUSH1 0x1F DUP4 ADD AND SWAP1 POP SWAP2 SWAP1 POP JUMP JUMPDEST PUSH0 PUSH2 0x170 DUP3 PUSH2 0x12E JUMP JUMPDEST PUSH2 0x17A DUP2 DUP6 PUSH2 0x138 JUMP JUMPDEST SWAP4 POP PUSH2 0x18A DUP2 DUP6 PUSH1 0x20 DUP7 ADD PUSH2 0x148 JUMP JUMPDEST PUSH2 0x193 DUP2 PUSH2 0x156 JUMP JUMPDEST DUP5 ADD SWAP2 POP POP SWAP3 SWAP2 POP POP JUMP JUMPDEST PUSH0 DUP2 SWAP1 POP SWAP2 SWAP1 POP JUMP JUMPDEST PUSH2 0x1B0 DUP2 PUSH2 0x19E JUMP JUMPDEST DUP3 MSTORE POP POP JUMP JUMPDEST PUSH0 PUSH1 0x40 DUP3 ADD SWAP1 POP DUP2 DUP2 SUB PUSH0 DUP4 ADD MSTORE PUSH2 0x1CE DUP2 DUP6 PUSH2 0x166 JUMP JUMPDEST SWAP1 POP PUSH2 0x1DD PUSH1 0x20 DUP4 ADD DUP5 PUSH2 0x1A7 JUMP JUMPDEST SWAP4 SWAP3 POP POP POP JUMP JUMPDEST PUSH0 PUSH1 0x40 MLOAD SWAP1 POP SWAP1 JUMP JUMPDEST PUSH0 DUP1 REVERT JUMPDEST PUSH0 DUP1 REVERT JUMPDEST PUSH0 DUP1 REVERT JUMPDEST PUSH0 DUP1 REVERT JUMPDEST PUSH32 0x4E487B7100000000000000000000000000000000000000000000000000000000 PUSH0 MSTORE PUSH1 0x41 PUSH1 0x4 MSTORE PUSH1 0x24 PUSH0 REVERT JUMPDEST PUSH2 0x233 DUP3 PUSH2 0x156 JUMP JUMPDEST DUP2 ADD DUP2 DUP2 LT PUSH8 0xFFFFFFFFFFFFFFFF DUP3 GT OR ISZERO PUSH2 0x252 JUMPI PUSH2 0x251 PUSH2 0x1FD JUMP JUMPDEST JUMPDEST DUP1 PUSH1 0x40 MSTORE POP POP POP JUMP JUMPDEST PUSH0 PUSH2 0x264 PUSH2 0x1E4 JUMP JUMPDEST SWAP1 POP PUSH2 0x270 DUP3 DUP3 PUSH2 0x22A JUMP JUMPDEST SWAP2 SWAP1 POP JUMP JUMPDEST PUSH0 PUSH8 0xFFFFFFFFFFFFFFFF DUP3 GT ISZERO PUSH2 0x28F JUMPI PUSH2 0x28E PUSH2 0x1FD JUMP JUMPDEST JUMPDEST PUSH2 0x298 DUP3 PUSH2 0x156 JUMP JUMPDEST SWAP1 POP PUSH1 0x20 DUP2 ADD SWAP1 POP SWAP2 SWAP1 POP JUMP JUMPDEST DUP3 DUP2 DUP4 CALLDATACOPY PUSH0 DUP4 DUP4 ADD MSTORE POP POP POP JUMP JUMPDEST PUSH0 PUSH2 0x2C5 PUSH2 0x2C0 DUP5 PUSH2 0x275 JUMP JUMPDEST PUSH2 0x25B JUMP JUMPDEST SWAP1 POP DUP3 DUP2 MSTORE PUSH1 0x20 DUP2 ADD DUP5 DUP5 DUP5 ADD GT ISZERO PUSH2 0x2E1 JUMPI PUSH2 0x2E0 PUSH2 0x1F9 JUMP JUMPDEST JUMPDEST PUSH2 0x2EC DUP5 DUP3 DUP6 PUSH2 0x2A5 JUMP JUMPDEST POP SWAP4 SWAP3 POP POP POP JUMP JUMPDEST PUSH0 DUP3 PUSH1 0x1F DUP4 ADD SLT PUSH2 0x308 JUMPI PUSH2 0x307 PUSH2 0x1F5 JUMP JUMPDEST JUMPDEST DUP2 CALLDATALOAD PUSH2 0x318 DUP5 DUP3 PUSH1 0x20 DUP7 ADD PUSH2 0x2B3 JUMP JUMPDEST SWAP2 POP POP SWAP3 SWAP2 POP POP JUMP JUMPDEST PUSH2 0x32A DUP2 PUSH2 0x19E JUMP JUMPDEST DUP2 EQ PUSH2 0x334 JUMPI PUSH0 DUP1 REVERT JUMPDEST POP JUMP JUMPDEST PUSH0 DUP2 CALLDATALOAD SWAP1 POP PUSH2 0x345 DUP2 PUSH2 0x321 JUMP JUMPDEST SWAP3 SWAP2 POP POP JUMP JUMPDEST PUSH0 DUP1 PUSH1 0x40 DUP4 DUP6 SUB SLT ISZERO PUSH2 0x361 JUMPI PUSH2 0x360 PUSH2 0x1ED JUMP JUMPDEST JUMPDEST PUSH0 DUP4 ADD CALLDATALOAD PUSH8 0xFFFFFFFFFFFFFFFF DUP2 GT ISZERO PUSH2 0x37E JUMPI PUSH2 0x37D PUSH2 0x1F1 JUMP JUMPDEST JUMPDEST PUSH2 0x38A DUP6 DUP3 DUP7 ADD PUSH2 0x2F4 JUMP JUMPDEST SWAP3 POP POP PUSH1 0x20 PUSH2 0x39B DUP6 DUP3 DUP7 ADD PUSH2 0x337 JUMP JUMPDEST SWAP2 POP POP SWAP3 POP SWAP3 SWAP1 POP JUMP JUMPDEST PUSH32 0x4E487B7100000000000000000000000000000000000000000000000000000000 PUSH0 MSTORE PUSH1 0x22 PUSH1 0x4 MSTORE PUSH1 0x24 PUSH0 REVERT JUMPDEST PUSH0 PUSH1 0x2 DUP3 DIV SWAP1 POP PUSH1 0x1 DUP3 AND DUP1 PUSH2 0x3E9 JUMPI PUSH1 0x7F DUP3 AND SWAP2 POP JUMPDEST PUSH1 0x20 DUP3 LT DUP2 SUB PUSH2 0x3FC JUMPI PUSH2 0x3FB PUSH2 0x3A5 JUMP JUMPDEST JUMPDEST POP SWAP2 SWAP1 POP JUMP JUMPDEST PUSH0 DUP2 SWAP1 POP DUP2 PUSH0 MSTORE PUSH1 0x20 PUSH0 KECCAK256 SWAP1 POP SWAP2 SWAP1 POP JUMP JUMPDEST PUSH0 PUSH1 0x20 PUSH1 0x1F DUP4 ADD DIV SWAP1 POP SWAP2 SWAP1 POP JUMP JUMPDEST PUSH0 DUP3 DUP3 SHL SWAP1 POP SWAP3 SWAP2 POP POP JUMP JUMPDEST PUSH0 PUSH1 0x8 DUP4 MUL PUSH2 0x45E PUSH32 0xFFFFFFFFFFFFFFFFFFFFFFFFFFFFFFFFFFFFFFFFFFFFFFFFFFFFFFFFFFFFFFFF DUP3 PUSH2 0x423 JUMP JUMPDEST PUSH2 0x468 DUP7 DUP4 PUSH2 0x423 JUMP JUMPDEST SWAP6 POP DUP1 NOT DUP5 AND SWAP4 POP DUP1 DUP7 AND DUP5 OR SWAP3 POP POP POP SWAP4 SWAP3 POP POP POP JUMP JUMPDEST PUSH0 DUP2 SWAP1 POP SWAP2 SWAP1 POP JUMP JUMPDEST PUSH0 PUSH2 0x4A3 PUSH2 0x49E PUSH2 0x499 DUP5 PUSH2 0x19E JUMP JUMPDEST PUSH2 0x480 JUMP JUMPDEST PUSH2 0x19E JUMP JUMPDEST SWAP1 POP SWAP2 SWAP1 POP JUMP JUMPDEST PUSH0 DUP2 SWAP1 POP SWAP2 SWAP1 POP JUMP JUMPDEST PUSH2 0x4BC DUP4 PUSH2 0x489 JUMP JUMPDEST PUSH2 0x4D0 PUSH2 0x4C8 DUP3 PUSH2 0x4AA JUMP JUMPDEST DUP5 DUP5 SLOAD PUSH2 0x42F JUMP JUMPDEST DUP3 SSTORE POP POP POP POP JUMP JUMPDEST PUSH0 SWAP1 JUMP JUMPDEST PUSH2 0x4E4 PUSH2 0x4D8 JUMP JUMPDEST PUSH2 0x4EF DUP2 DUP5 DUP5 PUSH2 0x4B3 JUMP JUMPDEST POP POP POP JUMP JUMPDEST JUMPDEST DUP2 DUP2 LT ISZERO PUSH2 0x512 JUMPI PUSH2 0x507 PUSH0 DUP3 PUSH2 0x4DC JUMP JUMPDEST PUSH1 0x1 DUP2 ADD SWAP1 POP PUSH2 0x4F5 JUMP JUMPDEST POP POP JUMP JUMPDEST PUSH1 0x1F DUP3 GT ISZERO PUSH2 0x557 JUMPI PUSH2 0x528 DUP2 PUSH2 0x402 JUMP JUMPDEST PUSH2 0x531 DUP5 PUSH2 0x414 JUMP JUMPDEST DUP2 ADD PUSH1 0x20 DUP6 LT ISZERO PUSH2 0x540 JUMPI DUP2 SWAP1 POP JUMPDEST PUSH2 0x554 PUSH2 0x54C DUP6 PUSH2 0x414 JUMP JUMPDEST DUP4 ADD DUP3 PUSH2 0x4F4 JUMP JUMPDEST POP POP JUMPDEST POP POP POP JUMP JUMPDEST PUSH0 DUP3 DUP3 SHR SWAP1 POP SWAP3 SWAP2 POP POP JUMP JUMPDEST PUSH0 PUSH2 0x577 PUSH0 NOT DUP5 PUSH1 0x8 MUL PUSH2 0x55C JUMP JUMPDEST NOT DUP1 DUP4 AND SWAP2 POP POP SWAP3 SWAP2 POP POP JUMP JUMPDEST PUSH0 PUSH2 0x58F DUP4 DUP4 PUSH2 0x568 JUMP JUMPDEST SWAP2 POP DUP3 PUSH1 0x2 MUL DUP3 OR SWAP1 POP SWAP3 SWAP2 POP POP JUMP JUMPDEST PUSH2 0x5A8 DUP3 PUSH2 0x12E JUMP JUMPDEST PUSH8 0xFFFFFFFFFFFFFFFF DUP2 GT ISZERO PUSH2 0x5C1 JUMPI PUSH2 0x5C0 PUSH2 0x1FD JUMP JUMPDEST JUMPDEST PUSH2 0x5CB DUP3 SLOAD PUSH2 0x3D2 JUMP JUMPDEST PUSH2 0x5D6 DUP3 DUP3 DUP6 PUSH2 0x516 JUMP JUMPDEST PUSH0 PUSH1 0x20 SWAP1 POP PUSH1 0x1F DUP4 GT PUSH1 0x1 DUP2 EQ PUSH2 0x607 JUMPI PUSH0 DUP5 ISZERO PUSH2 0x5F5 JUMPI DUP3 DUP8 ADD MLOAD SWAP1 POP JUMPDEST PUSH2 0x5FF DUP6 DUP3 PUSH2 0x584 JUMP JUMPDEST DUP7 SSTORE POP PUSH2 0x666 JUMP JUMPDEST PUSH1 0x1F NOT DUP5 AND PUSH2 0x615 DUP7 PUSH2 0x402 JUMP JUMPDEST PUSH0 JUMPDEST DUP3 DUP2 LT ISZERO PUSH2 0x63C JUMPI DUP5 DUP10 ADD MLOAD DUP3 SSTORE PUSH1 0x1 DUP3 ADD SWAP2 POP PUSH1 0x20 DUP6 ADD SWAP5 POP PUSH1 0x20 DUP2 ADD SWAP1 POP PUSH2 0x617 JUMP JUMPDEST DUP7 DUP4 LT ISZERO PUSH2 0x659 JUMPI DUP5 DUP10 ADD MLOAD PUSH2 0x655 PUSH1 0x1F DUP10 AND DUP3 PUSH2 0x568 JUMP JUMPDEST DUP4 SSTORE POP JUMPDEST PUSH1 0x1 PUSH1 0x2 DUP9 MUL ADD DUP9 SSTORE POP POP POP JUMPDEST POP POP POP POP POP POP JUMP INVALID LOG2 PUSH5 0x6970667358 0x22 SLT KECCAK256 0xE7 0xEC 0xD6 0xD5 PUSH24 0x33CFB4C76DCF12EBA5794B7E45BC3C5D5B2B345C3737D8DA 0xF9 SWAP12 0xFB PUSH5 0x736F6C6343 STOP ADDMOD BYTE STOP CALLER "
				},
				"gasEstimates": {
					"creation": {
						"codeDepositCost": "340000",
						"executionCost": "infinite",
						"totalCost": "infinite"
					},
					"external": {
						"getPerson()": "infinite",
						"updatePerson(string,uint256)": "infinite"
					}
				},
				"methodIdentifiers": {
					"getPerson()": "8ec4dc95",
					"updatePerson(string,uint256)": "a883ba14"
				}
			},
			"storageLayout": {
				"storage": [
					{
						"astId": 9,
						"contract": "contracts/PersonStruct.sol:PersonStruct",
						"label": "p",
						"offset": 0,
						"slot": "0",
						"type": "t_struct(Person)6_storage"
					}
				],
				"types": {
					"t_string_storage": {
						"encoding": "bytes",
						"label": "string",
						"numberOfBytes": "32"
					},
					"t_struct(Person)6_storage": {
						"encoding": "inplace",
						"label": "struct PersonStruct.Person",
						"members": [
							{
								"astId": 3,
								"contract": "contracts/PersonStruct.sol:PersonStruct",
								"label": "name",
								"offset": 0,
								"slot": "0",
								"type": "t_string_storage"
							},
							{
								"astId": 5,
								"contract": "contracts/PersonStruct.sol:PersonStruct",
								"label": "age",
								"offset": 0,
								"slot": "1",
								"type": "t_uint256"
							}
						],
						"numberOfBytes": "64"
					},
					"t_uint256": {
						"encoding": "inplace",
						"label": "uint256",
						"numberOfBytes": "32"
					}
				}
			},
			"userdoc": {
				"kind": "user",
				"methods": {},
				"version": 1
			}
		}
	}
}