{
	"contracts/ArmstrongCheck.sol": {
		"ArmstrongCheck": {
			"abi": [
				{
					"inputs": [
						{
							"internalType": "uint256",
							"name": "num",
							"type": "uint256"
						}
					],
					"name": "isArmstrong",
					"outputs": [
						{
							"internalType": "bool",
							"name": "",
							"type": "bool"
						}
					],
					"stateMutability": "pure",
					"type": "function"
				}
			],
			"devdoc": {
				"kind": "dev",
				"methods": {},
				"version": 1
			},
			"evm": {
				"assembly": "    /* \"contracts/ArmstrongCheck.sol\":60:399  contract ArmstrongCheck {... */\n  mstore(0x40, 0x80)\n  callvalue\n  dup1\n  iszero\n  tag_1\n  jumpi\n  0x00\n  dup1\n  revert\ntag_1:\n  pop\n  dataSize(sub_0)\n  dup1\n  dataOffset(sub_0)\n  0x00\n  codecopy\n  0x00\n  return\nstop\n\nsub_0: assembly {\n        /* \"contracts/ArmstrongCheck.sol\":60:399  contract ArmstrongCheck {... */\n      mstore(0x40, 0x80)\n      callvalue\n      dup1\n      iszero\n      tag_1\n      jumpi\n      0x00\n      dup1\n      revert\n    tag_1:\n      pop\n      jumpi(tag_2, lt(calldatasize, 0x04))\n      shr(0xe0, calldataload(0x00))\n      dup1\n      0xfe459d20\n      eq\n      tag_3\n      jumpi\n    tag_2:\n      0x00\n      dup1\n      revert\n        /* \"contracts/ArmstrongCheck.sol\":91:396  function isArmstrong(uint256 num) public pure returns (bool) {... */\n    tag_3:\n      tag_4\n      0x04\n      dup1\n      calldatasize\n      sub\n      dup2\n      add\n      swap1\n      tag_5\n      swap2\n      swap1\n      tag_6\n      jump\t// in\n    tag_5:\n      tag_7\n      jump\t// in\n    tag_4:\n      mload(0x40)\n      tag_8\n      swap2\n      swap1\n      tag_9\n      jump\t// in\n    tag_8:\n      mload(0x40)\n      dup1\n      swap2\n      sub\n      swap1\n      return\n    tag_7:\n        /* \"contracts/ArmstrongCheck.sol\":146:150  bool */\n      0x00\n        /* \"contracts/ArmstrongCheck.sol\":163:179  uint256 original */\n      dup1\n        /* \"contracts/ArmstrongCheck.sol\":182:185  num */\n      dup3\n        /* \"contracts/ArmstrongCheck.sol\":163:185  uint256 original = num */\n      swap1\n      pop\n        /* \"contracts/ArmstrongCheck.sol\":196:207  uint256 sum */\n      0x00\n        /* \"contracts/ArmstrongCheck.sol\":222:356  while (num > 0) {... */\n    tag_11:\n        /* \"contracts/ArmstrongCheck.sol\":235:236  0 */\n      0x00\n        /* \"contracts/ArmstrongCheck.sol\":229:232  num */\n      dup5\n        /* \"contracts/ArmstrongCheck.sol\":229:236  num > 0 */\n      gt\n        /* \"contracts/ArmstrongCheck.sol\":222:356  while (num > 0) {... */\n      iszero\n      tag_12\n      jumpi\n        /* \"contracts/ArmstrongCheck.sol\":253:266  uint256 digit */\n      0x00\n        /* \"contracts/ArmstrongCheck.sol\":275:277  10 */\n      0x0a\n        /* \"contracts/ArmstrongCheck.sol\":269:272  num */\n      dup6\n        /* \"contracts/ArmstrongCheck.sol\":269:277  num % 10 */\n      tag_13\n      swap2\n      swap1\n      tag_14\n      jump\t// in\n    tag_13:\n        /* \"contracts/ArmstrongCheck.sol\":253:277  uint256 digit = num % 10 */\n      swap1\n      pop\n        /* \"contracts/ArmstrongCheck.sol\":315:320  digit */\n      dup1\n        /* \"contracts/ArmstrongCheck.sol\":307:312  digit */\n      dup2\n        /* \"contracts/ArmstrongCheck.sol\":299:304  digit */\n      dup3\n        /* \"contracts/ArmstrongCheck.sol\":299:312  digit * digit */\n      tag_15\n      swap2\n      swap1\n      tag_16\n      jump\t// in\n    tag_15:\n        /* \"contracts/ArmstrongCheck.sol\":299:320  digit * digit * digit */\n      tag_17\n      swap2\n      swap1\n      tag_16\n      jump\t// in\n    tag_17:\n        /* \"contracts/ArmstrongCheck.sol\":292:320  sum += digit * digit * digit */\n      dup3\n      tag_18\n      swap2\n      swap1\n      tag_19\n      jump\t// in\n    tag_18:\n      swap2\n      pop\n        /* \"contracts/ArmstrongCheck.sol\":342:344  10 */\n      0x0a\n        /* \"contracts/ArmstrongCheck.sol\":335:344  num /= 10 */\n      dup6\n      tag_20\n      swap2\n      swap1\n      tag_21\n      jump\t// in\n    tag_20:\n      swap5\n      pop\n        /* \"contracts/ArmstrongCheck.sol\":238:356  {... */\n      pop\n        /* \"contracts/ArmstrongCheck.sol\":222:356  while (num > 0) {... */\n      jump(tag_11)\n    tag_12:\n        /* \"contracts/ArmstrongCheck.sol\":380:388  original */\n      dup2\n        /* \"contracts/ArmstrongCheck.sol\":373:376  sum */\n      dup2\n        /* \"contracts/ArmstrongCheck.sol\":373:388  sum == original */\n      eq\n        /* \"contracts/ArmstrongCheck.sol\":366:388  return sum == original */\n      swap3\n      pop\n      pop\n      pop\n        /* \"contracts/ArmstrongCheck.sol\":91:396  function isArmstrong(uint256 num) public pure returns (bool) {... */\n      swap2\n      swap1\n      pop\n      jump\t// out\n        /* \"#utility.yul\":88:205   */\n    tag_23:\n        /* \"#utility.yul\":197:198   */\n      0x00\n        /* \"#utility.yul\":194:195   */\n      dup1\n        /* \"#utility.yul\":187:199   */\n      revert\n        /* \"#utility.yul\":334:411   */\n    tag_25:\n        /* \"#utility.yul\":371:378   */\n      0x00\n        /* \"#utility.yul\":400:405   */\n      dup2\n        /* \"#utility.yul\":389:405   */\n      swap1\n      pop\n        /* \"#utility.yul\":334:411   */\n      swap2\n      swap1\n      pop\n      jump\t// out\n        /* \"#utility.yul\":417:539   */\n    tag_26:\n        /* \"#utility.yul\":490:514   */\n      tag_38\n        /* \"#utility.yul\":508:513   */\n      dup2\n        /* \"#utility.yul\":490:514   */\n      tag_25\n      jump\t// in\n    tag_38:\n        /* \"#utility.yul\":483:488   */\n      dup2\n        /* \"#utility.yul\":480:515   */\n      eq\n        /* \"#utility.yul\":470:533   */\n      tag_39\n      jumpi\n        /* \"#utility.yul\":529:530   */\n      0x00\n        /* \"#utility.yul\":526:527   */\n      dup1\n        /* \"#utility.yul\":519:531   */\n      revert\n        /* \"#utility.yul\":470:533   */\n    tag_39:\n        /* \"#utility.yul\":417:539   */\n      pop\n      jump\t// out\n        /* \"#utility.yul\":545:684   */\n    tag_27:\n        /* \"#utility.yul\":591:596   */\n      0x00\n        /* \"#utility.yul\":629:635   */\n      dup2\n        /* \"#utility.yul\":616:636   */\n      calldataload\n        /* \"#utility.yul\":607:636   */\n      swap1\n      pop\n        /* \"#utility.yul\":645:678   */\n      tag_41\n        /* \"#utility.yul\":672:677   */\n      dup2\n        /* \"#utility.yul\":645:678   */\n      tag_26\n      jump\t// in\n    tag_41:\n        /* \"#utility.yul\":545:684   */\n      swap3\n      swap2\n      pop\n      pop\n      jump\t// out\n        /* \"#utility.yul\":690:1019   */\n    tag_6:\n        /* \"#utility.yul\":749:755   */\n      0x00\n        /* \"#utility.yul\":798:800   */\n      0x20\n        /* \"#utility.yul\":786:795   */\n      dup3\n        /* \"#utility.yul\":777:784   */\n      dup5\n        /* \"#utility.yul\":773:796   */\n      sub\n        /* \"#utility.yul\":769:801   */\n      slt\n        /* \"#utility.yul\":766:885   */\n      iszero\n      tag_43\n      jumpi\n        /* \"#utility.yul\":804:883   */\n      tag_44\n      tag_23\n      jump\t// in\n    tag_44:\n        /* \"#utility.yul\":766:885   */\n    tag_43:\n        /* \"#utility.yul\":924:925   */\n      0x00\n        /* \"#utility.yul\":949:1002   */\n      tag_45\n        /* \"#utility.yul\":994:1001   */\n      dup5\n        /* \"#utility.yul\":985:991   */\n      dup3\n        /* \"#utility.yul\":974:983   */\n      dup6\n        /* \"#utility.yul\":970:992   */\n      add\n        /* \"#utility.yul\":949:1002   */\n      tag_27\n      jump\t// in\n    tag_45:\n        /* \"#utility.yul\":939:1002   */\n      swap2\n      pop\n        /* \"#utility.yul\":895:1012   */\n      pop\n        /* \"#utility.yul\":690:1019   */\n      swap3\n      swap2\n      pop\n      pop\n      jump\t// out\n        /* \"#utility.yul\":1025:1115   */\n    tag_28:\n        /* \"#utility.yul\":1059:1066   */\n      0x00\n        /* \"#utility.yul\":1102:1107   */\n      dup2\n        /* \"#utility.yul\":1095:1108   */\n      iszero\n        /* \"#utility.yul\":1088:1109   */\n      iszero\n        /* \"#utility.yul\":1077:1109   */\n      swap1\n      pop\n        /* \"#utility.yul\":1025:1115   */\n      swap2\n      swap1\n      pop\n      jump\t// out\n        /* \"#utility.yul\":1121:1230   */\n    tag_29:\n        /* \"#utility.yul\":1202:1223   */\n      tag_48\n        /* \"#utility.yul\":1217:1222   */\n      dup2\n        /* \"#utility.yul\":1202:1223   */\n      tag_28\n      jump\t// in\n    tag_48:\n        /* \"#utility.yul\":1197:1200   */\n      dup3\n        /* \"#utility.yul\":1190:1224   */\n      mstore\n        /* \"#utility.yul\":1121:1230   */\n      pop\n      pop\n      jump\t// out\n        /* \"#utility.yul\":1236:1446   */\n    tag_9:\n        /* \"#utility.yul\":1323:1327   */\n      0x00\n        /* \"#utility.yul\":1361:1363   */\n      0x20\n        /* \"#utility.yul\":1350:1359   */\n      dup3\n        /* \"#utility.yul\":1346:1364   */\n      add\n        /* \"#utility.yul\":1338:1364   */\n      swap1\n      pop\n        /* \"#utility.yul\":1374:1439   */\n      tag_50\n        /* \"#utility.yul\":1436:1437   */\n      0x00\n        /* \"#utility.yul\":1425:1434   */\n      dup4\n        /* \"#utility.yul\":1421:1438   */\n      add\n        /* \"#utility.yul\":1412:1418   */\n      dup5\n        /* \"#utility.yul\":1374:1439   */\n      tag_29\n      jump\t// in\n    tag_50:\n        /* \"#utility.yul\":1236:1446   */\n      swap3\n      swap2\n      pop\n      pop\n      jump\t// out\n        /* \"#utility.yul\":1452:1632   */\n    tag_30:\n        /* \"#utility.yul\":1500:1577   */\n      0x4e487b7100000000000000000000000000000000000000000000000000000000\n        /* \"#utility.yul\":1497:1498   */\n      0x00\n        /* \"#utility.yul\":1490:1578   */\n      mstore\n        /* \"#utility.yul\":1597:1601   */\n      0x12\n        /* \"#utility.yul\":1594:1595   */\n      0x04\n        /* \"#utility.yul\":1587:1602   */\n      mstore\n        /* \"#utility.yul\":1621:1625   */\n      0x24\n        /* \"#utility.yul\":1618:1619   */\n      0x00\n        /* \"#utility.yul\":1611:1626   */\n      revert\n        /* \"#utility.yul\":1638:1814   */\n    tag_14:\n        /* \"#utility.yul\":1670:1671   */\n      0x00\n        /* \"#utility.yul\":1687:1707   */\n      tag_53\n        /* \"#utility.yul\":1705:1706   */\n      dup3\n        /* \"#utility.yul\":1687:1707   */\n      tag_25\n      jump\t// in\n    tag_53:\n        /* \"#utility.yul\":1682:1707   */\n      swap2\n      pop\n        /* \"#utility.yul\":1721:1741   */\n      tag_54\n        /* \"#utility.yul\":1739:1740   */\n      dup4\n        /* \"#utility.yul\":1721:1741   */\n      tag_25\n      jump\t// in\n    tag_54:\n        /* \"#utility.yul\":1716:1741   */\n      swap3\n      pop\n        /* \"#utility.yul\":1760:1761   */\n      dup3\n        /* \"#utility.yul\":1750:1785   */\n      tag_55\n      jumpi\n        /* \"#utility.yul\":1765:1783   */\n      tag_56\n      tag_30\n      jump\t// in\n    tag_56:\n        /* \"#utility.yul\":1750:1785   */\n    tag_55:\n        /* \"#utility.yul\":1806:1807   */\n      dup3\n        /* \"#utility.yul\":1803:1804   */\n      dup3\n        /* \"#utility.yul\":1799:1808   */\n      mod\n        /* \"#utility.yul\":1794:1808   */\n      swap1\n      pop\n        /* \"#utility.yul\":1638:1814   */\n      swap3\n      swap2\n      pop\n      pop\n      jump\t// out\n        /* \"#utility.yul\":1820:2000   */\n    tag_31:\n        /* \"#utility.yul\":1868:1945   */\n      0x4e487b7100000000000000000000000000000000000000000000000000000000\n        /* \"#utility.yul\":1865:1866   */\n      0x00\n        /* \"#utility.yul\":1858:1946   */\n      mstore\n        /* \"#utility.yul\":1965:1969   */\n      0x11\n        /* \"#utility.yul\":1962:1963   */\n      0x04\n        /* \"#utility.yul\":1955:1970   */\n      mstore\n        /* \"#utility.yul\":1989:1993   */\n      0x24\n        /* \"#utility.yul\":1986:1987   */\n      0x00\n        /* \"#utility.yul\":1979:1994   */\n      revert\n        /* \"#utility.yul\":2006:2416   */\n    tag_16:\n        /* \"#utility.yul\":2046:2053   */\n      0x00\n        /* \"#utility.yul\":2069:2089   */\n      tag_59\n        /* \"#utility.yul\":2087:2088   */\n      dup3\n        /* \"#utility.yul\":2069:2089   */\n      tag_25\n      jump\t// in\n    tag_59:\n        /* \"#utility.yul\":2064:2089   */\n      swap2\n      pop\n        /* \"#utility.yul\":2103:2123   */\n      tag_60\n        /* \"#utility.yul\":2121:2122   */\n      dup4\n        /* \"#utility.yul\":2103:2123   */\n      tag_25\n      jump\t// in\n    tag_60:\n        /* \"#utility.yul\":2098:2123   */\n      swap3\n      pop\n        /* \"#utility.yul\":2158:2159   */\n      dup3\n        /* \"#utility.yul\":2155:2156   */\n      dup3\n        /* \"#utility.yul\":2151:2160   */\n      mul\n        /* \"#utility.yul\":2180:2210   */\n      tag_61\n        /* \"#utility.yul\":2198:2209   */\n      dup2\n        /* \"#utility.yul\":2180:2210   */\n      tag_25\n      jump\t// in\n    tag_61:\n        /* \"#utility.yul\":2169:2210   */\n      swap2\n      pop\n        /* \"#utility.yul\":2359:2360   */\n      dup3\n        /* \"#utility.yul\":2350:2357   */\n      dup3\n        /* \"#utility.yul\":2346:2361   */\n      div\n        /* \"#utility.yul\":2343:2344   */\n      dup5\n        /* \"#utility.yul\":2340:2362   */\n      eq\n        /* \"#utility.yul\":2320:2321   */\n      dup4\n        /* \"#utility.yul\":2313:2322   */\n      iszero\n        /* \"#utility.yul\":2293:2376   */\n      or\n        /* \"#utility.yul\":2270:2409   */\n      tag_62\n      jumpi\n        /* \"#utility.yul\":2389:2407   */\n      tag_63\n      tag_31\n      jump\t// in\n    tag_63:\n        /* \"#utility.yul\":2270:2409   */\n    tag_62:\n        /* \"#utility.yul\":2054:2416   */\n      pop\n        /* \"#utility.yul\":2006:2416   */\n      swap3\n      swap2\n      pop\n      pop\n      jump\t// out\n        /* \"#utility.yul\":2422:2613   */\n    tag_19:\n        /* \"#utility.yul\":2462:2465   */\n      0x00\n        /* \"#utility.yul\":2481:2501   */\n      tag_65\n        /* \"#utility.yul\":2499:2500   */\n      dup3\n        /* \"#utility.yul\":2481:2501   */\n      tag_25\n      jump\t// in\n    tag_65:\n        /* \"#utility.yul\":2476:2501   */\n      swap2\n      pop\n        /* \"#utility.yul\":2515:2535   */\n      tag_66\n        /* \"#utility.yul\":2533:2534   */\n      dup4\n        /* \"#utility.yul\":2515:2535   */\n      tag_25\n      jump\t// in\n    tag_66:\n        /* \"#utility.yul\":2510:2535   */\n      swap3\n      pop\n        /* \"#utility.yul\":2558:2559   */\n      dup3\n        /* \"#utility.yul\":2555:2556   */\n      dup3\n        /* \"#utility.yul\":2551:2560   */\n      add\n        /* \"#utility.yul\":2544:2560   */\n      swap1\n      pop\n        /* \"#utility.yul\":2579:2582   */\n      dup1\n        /* \"#utility.yul\":2576:2577   */\n      dup3\n        /* \"#utility.yul\":2573:2583   */\n      gt\n        /* \"#utility.yul\":2570:2606   */\n      iszero\n      tag_67\n      jumpi\n        /* \"#utility.yul\":2586:2604   */\n      tag_68\n      tag_31\n      jump\t// in\n    tag_68:\n        /* \"#utility.yul\":2570:2606   */\n    tag_67:\n        /* \"#utility.yul\":2422:2613   */\n      swap3\n      swap2\n      pop\n      pop\n      jump\t// out\n        /* \"#utility.yul\":2619:2804   */\n    tag_21:\n        /* \"#utility.yul\":2659:2660   */\n      0x00\n        /* \"#utility.yul\":2676:2696   */\n      tag_70\n        /* \"#utility.yul\":2694:2695   */\n      dup3\n        /* \"#utility.yul\":2676:2696   */\n      tag_25\n      jump\t// in\n    tag_70:\n        /* \"#utility.yul\":2671:2696   */\n      swap2\n      pop\n        /* \"#utility.yul\":2710:2730   */\n      tag_71\n        /* \"#utility.yul\":2728:2729   */\n      dup4\n        /* \"#utility.yul\":2710:2730   */\n      tag_25\n      jump\t// in\n    tag_71:\n        /* \"#utility.yul\":2705:2730   */\n      swap3\n      pop\n        /* \"#utility.yul\":2749:2750   */\n      dup3\n        /* \"#utility.yul\":2739:2774   */\n      tag_72\n      jumpi\n        /* \"#utility.yul\":2754:2772   */\n      tag_73\n      tag_30\n      jump\t// in\n    tag_73:\n        /* \"#utility.yul\":2739:2774   */\n    tag_72:\n        /* \"#utility.yul\":2796:2797   */\n      dup3\n        /* \"#utility.yul\":2793:2794   */\n      dup3\n        /* \"#utility.yul\":2789:2798   */\n      div\n        /* \"#utility.yul\":2784:2798   */\n      swap1\n      pop\n        /* \"#utility.yul\":2619:2804   */\n      swap3\n      swap2\n      pop\n      pop\n      jump\t// out\n\n    auxdata: 0xa2646970667358221220d10e00fe212a06aadb065884c7f7e04daa51e572ed37544a63f7078ea4fe2acd64736f6c634300081a0033\n}\n",
				"bytecode": {
					"linkReferences": {},
					"object": "6080604052348015600e575f80fd5b506102ba8061001c5f395ff3fe608060405234801561000f575f80fd5b5060043610610029575f3560e01c8063fe459d201461002d575b5f80fd5b610047600480360381019061004291906100f8565b61005d565b604051610054919061013d565b60405180910390f35b5f808290505f5b5f8411156100b5575f600a8561007a9190610183565b905080818261008991906101e0565b61009391906101e0565b8261009e9190610221565b9150600a856100ad9190610254565b945050610064565b81811492505050919050565b5f80fd5b5f819050919050565b6100d7816100c5565b81146100e1575f80fd5b50565b5f813590506100f2816100ce565b92915050565b5f6020828403121561010d5761010c6100c1565b5b5f61011a848285016100e4565b91505092915050565b5f8115159050919050565b61013781610123565b82525050565b5f6020820190506101505f83018461012e565b92915050565b7f4e487b71000000000000000000000000000000000000000000000000000000005f52601260045260245ffd5b5f61018d826100c5565b9150610198836100c5565b9250826101a8576101a7610156565b5b828206905092915050565b7f4e487b71000000000000000000000000000000000000000000000000000000005f52601160045260245ffd5b5f6101ea826100c5565b91506101f5836100c5565b9250828202610203816100c5565b9150828204841483151761021a576102196101b3565b5b5092915050565b5f61022b826100c5565b9150610236836100c5565b925082820190508082111561024e5761024d6101b3565b5b92915050565b5f61025e826100c5565b9150610269836100c5565b92508261027957610278610156565b5b82820490509291505056fea2646970667358221220d10e00fe212a06aadb065884c7f7e04daa51e572ed37544a63f7078ea4fe2acd64736f6c634300081a0033",
					"opcodes": "PUSH1 0x80 PUSH1 0x40 MSTORE CALLVALUE DUP1 ISZERO PUSH1 0xE JUMPI PUSH0 DUP1 REVERT JUMPDEST POP PUSH2 0x2BA DUP1 PUSH2 0x1C PUSH0 CODECOPY PUSH0 RETURN INVALID PUSH1 0x80 PUSH1 0x40 MSTORE CALLVALUE DUP1 ISZERO PUSH2 0xF JUMPI PUSH0 DUP1 REVERT JUMPDEST POP PUSH1 0x4 CALLDATASIZE LT PUSH2 0x29 JUMPI PUSH0 CALLDATALOAD PUSH1 0xE0 SHR DUP1 PUSH4 0xFE459D20 EQ PUSH2 0x2D JUMPI JUMPDEST PUSH0 DUP1 REVERT JUMPDEST PUSH2 0x47 PUSH1 0x4 DUP1 CALLDATASIZE SUB DUP2 ADD SWAP1 PUSH2 0x42 SWAP2 SWAP1 PUSH2 0xF8 JUMP JUMPDEST PUSH2 0x5D JUMP JUMPDEST PUSH1 0x40 MLOAD PUSH2 0x54 SWAP2 SWAP1 PUSH2 0x13D JUMP JUMPDEST PUSH1 0x40 MLOAD DUP1 SWAP2 SUB SWAP1 RETURN JUMPDEST PUSH0 DUP1 DUP3 SWAP1 POP PUSH0 JUMPDEST PUSH0 DUP5 GT ISZERO PUSH2 0xB5 JUMPI PUSH0 PUSH1 0xA DUP6 PUSH2 0x7A SWAP2 SWAP1 PUSH2 0x183 JUMP JUMPDEST SWAP1 POP DUP1 DUP2 DUP3 PUSH2 0x89 SWAP2 SWAP1 PUSH2 0x1E0 JUMP JUMPDEST PUSH2 0x93 SWAP2 SWAP1 PUSH2 0x1E0 JUMP JUMPDEST DUP3 PUSH2 0x9E SWAP2 SWAP1 PUSH2 0x221 JUMP JUMPDEST SWAP2 POP PUSH1 0xA DUP6 PUSH2 0xAD SWAP2 SWAP1 PUSH2 0x254 JUMP JUMPDEST SWAP5 POP POP PUSH2 0x64 JUMP JUMPDEST DUP2 DUP2 EQ SWAP3 POP POP POP SWAP2 SWAP1 POP JUMP JUMPDEST PUSH0 DUP1 REVERT JUMPDEST PUSH0 DUP2 SWAP1 POP SWAP2 SWAP1 POP JUMP JUMPDEST PUSH2 0xD7 DUP2 PUSH2 0xC5 JUMP JUMPDEST DUP2 EQ PUSH2 0xE1 JUMPI PUSH0 DUP1 REVERT JUMPDEST POP JUMP JUMPDEST PUSH0 DUP2 CALLDATALOAD SWAP1 POP PUSH2 0xF2 DUP2 PUSH2 0xCE JUMP JUMPDEST SWAP3 SWAP2 POP POP JUMP JUMPDEST PUSH0 PUSH1 0x20 DUP3 DUP5 SUB SLT ISZERO PUSH2 0x10D JUMPI PUSH2 0x10C PUSH2 0xC1 JUMP JUMPDEST JUMPDEST PUSH0 PUSH2 0x11A DUP5 DUP3 DUP6 ADD PUSH2 0xE4 JUMP JUMPDEST SWAP2 POP POP SWAP3 SWAP2 POP POP JUMP JUMPDEST PUSH0 DUP2 ISZERO ISZERO SWAP1 POP SWAP2 SWAP1 POP JUMP JUMPDEST PUSH2 0x137 DUP2 PUSH2 0x123 JUMP JUMPDEST DUP3 MSTORE POP POP JUMP JUMPDEST PUSH0 PUSH1 0x20 DUP3 ADD SWAP1 POP PUSH2 0x150 PUSH0 DUP4 ADD DUP5 PUSH2 0x12E JUMP JUMPDEST SWAP3 SWAP2 POP POP JUMP JUMPDEST PUSH32 0x4E487B7100000000000000000000000000000000000000000000000000000000 PUSH0 MSTORE PUSH1 0x12 PUSH1 0x4 MSTORE PUSH1 0x24 PUSH0 REVERT JUMPDEST PUSH0 PUSH2 0x18D DUP3 PUSH2 0xC5 JUMP JUMPDEST SWAP2 POP PUSH2 0x198 DUP4 PUSH2 0xC5 JUMP JUMPDEST SWAP3 POP DUP3 PUSH2 0x1A8 JUMPI PUSH2 0x1A7 PUSH2 0x156 JUMP JUMPDEST JUMPDEST DUP3 DUP3 MOD SWAP1 POP SWAP3 SWAP2 POP POP JUMP JUMPDEST PUSH32 0x4E487B7100000000000000000000000000000000000000000000000000000000 PUSH0 MSTORE PUSH1 0x11 PUSH1 0x4 MSTORE PUSH1 0x24 PUSH0 REVERT JUMPDEST PUSH0 PUSH2 0x1EA DUP3 PUSH2 0xC5 JUMP JUMPDEST SWAP2 POP PUSH2 0x1F5 DUP4 PUSH2 0xC5 JUMP JUMPDEST SWAP3 POP DUP3 DUP3 MUL PUSH2 0x203 DUP2 PUSH2 0xC5 JUMP JUMPDEST SWAP2 POP DUP3 DUP3 DIV DUP5 EQ DUP4 ISZERO OR PUSH2 0x21A JUMPI PUSH2 0x219 PUSH2 0x1B3 JUMP JUMPDEST JUMPDEST POP SWAP3 SWAP2 POP POP JUMP JUMPDEST PUSH0 PUSH2 0x22B DUP3 PUSH2 0xC5 JUMP JUMPDEST SWAP2 POP PUSH2 0x236 DUP4 PUSH2 0xC5 JUMP JUMPDEST SWAP3 POP DUP3 DUP3 ADD SWAP1 POP DUP1 DUP3 GT ISZERO PUSH2 0x24E JUMPI PUSH2 0x24D PUSH2 0x1B3 JUMP JUMPDEST JUMPDEST SWAP3 SWAP2 POP POP JUMP JUMPDEST PUSH0 PUSH2 0x25E DUP3 PUSH2 0xC5 JUMP JUMPDEST SWAP2 POP PUSH2 0x269 DUP4 PUSH2 0xC5 JUMP JUMPDEST SWAP3 POP DUP3 PUSH2 0x279 JUMPI PUSH2 0x278 PUSH2 0x156 JUMP JUMPDEST JUMPDEST DUP3 DUP3 DIV SWAP1 POP SWAP3 SWAP2 POP POP JUMP INVALID LOG2 PUSH5 0x6970667358 0x22 SLT KECCAK256 0xD1 0xE STOP INVALID 0x21 0x2A MOD 0xAA 0xDB MOD PC DUP5 0xC7 0xF7 0xE0 0x4D 0xAA MLOAD 0xE5 PUSH19 0xED37544A63F7078EA4FE2ACD64736F6C634300 ADDMOD BYTE STOP CALLER "
				},
				"gasEstimates": {
					"creation": {
						"codeDepositCost": "139600",
						"executionCost": "181",
						"totalCost": "139781"
					},
					"external": {
						"isArmstrong(uint256)": "infinite"
					}
				},
				"methodIdentifiers": {
					"isArmstrong(uint256)": "fe459d20"
				}
			},
			"storageLayout": {
				"storage": [],
				"types": null
			},
			"userdoc": {
				"kind": "user",
				"methods": {},
				"version": 1
			}
		}
	}
}