{
	"contracts/Fibonacci.sol": {
		"Fibonacci": {
			"abi": [
				{
					"inputs": [
						{
							"internalType": "uint256",
							"name": "n",
							"type": "uint256"
						}
					],
					"name": "fibonacci",
					"outputs": [
						{
							"internalType": "uint256[]",
							"name": "",
							"type": "uint256[]"
						}
					],
					"stateMutability": "pure",
					"type": "function"
				}
			],
			"devdoc": {
				"kind": "dev",
				"methods": {},
				"version": 1
			},
			"evm": {
				"assembly": "    /* \"contracts/Fibonacci.sol\":60:433  contract Fibonacci {... */\n  mstore(0x40, 0x80)\n  callvalue\n  dup1\n  iszero\n  tag_1\n  jumpi\n  0x00\n  dup1\n  revert\ntag_1:\n  pop\n  dataSize(sub_0)\n  dup1\n  dataOffset(sub_0)\n  0x00\n  codecopy\n  0x00\n  return\nstop\n\nsub_0: assembly {\n        /* \"contracts/Fibonacci.sol\":60:433  contract Fibonacci {... */\n      mstore(0x40, 0x80)\n      callvalue\n      dup1\n      iszero\n      tag_1\n      jumpi\n      0x00\n      dup1\n      revert\n    tag_1:\n      pop\n      jumpi(tag_2, lt(calldatasize, 0x04))\n      shr(0xe0, calldataload(0x00))\n      dup1\n      0x61047ff4\n      eq\n      tag_3\n      jumpi\n    tag_2:\n      0x00\n      dup1\n      revert\n        /* \"contracts/Fibonacci.sol\":86:430  function fibonacci(uint256 n) public pure returns (uint256[] memory) {... */\n    tag_3:\n      tag_4\n      0x04\n      dup1\n      calldatasize\n      sub\n      dup2\n      add\n      swap1\n      tag_5\n      swap2\n      swap1\n      tag_6\n      jump\t// in\n    tag_5:\n      tag_7\n      jump\t// in\n    tag_4:\n      mload(0x40)\n      tag_8\n      swap2\n      swap1\n      tag_9\n      jump\t// in\n    tag_8:\n      mload(0x40)\n      dup1\n      swap2\n      sub\n      swap1\n      return\n    tag_7:\n        /* \"contracts/Fibonacci.sol\":137:153  uint256[] memory */\n      0x60\n        /* \"contracts/Fibonacci.sol\":166:189  uint256[] memory series */\n      0x00\n        /* \"contracts/Fibonacci.sol\":206:207  n */\n      dup3\n        /* \"contracts/Fibonacci.sol\":192:208  new uint256[](n) */\n      0xffffffffffffffff\n      dup2\n      gt\n      iszero\n      tag_11\n      jumpi\n      tag_12\n      tag_13\n      jump\t// in\n    tag_12:\n    tag_11:\n      mload(0x40)\n      swap1\n      dup1\n      dup3\n      mstore\n      dup1\n      0x20\n      mul\n      0x20\n      add\n      dup3\n      add\n      0x40\n      mstore\n      dup1\n      iszero\n      tag_14\n      jumpi\n      dup2\n      0x20\n      add\n      0x20\n      dup3\n      mul\n      dup1\n      calldatasize\n      dup4\n      calldatacopy\n      dup1\n      dup3\n      add\n      swap2\n      pop\n      pop\n      swap1\n      pop\n    tag_14:\n      pop\n        /* \"contracts/Fibonacci.sol\":166:208  uint256[] memory series = new uint256[](n) */\n      swap1\n      pop\n        /* \"contracts/Fibonacci.sol\":227:228  0 */\n      0x00\n        /* \"contracts/Fibonacci.sol\":223:224  n */\n      dup4\n        /* \"contracts/Fibonacci.sol\":223:228  n > 0 */\n      gt\n        /* \"contracts/Fibonacci.sol\":219:243  if (n > 0) series[0] = 0 */\n      iszero\n      tag_15\n      jumpi\n        /* \"contracts/Fibonacci.sol\":242:243  0 */\n      0x00\n        /* \"contracts/Fibonacci.sol\":230:236  series */\n      dup2\n        /* \"contracts/Fibonacci.sol\":237:238  0 */\n      0x00\n        /* \"contracts/Fibonacci.sol\":230:239  series[0] */\n      dup2\n      mload\n      dup2\n      lt\n      tag_16\n      jumpi\n      tag_17\n      tag_18\n      jump\t// in\n    tag_17:\n    tag_16:\n      0x20\n      mul\n      0x20\n      add\n      add\n        /* \"contracts/Fibonacci.sol\":230:243  series[0] = 0 */\n      dup2\n      dup2\n      mstore\n      pop\n      pop\n        /* \"contracts/Fibonacci.sol\":219:243  if (n > 0) series[0] = 0 */\n    tag_15:\n        /* \"contracts/Fibonacci.sol\":262:263  1 */\n      0x01\n        /* \"contracts/Fibonacci.sol\":258:259  n */\n      dup4\n        /* \"contracts/Fibonacci.sol\":258:263  n > 1 */\n      gt\n        /* \"contracts/Fibonacci.sol\":254:278  if (n > 1) series[1] = 1 */\n      iszero\n      tag_19\n      jumpi\n        /* \"contracts/Fibonacci.sol\":277:278  1 */\n      0x01\n        /* \"contracts/Fibonacci.sol\":265:271  series */\n      dup2\n        /* \"contracts/Fibonacci.sol\":272:273  1 */\n      0x01\n        /* \"contracts/Fibonacci.sol\":265:274  series[1] */\n      dup2\n      mload\n      dup2\n      lt\n      tag_20\n      jumpi\n      tag_21\n      tag_18\n      jump\t// in\n    tag_21:\n    tag_20:\n      0x20\n      mul\n      0x20\n      add\n      add\n        /* \"contracts/Fibonacci.sol\":265:278  series[1] = 1 */\n      dup2\n      dup2\n      mstore\n      pop\n      pop\n        /* \"contracts/Fibonacci.sol\":254:278  if (n > 1) series[1] = 1 */\n    tag_19:\n        /* \"contracts/Fibonacci.sol\":304:313  uint256 i */\n      0x00\n        /* \"contracts/Fibonacci.sol\":316:317  2 */\n      0x02\n        /* \"contracts/Fibonacci.sol\":304:317  uint256 i = 2 */\n      swap1\n      pop\n        /* \"contracts/Fibonacci.sol\":299:399  for (uint256 i = 2; i < n; i++) {... */\n    tag_22:\n        /* \"contracts/Fibonacci.sol\":323:324  n */\n      dup4\n        /* \"contracts/Fibonacci.sol\":319:320  i */\n      dup2\n        /* \"contracts/Fibonacci.sol\":319:324  i < n */\n      lt\n        /* \"contracts/Fibonacci.sol\":299:399  for (uint256 i = 2; i < n; i++) {... */\n      iszero\n      tag_23\n      jumpi\n        /* \"contracts/Fibonacci.sol\":374:380  series */\n      dup2\n        /* \"contracts/Fibonacci.sol\":385:386  2 */\n      0x02\n        /* \"contracts/Fibonacci.sol\":381:382  i */\n      dup3\n        /* \"contracts/Fibonacci.sol\":381:386  i - 2 */\n      tag_25\n      swap2\n      swap1\n      tag_26\n      jump\t// in\n    tag_25:\n        /* \"contracts/Fibonacci.sol\":374:387  series[i - 2] */\n      dup2\n      mload\n      dup2\n      lt\n      tag_27\n      jumpi\n      tag_28\n      tag_18\n      jump\t// in\n    tag_28:\n    tag_27:\n      0x20\n      mul\n      0x20\n      add\n      add\n      mload\n        /* \"contracts/Fibonacci.sol\":358:364  series */\n      dup3\n        /* \"contracts/Fibonacci.sol\":369:370  1 */\n      0x01\n        /* \"contracts/Fibonacci.sol\":365:366  i */\n      dup4\n        /* \"contracts/Fibonacci.sol\":365:370  i - 1 */\n      tag_29\n      swap2\n      swap1\n      tag_26\n      jump\t// in\n    tag_29:\n        /* \"contracts/Fibonacci.sol\":358:371  series[i - 1] */\n      dup2\n      mload\n      dup2\n      lt\n      tag_30\n      jumpi\n      tag_31\n      tag_18\n      jump\t// in\n    tag_31:\n    tag_30:\n      0x20\n      mul\n      0x20\n      add\n      add\n      mload\n        /* \"contracts/Fibonacci.sol\":358:387  series[i - 1] + series[i - 2] */\n      tag_32\n      swap2\n      swap1\n      tag_33\n      jump\t// in\n    tag_32:\n        /* \"contracts/Fibonacci.sol\":346:352  series */\n      dup3\n        /* \"contracts/Fibonacci.sol\":353:354  i */\n      dup3\n        /* \"contracts/Fibonacci.sol\":346:355  series[i] */\n      dup2\n      mload\n      dup2\n      lt\n      tag_34\n      jumpi\n      tag_35\n      tag_18\n      jump\t// in\n    tag_35:\n    tag_34:\n      0x20\n      mul\n      0x20\n      add\n      add\n        /* \"contracts/Fibonacci.sol\":346:387  series[i] = series[i - 1] + series[i - 2] */\n      dup2\n      dup2\n      mstore\n      pop\n      pop\n        /* \"contracts/Fibonacci.sol\":326:329  i++ */\n      dup1\n      dup1\n      0x01\n      add\n      swap2\n      pop\n      pop\n        /* \"contracts/Fibonacci.sol\":299:399  for (uint256 i = 2; i < n; i++) {... */\n      jump(tag_22)\n    tag_23:\n      pop\n        /* \"contracts/Fibonacci.sol\":416:422  series */\n      dup1\n        /* \"contracts/Fibonacci.sol\":409:422  return series */\n      swap2\n      pop\n      pop\n        /* \"contracts/Fibonacci.sol\":86:430  function fibonacci(uint256 n) public pure returns (uint256[] memory) {... */\n      swap2\n      swap1\n      pop\n      jump\t// out\n        /* \"#utility.yul\":88:205   */\n    tag_37:\n        /* \"#utility.yul\":197:198   */\n      0x00\n        /* \"#utility.yul\":194:195   */\n      dup1\n        /* \"#utility.yul\":187:199   */\n      revert\n        /* \"#utility.yul\":334:411   */\n    tag_39:\n        /* \"#utility.yul\":371:378   */\n      0x00\n        /* \"#utility.yul\":400:405   */\n      dup2\n        /* \"#utility.yul\":389:405   */\n      swap1\n      pop\n        /* \"#utility.yul\":334:411   */\n      swap2\n      swap1\n      pop\n      jump\t// out\n        /* \"#utility.yul\":417:539   */\n    tag_40:\n        /* \"#utility.yul\":490:514   */\n      tag_56\n        /* \"#utility.yul\":508:513   */\n      dup2\n        /* \"#utility.yul\":490:514   */\n      tag_39\n      jump\t// in\n    tag_56:\n        /* \"#utility.yul\":483:488   */\n      dup2\n        /* \"#utility.yul\":480:515   */\n      eq\n        /* \"#utility.yul\":470:533   */\n      tag_57\n      jumpi\n        /* \"#utility.yul\":529:530   */\n      0x00\n        /* \"#utility.yul\":526:527   */\n      dup1\n        /* \"#utility.yul\":519:531   */\n      revert\n        /* \"#utility.yul\":470:533   */\n    tag_57:\n        /* \"#utility.yul\":417:539   */\n      pop\n      jump\t// out\n        /* \"#utility.yul\":545:684   */\n    tag_41:\n        /* \"#utility.yul\":591:596   */\n      0x00\n        /* \"#utility.yul\":629:635   */\n      dup2\n        /* \"#utility.yul\":616:636   */\n      calldataload\n        /* \"#utility.yul\":607:636   */\n      swap1\n      pop\n        /* \"#utility.yul\":645:678   */\n      tag_59\n        /* \"#utility.yul\":672:677   */\n      dup2\n        /* \"#utility.yul\":645:678   */\n      tag_40\n      jump\t// in\n    tag_59:\n        /* \"#utility.yul\":545:684   */\n      swap3\n      swap2\n      pop\n      pop\n      jump\t// out\n        /* \"#utility.yul\":690:1019   */\n    tag_6:\n        /* \"#utility.yul\":749:755   */\n      0x00\n        /* \"#utility.yul\":798:800   */\n      0x20\n        /* \"#utility.yul\":786:795   */\n      dup3\n        /* \"#utility.yul\":777:784   */\n      dup5\n        /* \"#utility.yul\":773:796   */\n      sub\n        /* \"#utility.yul\":769:801   */\n      slt\n        /* \"#utility.yul\":766:885   */\n      iszero\n      tag_61\n      jumpi\n        /* \"#utility.yul\":804:883   */\n      tag_62\n      tag_37\n      jump\t// in\n    tag_62:\n        /* \"#utility.yul\":766:885   */\n    tag_61:\n        /* \"#utility.yul\":924:925   */\n      0x00\n        /* \"#utility.yul\":949:1002   */\n      tag_63\n        /* \"#utility.yul\":994:1001   */\n      dup5\n        /* \"#utility.yul\":985:991   */\n      dup3\n        /* \"#utility.yul\":974:983   */\n      dup6\n        /* \"#utility.yul\":970:992   */\n      add\n        /* \"#utility.yul\":949:1002   */\n      tag_41\n      jump\t// in\n    tag_63:\n        /* \"#utility.yul\":939:1002   */\n      swap2\n      pop\n        /* \"#utility.yul\":895:1012   */\n      pop\n        /* \"#utility.yul\":690:1019   */\n      swap3\n      swap2\n      pop\n      pop\n      jump\t// out\n        /* \"#utility.yul\":1025:1139   */\n    tag_42:\n        /* \"#utility.yul\":1092:1098   */\n      0x00\n        /* \"#utility.yul\":1126:1131   */\n      dup2\n        /* \"#utility.yul\":1120:1132   */\n      mload\n        /* \"#utility.yul\":1110:1132   */\n      swap1\n      pop\n        /* \"#utility.yul\":1025:1139   */\n      swap2\n      swap1\n      pop\n      jump\t// out\n        /* \"#utility.yul\":1145:1329   */\n    tag_43:\n        /* \"#utility.yul\":1244:1255   */\n      0x00\n        /* \"#utility.yul\":1278:1284   */\n      dup3\n        /* \"#utility.yul\":1273:1276   */\n      dup3\n        /* \"#utility.yul\":1266:1285   */\n      mstore\n        /* \"#utility.yul\":1318:1322   */\n      0x20\n        /* \"#utility.yul\":1313:1316   */\n      dup3\n        /* \"#utility.yul\":1309:1323   */\n      add\n        /* \"#utility.yul\":1294:1323   */\n      swap1\n      pop\n        /* \"#utility.yul\":1145:1329   */\n      swap3\n      swap2\n      pop\n      pop\n      jump\t// out\n        /* \"#utility.yul\":1335:1467   */\n    tag_44:\n        /* \"#utility.yul\":1402:1406   */\n      0x00\n        /* \"#utility.yul\":1425:1428   */\n      dup2\n        /* \"#utility.yul\":1417:1428   */\n      swap1\n      pop\n        /* \"#utility.yul\":1455:1459   */\n      0x20\n        /* \"#utility.yul\":1450:1453   */\n      dup3\n        /* \"#utility.yul\":1446:1460   */\n      add\n        /* \"#utility.yul\":1438:1460   */\n      swap1\n      pop\n        /* \"#utility.yul\":1335:1467   */\n      swap2\n      swap1\n      pop\n      jump\t// out\n        /* \"#utility.yul\":1473:1581   */\n    tag_45:\n        /* \"#utility.yul\":1550:1574   */\n      tag_68\n        /* \"#utility.yul\":1568:1573   */\n      dup2\n        /* \"#utility.yul\":1550:1574   */\n      tag_39\n      jump\t// in\n    tag_68:\n        /* \"#utility.yul\":1545:1548   */\n      dup3\n        /* \"#utility.yul\":1538:1575   */\n      mstore\n        /* \"#utility.yul\":1473:1581   */\n      pop\n      pop\n      jump\t// out\n        /* \"#utility.yul\":1587:1766   */\n    tag_46:\n        /* \"#utility.yul\":1656:1666   */\n      0x00\n        /* \"#utility.yul\":1677:1723   */\n      tag_70\n        /* \"#utility.yul\":1719:1722   */\n      dup4\n        /* \"#utility.yul\":1711:1717   */\n      dup4\n        /* \"#utility.yul\":1677:1723   */\n      tag_45\n      jump\t// in\n    tag_70:\n        /* \"#utility.yul\":1755:1759   */\n      0x20\n        /* \"#utility.yul\":1750:1753   */\n      dup4\n        /* \"#utility.yul\":1746:1760   */\n      add\n        /* \"#utility.yul\":1732:1760   */\n      swap1\n      pop\n        /* \"#utility.yul\":1587:1766   */\n      swap3\n      swap2\n      pop\n      pop\n      jump\t// out\n        /* \"#utility.yul\":1772:1885   */\n    tag_47:\n        /* \"#utility.yul\":1842:1846   */\n      0x00\n        /* \"#utility.yul\":1874:1878   */\n      0x20\n        /* \"#utility.yul\":1869:1872   */\n      dup3\n        /* \"#utility.yul\":1865:1879   */\n      add\n        /* \"#utility.yul\":1857:1879   */\n      swap1\n      pop\n        /* \"#utility.yul\":1772:1885   */\n      swap2\n      swap1\n      pop\n      jump\t// out\n        /* \"#utility.yul\":1921:2653   */\n    tag_48:\n        /* \"#utility.yul\":2040:2043   */\n      0x00\n        /* \"#utility.yul\":2069:2123   */\n      tag_73\n        /* \"#utility.yul\":2117:2122   */\n      dup3\n        /* \"#utility.yul\":2069:2123   */\n      tag_42\n      jump\t// in\n    tag_73:\n        /* \"#utility.yul\":2139:2225   */\n      tag_74\n        /* \"#utility.yul\":2218:2224   */\n      dup2\n        /* \"#utility.yul\":2213:2216   */\n      dup6\n        /* \"#utility.yul\":2139:2225   */\n      tag_43\n      jump\t// in\n    tag_74:\n        /* \"#utility.yul\":2132:2225   */\n      swap4\n      pop\n        /* \"#utility.yul\":2249:2305   */\n      tag_75\n        /* \"#utility.yul\":2299:2304   */\n      dup4\n        /* \"#utility.yul\":2249:2305   */\n      tag_44\n      jump\t// in\n    tag_75:\n        /* \"#utility.yul\":2328:2335   */\n      dup1\n        /* \"#utility.yul\":2359:2360   */\n      0x00\n        /* \"#utility.yul\":2344:2628   */\n    tag_76:\n        /* \"#utility.yul\":2369:2375   */\n      dup4\n        /* \"#utility.yul\":2366:2367   */\n      dup2\n        /* \"#utility.yul\":2363:2376   */\n      lt\n        /* \"#utility.yul\":2344:2628   */\n      iszero\n      tag_78\n      jumpi\n        /* \"#utility.yul\":2445:2451   */\n      dup2\n        /* \"#utility.yul\":2439:2452   */\n      mload\n        /* \"#utility.yul\":2472:2535   */\n      tag_79\n        /* \"#utility.yul\":2531:2534   */\n      dup9\n        /* \"#utility.yul\":2516:2529   */\n      dup3\n        /* \"#utility.yul\":2472:2535   */\n      tag_46\n      jump\t// in\n    tag_79:\n        /* \"#utility.yul\":2465:2535   */\n      swap8\n      pop\n        /* \"#utility.yul\":2558:2618   */\n      tag_80\n        /* \"#utility.yul\":2611:2617   */\n      dup4\n        /* \"#utility.yul\":2558:2618   */\n      tag_47\n      jump\t// in\n    tag_80:\n        /* \"#utility.yul\":2548:2618   */\n      swap3\n      pop\n        /* \"#utility.yul\":2404:2628   */\n      pop\n        /* \"#utility.yul\":2391:2392   */\n      0x01\n        /* \"#utility.yul\":2388:2389   */\n      dup2\n        /* \"#utility.yul\":2384:2393   */\n      add\n        /* \"#utility.yul\":2379:2393   */\n      swap1\n      pop\n        /* \"#utility.yul\":2344:2628   */\n      jump(tag_76)\n    tag_78:\n        /* \"#utility.yul\":2348:2362   */\n      pop\n        /* \"#utility.yul\":2644:2647   */\n      dup6\n        /* \"#utility.yul\":2637:2647   */\n      swap4\n      pop\n        /* \"#utility.yul\":2045:2653   */\n      pop\n      pop\n      pop\n        /* \"#utility.yul\":1921:2653   */\n      swap3\n      swap2\n      pop\n      pop\n      jump\t// out\n        /* \"#utility.yul\":2659:3032   */\n    tag_9:\n        /* \"#utility.yul\":2802:2806   */\n      0x00\n        /* \"#utility.yul\":2840:2842   */\n      0x20\n        /* \"#utility.yul\":2829:2838   */\n      dup3\n        /* \"#utility.yul\":2825:2843   */\n      add\n        /* \"#utility.yul\":2817:2843   */\n      swap1\n      pop\n        /* \"#utility.yul\":2889:2898   */\n      dup2\n        /* \"#utility.yul\":2883:2887   */\n      dup2\n        /* \"#utility.yul\":2879:2899   */\n      sub\n        /* \"#utility.yul\":2875:2876   */\n      0x00\n        /* \"#utility.yul\":2864:2873   */\n      dup4\n        /* \"#utility.yul\":2860:2877   */\n      add\n        /* \"#utility.yul\":2853:2900   */\n      mstore\n        /* \"#utility.yul\":2917:3025   */\n      tag_82\n        /* \"#utility.yul\":3020:3024   */\n      dup2\n        /* \"#utility.yul\":3011:3017   */\n      dup5\n        /* \"#utility.yul\":2917:3025   */\n      tag_48\n      jump\t// in\n    tag_82:\n        /* \"#utility.yul\":2909:3025   */\n      swap1\n      pop\n        /* \"#utility.yul\":2659:3032   */\n      swap3\n      swap2\n      pop\n      pop\n      jump\t// out\n        /* \"#utility.yul\":3038:3218   */\n    tag_13:\n        /* \"#utility.yul\":3086:3163   */\n      0x4e487b7100000000000000000000000000000000000000000000000000000000\n        /* \"#utility.yul\":3083:3084   */\n      0x00\n        /* \"#utility.yul\":3076:3164   */\n      mstore\n        /* \"#utility.yul\":3183:3187   */\n      0x41\n        /* \"#utility.yul\":3180:3181   */\n      0x04\n        /* \"#utility.yul\":3173:3188   */\n      mstore\n        /* \"#utility.yul\":3207:3211   */\n      0x24\n        /* \"#utility.yul\":3204:3205   */\n      0x00\n        /* \"#utility.yul\":3197:3212   */\n      revert\n        /* \"#utility.yul\":3224:3404   */\n    tag_18:\n        /* \"#utility.yul\":3272:3349   */\n      0x4e487b7100000000000000000000000000000000000000000000000000000000\n        /* \"#utility.yul\":3269:3270   */\n      0x00\n        /* \"#utility.yul\":3262:3350   */\n      mstore\n        /* \"#utility.yul\":3369:3373   */\n      0x32\n        /* \"#utility.yul\":3366:3367   */\n      0x04\n        /* \"#utility.yul\":3359:3374   */\n      mstore\n        /* \"#utility.yul\":3393:3397   */\n      0x24\n        /* \"#utility.yul\":3390:3391   */\n      0x00\n        /* \"#utility.yul\":3383:3398   */\n      revert\n        /* \"#utility.yul\":3410:3590   */\n    tag_49:\n        /* \"#utility.yul\":3458:3535   */\n      0x4e487b7100000000000000000000000000000000000000000000000000000000\n        /* \"#utility.yul\":3455:3456   */\n      0x00\n        /* \"#utility.yul\":3448:3536   */\n      mstore\n        /* \"#utility.yul\":3555:3559   */\n      0x11\n        /* \"#utility.yul\":3552:3553   */\n      0x04\n        /* \"#utility.yul\":3545:3560   */\n      mstore\n        /* \"#utility.yul\":3579:3583   */\n      0x24\n        /* \"#utility.yul\":3576:3577   */\n      0x00\n        /* \"#utility.yul\":3569:3584   */\n      revert\n        /* \"#utility.yul\":3596:3790   */\n    tag_26:\n        /* \"#utility.yul\":3636:3640   */\n      0x00\n        /* \"#utility.yul\":3656:3676   */\n      tag_87\n        /* \"#utility.yul\":3674:3675   */\n      dup3\n        /* \"#utility.yul\":3656:3676   */\n      tag_39\n      jump\t// in\n    tag_87:\n        /* \"#utility.yul\":3651:3676   */\n      swap2\n      pop\n        /* \"#utility.yul\":3690:3710   */\n      tag_88\n        /* \"#utility.yul\":3708:3709   */\n      dup4\n        /* \"#utility.yul\":3690:3710   */\n      tag_39\n      jump\t// in\n    tag_88:\n        /* \"#utility.yul\":3685:3710   */\n      swap3\n      pop\n        /* \"#utility.yul\":3734:3735   */\n      dup3\n        /* \"#utility.yul\":3731:3732   */\n      dup3\n        /* \"#utility.yul\":3727:3736   */\n      sub\n        /* \"#utility.yul\":3719:3736   */\n      swap1\n      pop\n        /* \"#utility.yul\":3758:3759   */\n      dup2\n        /* \"#utility.yul\":3752:3756   */\n      dup2\n        /* \"#utility.yul\":3749:3760   */\n      gt\n        /* \"#utility.yul\":3746:3783   */\n      iszero\n      tag_89\n      jumpi\n        /* \"#utility.yul\":3763:3781   */\n      tag_90\n      tag_49\n      jump\t// in\n    tag_90:\n        /* \"#utility.yul\":3746:3783   */\n    tag_89:\n        /* \"#utility.yul\":3596:3790   */\n      swap3\n      swap2\n      pop\n      pop\n      jump\t// out\n        /* \"#utility.yul\":3796:3987   */\n    tag_33:\n        /* \"#utility.yul\":3836:3839   */\n      0x00\n        /* \"#utility.yul\":3855:3875   */\n      tag_92\n        /* \"#utility.yul\":3873:3874   */\n      dup3\n        /* \"#utility.yul\":3855:3875   */\n      tag_39\n      jump\t// in\n    tag_92:\n        /* \"#utility.yul\":3850:3875   */\n      swap2\n      pop\n        /* \"#utility.yul\":3889:3909   */\n      tag_93\n        /* \"#utility.yul\":3907:3908   */\n      dup4\n        /* \"#utility.yul\":3889:3909   */\n      tag_39\n      jump\t// in\n    tag_93:\n        /* \"#utility.yul\":3884:3909   */\n      swap3\n      pop\n        /* \"#utility.yul\":3932:3933   */\n      dup3\n        /* \"#utility.yul\":3929:3930   */\n      dup3\n        /* \"#utility.yul\":3925:3934   */\n      add\n        /* \"#utility.yul\":3918:3934   */\n      swap1\n      pop\n        /* \"#utility.yul\":3953:3956   */\n      dup1\n        /* \"#utility.yul\":3950:3951   */\n      dup3\n        /* \"#utility.yul\":3947:3957   */\n      gt\n        /* \"#utility.yul\":3944:3980   */\n      iszero\n      tag_94\n      jumpi\n        /* \"#utility.yul\":3960:3978   */\n      tag_95\n      tag_49\n      jump\t// in\n    tag_95:\n        /* \"#utility.yul\":3944:3980   */\n    tag_94:\n        /* \"#utility.yul\":3796:3987   */\n      swap3\n      swap2\n      pop\n      pop\n      jump\t// out\n\n    auxdata: 0xa2646970667358221220b5fa604dff102aaeba718ba9f309f080ecc488a561dcae6f970cd105df978bf564736f6c634300081a0033\n}\n",
				"bytecode": {
					"linkReferences": {},
					"object": "6080604052348015600e575f80fd5b506103f88061001c5f395ff3fe608060405234801561000f575f80fd5b5060043610610029575f3560e01c806361047ff41461002d575b5f80fd5b610047600480360381019061004291906101d3565b61005d565b60405161005491906102b5565b60405180910390f35b60605f8267ffffffffffffffff81111561007a576100796102d5565b5b6040519080825280602002602001820160405280156100a85781602001602082028036833780820191505090505b5090505f8311156100d4575f815f815181106100c7576100c6610302565b5b6020026020010181815250505b6001831115610100576001816001815181106100f3576100f2610302565b5b6020026020010181815250505b5f600290505b83811015610192578160028261011c919061035c565b8151811061012d5761012c610302565b5b602002602001015182600183610143919061035c565b8151811061015457610153610302565b5b6020026020010151610166919061038f565b82828151811061017957610178610302565b5b6020026020010181815250508080600101915050610106565b5080915050919050565b5f80fd5b5f819050919050565b6101b2816101a0565b81146101bc575f80fd5b50565b5f813590506101cd816101a9565b92915050565b5f602082840312156101e8576101e761019c565b5b5f6101f5848285016101bf565b91505092915050565b5f81519050919050565b5f82825260208201905092915050565b5f819050602082019050919050565b610230816101a0565b82525050565b5f6102418383610227565b60208301905092915050565b5f602082019050919050565b5f610263826101fe565b61026d8185610208565b935061027883610218565b805f5b838110156102a857815161028f8882610236565b975061029a8361024d565b92505060018101905061027b565b5085935050505092915050565b5f6020820190508181035f8301526102cd8184610259565b905092915050565b7f4e487b71000000000000000000000000000000000000000000000000000000005f52604160045260245ffd5b7f4e487b71000000000000000000000000000000000000000000000000000000005f52603260045260245ffd5b7f4e487b71000000000000000000000000000000000000000000000000000000005f52601160045260245ffd5b5f610366826101a0565b9150610371836101a0565b92508282039050818111156103895761038861032f565b5b92915050565b5f610399826101a0565b91506103a4836101a0565b92508282019050808211156103bc576103bb61032f565b5b9291505056fea2646970667358221220b5fa604dff102aaeba718ba9f309f080ecc488a561dcae6f970cd105df978bf564736f6c634300081a0033",
					"opcodes": "PUSH1 0x80 PUSH1 0x40 MSTORE CALLVALUE DUP1 ISZERO PUSH1 0xE JUMPI PUSH0 DUP1 REVERT JUMPDEST POP PUSH2 0x3F8 DUP1 PUSH2 0x1C PUSH0 CODECOPY PUSH0 RETURN INVALID PUSH1 0x80 PUSH1 0x40 MSTORE CALLVALUE DUP1 ISZERO PUSH2 0xF JUMPI PUSH0 DUP1 REVERT JUMPDEST POP PUSH1 0x4 CALLDATASIZE LT PUSH2 0x29 JUMPI PUSH0 CALLDATALOAD PUSH1 0xE0 SHR DUP1 PUSH4 0x61047FF4 EQ PUSH2 0x2D JUMPI JUMPDEST PUSH0 DUP1 REVERT JUMPDEST PUSH2 0x47 PUSH1 0x4 DUP1 CALLDATASIZE SUB DUP2 ADD SWAP1 PUSH2 0x42 SWAP2 SWAP1 PUSH2 0x1D3 JUMP JUMPDEST PUSH2 0x5D JUMP JUMPDEST PUSH1 0x40 MLOAD PUSH2 0x54 SWAP2 SWAP1 PUSH2 0x2B5 JUMP JUMPDEST PUSH1 0x40 MLOAD DUP1 SWAP2 SUB SWAP1 RETURN JUMPDEST PUSH1 0x60 PUSH0 DUP3 PUSH8 0xFFFFFFFFFFFFFFFF DUP2 GT ISZERO PUSH2 0x7A JUMPI PUSH2 0x79 PUSH2 0x2D5 JUMP JUMPDEST JUMPDEST PUSH1 0x40 MLOAD SWAP1 DUP1 DUP3 MSTORE DUP1 PUSH1 0x20 MUL PUSH1 0x20 ADD DUP3 ADD PUSH1 0x40 MSTORE DUP1 ISZERO PUSH2 0xA8 JUMPI DUP2 PUSH1 0x20 ADD PUSH1 0x20 DUP3 MUL DUP1 CALLDATASIZE DUP4 CALLDATACOPY DUP1 DUP3 ADD SWAP2 POP POP SWAP1 POP JUMPDEST POP SWAP1 POP PUSH0 DUP4 GT ISZERO PUSH2 0xD4 JUMPI PUSH0 DUP2 PUSH0 DUP2 MLOAD DUP2 LT PUSH2 0xC7 JUMPI PUSH2 0xC6 PUSH2 0x302 JUMP JUMPDEST JUMPDEST PUSH1 0x20 MUL PUSH1 0x20 ADD ADD DUP2 DUP2 MSTORE POP POP JUMPDEST PUSH1 0x1 DUP4 GT ISZERO PUSH2 0x100 JUMPI PUSH1 0x1 DUP2 PUSH1 0x1 DUP2 MLOAD DUP2 LT PUSH2 0xF3 JUMPI PUSH2 0xF2 PUSH2 0x302 JUMP JUMPDEST JUMPDEST PUSH1 0x20 MUL PUSH1 0x20 ADD ADD DUP2 DUP2 MSTORE POP POP JUMPDEST PUSH0 PUSH1 0x2 SWAP1 POP JUMPDEST DUP4 DUP2 LT ISZERO PUSH2 0x192 JUMPI DUP2 PUSH1 0x2 DUP3 PUSH2 0x11C SWAP2 SWAP1 PUSH2 0x35C JUMP JUMPDEST DUP2 MLOAD DUP2 LT PUSH2 0x12D JUMPI PUSH2 0x12C PUSH2 0x302 JUMP JUMPDEST JUMPDEST PUSH1 0x20 MUL PUSH1 0x20 ADD ADD MLOAD DUP3 PUSH1 0x1 DUP4 PUSH2 0x143 SWAP2 SWAP1 PUSH2 0x35C JUMP JUMPDEST DUP2 MLOAD DUP2 LT PUSH2 0x154 JUMPI PUSH2 0x153 PUSH2 0x302 JUMP JUMPDEST JUMPDEST PUSH1 0x20 MUL PUSH1 0x20 ADD ADD MLOAD PUSH2 0x166 SWAP2 SWAP1 PUSH2 0x38F JUMP JUMPDEST DUP3 DUP3 DUP2 MLOAD DUP2 LT PUSH2 0x179 JUMPI PUSH2 0x178 PUSH2 0x302 JUMP JUMPDEST JUMPDEST PUSH1 0x20 MUL PUSH1 0x20 ADD ADD DUP2 DUP2 MSTORE POP POP DUP1 DUP1 PUSH1 0x1 ADD SWAP2 POP POP PUSH2 0x106 JUMP JUMPDEST POP DUP1 SWAP2 POP POP SWAP2 SWAP1 POP JUMP JUMPDEST PUSH0 DUP1 REVERT JUMPDEST PUSH0 DUP2 SWAP1 POP SWAP2 SWAP1 POP JUMP JUMPDEST PUSH2 0x1B2 DUP2 PUSH2 0x1A0 JUMP JUMPDEST DUP2 EQ PUSH2 0x1BC JUMPI PUSH0 DUP1 REVERT JUMPDEST POP JUMP JUMPDEST PUSH0 DUP2 CALLDATALOAD SWAP1 POP PUSH2 0x1CD DUP2 PUSH2 0x1A9 JUMP JUMPDEST SWAP3 SWAP2 POP POP JUMP JUMPDEST PUSH0 PUSH1 0x20 DUP3 DUP5 SUB SLT ISZERO PUSH2 0x1E8 JUMPI PUSH2 0x1E7 PUSH2 0x19C JUMP JUMPDEST JUMPDEST PUSH0 PUSH2 0x1F5 DUP5 DUP3 DUP6 ADD PUSH2 0x1BF JUMP JUMPDEST SWAP2 POP POP SWAP3 SWAP2 POP POP JUMP JUMPDEST PUSH0 DUP2 MLOAD SWAP1 POP SWAP2 SWAP1 POP JUMP JUMPDEST PUSH0 DUP3 DUP3 MSTORE PUSH1 0x20 DUP3 ADD SWAP1 POP SWAP3 SWAP2 POP POP JUMP JUMPDEST PUSH0 DUP2 SWAP1 POP PUSH1 0x20 DUP3 ADD SWAP1 POP SWAP2 SWAP1 POP JUMP JUMPDEST PUSH2 0x230 DUP2 PUSH2 0x1A0 JUMP JUMPDEST DUP3 MSTORE POP POP JUMP JUMPDEST PUSH0 PUSH2 0x241 DUP4 DUP4 PUSH2 0x227 JUMP JUMPDEST PUSH1 0x20 DUP4 ADD SWAP1 POP SWAP3 SWAP2 POP POP JUMP JUMPDEST PUSH0 PUSH1 0x20 DUP3 ADD SWAP1 POP SWAP2 SWAP1 POP JUMP JUMPDEST PUSH0 PUSH2 0x263 DUP3 PUSH2 0x1FE JUMP JUMPDEST PUSH2 0x26D DUP2 DUP6 PUSH2 0x208 JUMP JUMPDEST SWAP4 POP PUSH2 0x278 DUP4 PUSH2 0x218 JUMP JUMPDEST DUP1 PUSH0 JUMPDEST DUP4 DUP2 LT ISZERO PUSH2 0x2A8 JUMPI DUP2 MLOAD PUSH2 0x28F DUP9 DUP3 PUSH2 0x236 JUMP JUMPDEST SWAP8 POP PUSH2 0x29A DUP4 PUSH2 0x24D JUMP JUMPDEST SWAP3 POP POP PUSH1 0x1 DUP2 ADD SWAP1 POP PUSH2 0x27B JUMP JUMPDEST POP DUP6 SWAP4 POP POP POP POP SWAP3 SWAP2 POP POP JUMP JUMPDEST PUSH0 PUSH1 0x20 DUP3 ADD SWAP1 POP DUP2 DUP2 SUB PUSH0 DUP4 ADD MSTORE PUSH2 0x2CD DUP2 DUP5 PUSH2 0x259 JUMP JUMPDEST SWAP1 POP SWAP3 SWAP2 POP POP JUMP JUMPDEST PUSH32 0x4E487B7100000000000000000000000000000000000000000000000000000000 PUSH0 MSTORE PUSH1 0x41 PUSH1 0x4 MSTORE PUSH1 0x24 PUSH0 REVERT JUMPDEST PUSH32 0x4E487B7100000000000000000000000000000000000000000000000000000000 PUSH0 MSTORE PUSH1 0x32 PUSH1 0x4 MSTORE PUSH1 0x24 PUSH0 REVERT JUMPDEST PUSH32 0x4E487B7100000000000000000000000000000000000000000000000000000000 PUSH0 MSTORE PUSH1 0x11 PUSH1 0x4 MSTORE PUSH1 0x24 PUSH0 REVERT JUMPDEST PUSH0 PUSH2 0x366 DUP3 PUSH2 0x1A0 JUMP JUMPDEST SWAP2 POP PUSH2 0x371 DUP4 PUSH2 0x1A0 JUMP JUMPDEST SWAP3 POP DUP3 DUP3 SUB SWAP1 POP DUP2 DUP2 GT ISZERO PUSH2 0x389 JUMPI PUSH2 0x388 PUSH2 0x32F JUMP JUMPDEST JUMPDEST SWAP3 SWAP2 POP POP JUMP JUMPDEST PUSH0 PUSH2 0x399 DUP3 PUSH2 0x1A0 JUMP JUMPDEST SWAP2 POP PUSH2 0x3A4 DUP4 PUSH2 0x1A0 JUMP JUMPDEST SWAP3 POP DUP3 DUP3 ADD SWAP1 POP DUP1 DUP3 GT ISZERO PUSH2 0x3BC JUMPI PUSH2 0x3BB PUSH2 0x32F JUMP JUMPDEST JUMPDEST SWAP3 SWAP2 POP POP JUMP INVALID LOG2 PUSH5 0x6970667358 0x22 SLT KECCAK256 0xB5 STATICCALL PUSH1 0x4D SELFDESTRUCT LT 0x2A 0xAE 0xBA PUSH18 0x8BA9F309F080ECC488A561DCAE6F970CD105 0xDF SWAP8 DUP12 CREATE2 PUSH5 0x736F6C6343 STOP ADDMOD BYTE STOP CALLER "
				},
				"gasEstimates": {
					"creation": {
						"codeDepositCost": "203200",
						"executionCost": "243",
						"totalCost": "203443"
					},
					"external": {
						"fibonacci(uint256)": "infinite"
					}
				},
				"methodIdentifiers": {
					"fibonacci(uint256)": "61047ff4"
				}
			},
			"storageLayout": {
				"storage": [],
				"types": null
			},
			"userdoc": {
				"kind": "user",
				"methods": {},
				"version": 1
			}
		}
	}
}