{
	"data": {
		"bytecode": {
			"linkReferences": {},
			"object": "6080604052348015600e575f80fd5b50610b0e8061001c5f395ff3fe608060405234801561000f575f80fd5b506004361061004a575f3560e01c80631ed52ed81461004e578063201b920e1461006c578063246982c41461009d5780636f760f41146100ce575b5f80fd5b6100566100ea565b604051610063919061043f565b60405180910390f35b610086600480360381019061008191906104ed565b610130565b60405161009492919061059b565b60405180910390f35b6100b760048036038101906100b291906105c9565b6101ef565b6040516100c592919061059b565b60405180910390f35b6100e860048036038101906100e39190610720565b610387565b005b5f805f3373ffffffffffffffffffffffffffffffffffffffff1673ffffffffffffffffffffffffffffffffffffffff1681526020019081526020015f2080549050905090565b5f602052815f5260405f208181548110610148575f80fd5b905f5260205f2090600202015f9150915050805f018054610168906107a7565b80601f0160208091040260200160405190810160405280929190818152602001828054610194906107a7565b80156101df5780601f106101b6576101008083540402835291602001916101df565b820191905f5260205f20905b8154815290600101906020018083116101c257829003601f168201915b5050505050908060010154905082565b60605f805f3373ffffffffffffffffffffffffffffffffffffffff1673ffffffffffffffffffffffffffffffffffffffff1681526020019081526020015f20805490508310610273576040517f08c379a000000000000000000000000000000000000000000000000000000000815260040161026a90610821565b60405180910390fd5b5f805f3373ffffffffffffffffffffffffffffffffffffffff1673ffffffffffffffffffffffffffffffffffffffff1681526020019081526020015f2084815481106102c2576102c161083f565b5b905f5260205f2090600202016040518060400160405290815f820180546102e8906107a7565b80601f0160208091040260200160405190810160405280929190818152602001828054610314906107a7565b801561035f5780601f106103365761010080835404028352916020019161035f565b820191905f5260205f20905b81548152906001019060200180831161034257829003601f168201915b505050505081526020016001820154815250509050805f015181602001519250925050915091565b5f60405180604001604052808481526020018381525090505f803373ffffffffffffffffffffffffffffffffffffffff1673ffffffffffffffffffffffffffffffffffffffff1681526020019081526020015f2081908060018154018082558091505060019003905f5260205f2090600202015f909190919091505f820151815f0190816104159190610a09565b50602082015181600101555050505050565b5f819050919050565b61043981610427565b82525050565b5f6020820190506104525f830184610430565b92915050565b5f604051905090565b5f80fd5b5f80fd5b5f73ffffffffffffffffffffffffffffffffffffffff82169050919050565b5f61049282610469565b9050919050565b6104a281610488565b81146104ac575f80fd5b50565b5f813590506104bd81610499565b92915050565b6104cc81610427565b81146104d6575f80fd5b50565b5f813590506104e7816104c3565b92915050565b5f806040838503121561050357610502610461565b5b5f610510858286016104af565b9250506020610521858286016104d9565b9150509250929050565b5f81519050919050565b5f82825260208201905092915050565b8281835e5f83830152505050565b5f601f19601f8301169050919050565b5f61056d8261052b565b6105778185610535565b9350610587818560208601610545565b61059081610553565b840191505092915050565b5f6040820190508181035f8301526105b38185610563565b90506105c26020830184610430565b9392505050565b5f602082840312156105de576105dd610461565b5b5f6105eb848285016104d9565b91505092915050565b5f80fd5b5f80fd5b7f4e487b71000000000000000000000000000000000000000000000000000000005f52604160045260245ffd5b61063282610553565b810181811067ffffffffffffffff82111715610651576106506105fc565b5b80604052505050565b5f610663610458565b905061066f8282610629565b919050565b5f67ffffffffffffffff82111561068e5761068d6105fc565b5b61069782610553565b9050602081019050919050565b828183375f83830152505050565b5f6106c46106bf84610674565b61065a565b9050828152602081018484840111156106e0576106df6105f8565b5b6106eb8482856106a4565b509392505050565b5f82601f830112610707576107066105f4565b5b81356107178482602086016106b2565b91505092915050565b5f806040838503121561073657610735610461565b5b5f83013567ffffffffffffffff81111561075357610752610465565b5b61075f858286016106f3565b9250506020610770858286016104d9565b9150509250929050565b7f4e487b71000000000000000000000000000000000000000000000000000000005f52602260045260245ffd5b5f60028204905060018216806107be57607f821691505b6020821081036107d1576107d061077a565b5b50919050565b7f506572736f6e20696e646578206f7574206f6620626f756e64730000000000005f82015250565b5f61080b601a83610535565b9150610816826107d7565b602082019050919050565b5f6020820190508181035f830152610838816107ff565b9050919050565b7f4e487b71000000000000000000000000000000000000000000000000000000005f52603260045260245ffd5b5f819050815f5260205f209050919050565b5f6020601f8301049050919050565b5f82821b905092915050565b5f600883026108c87fffffffffffffffffffffffffffffffffffffffffffffffffffffffffffffffff8261088d565b6108d2868361088d565b95508019841693508086168417925050509392505050565b5f819050919050565b5f61090d61090861090384610427565b6108ea565b610427565b9050919050565b5f819050919050565b610926836108f3565b61093a61093282610914565b848454610899565b825550505050565b5f90565b61094e610942565b61095981848461091d565b505050565b5b8181101561097c576109715f82610946565b60018101905061095f565b5050565b601f8211156109c1576109928161086c565b61099b8461087e565b810160208510156109aa578190505b6109be6109b68561087e565b83018261095e565b50505b505050565b5f82821c905092915050565b5f6109e15f19846008026109c6565b1980831691505092915050565b5f6109f983836109d2565b9150826002028217905092915050565b610a128261052b565b67ffffffffffffffff811115610a2b57610a2a6105fc565b5b610a3582546107a7565b610a40828285610980565b5f60209050601f831160018114610a71575f8415610a5f578287015190505b610a6985826109ee565b865550610ad0565b601f198416610a7f8661086c565b5f5b82811015610aa657848901518255600182019150602085019450602081019050610a81565b86831015610ac35784890151610abf601f8916826109d2565b8355505b6001600288020188555050505b50505050505056fea264697066735822122008a22079906f09fae8be12f436aabb1ba6b6ceb1a9d13a15ad8cd6c7faa34c2f64736f6c634300081a0033",
			"opcodes": "PUSH1 0x80 PUSH1 0x40 MSTORE CALLVALUE DUP1 ISZERO PUSH1 0xE JUMPI PUSH0 DUP1 REVERT JUMPDEST POP PUSH2 0xB0E DUP1 PUSH2 0x1C PUSH0 CODECOPY PUSH0 RETURN INVALID PUSH1 0x80 PUSH1 0x40 MSTORE CALLVALUE DUP1 ISZERO PUSH2 0xF JUMPI PUSH0 DUP1 REVERT JUMPDEST POP PUSH1 0x4 CALLDATASIZE LT PUSH2 0x4A JUMPI PUSH0 CALLDATALOAD PUSH1 0xE0 SHR DUP1 PUSH4 0x1ED52ED8 EQ PUSH2 0x4E JUMPI DUP1 PUSH4 0x201B920E EQ PUSH2 0x6C JUMPI DUP1 PUSH4 0x246982C4 EQ PUSH2 0x9D JUMPI DUP1 PUSH4 0x6F760F41 EQ PUSH2 0xCE JUMPI JUMPDEST PUSH0 DUP1 REVERT JUMPDEST PUSH2 0x56 PUSH2 0xEA JUMP JUMPDEST PUSH1 0x40 MLOAD PUSH2 0x63 SWAP2 SWAP1 PUSH2 0x43F JUMP JUMPDEST PUSH1 0x40 MLOAD DUP1 SWAP2 SUB SWAP1 RETURN JUMPDEST PUSH2 0x86 PUSH1 0x4 DUP1 CALLDATASIZE SUB DUP2 ADD SWAP1 PUSH2 0x81 SWAP2 SWAP1 PUSH2 0x4ED JUMP JUMPDEST PUSH2 0x130 JUMP JUMPDEST PUSH1 0x40 MLOAD PUSH2 0x94 SWAP3 SWAP2 SWAP1 PUSH2 0x59B JUMP JUMPDEST PUSH1 0x40 MLOAD DUP1 SWAP2 SUB SWAP1 RETURN JUMPDEST PUSH2 0xB7 PUSH1 0x4 DUP1 CALLDATASIZE SUB DUP2 ADD SWAP1 PUSH2 0xB2 SWAP2 SWAP1 PUSH2 0x5C9 JUMP JUMPDEST PUSH2 0x1EF JUMP JUMPDEST PUSH1 0x40 MLOAD PUSH2 0xC5 SWAP3 SWAP2 SWAP1 PUSH2 0x59B JUMP JUMPDEST PUSH1 0x40 MLOAD DUP1 SWAP2 SUB SWAP1 RETURN JUMPDEST PUSH2 0xE8 PUSH1 0x4 DUP1 CALLDATASIZE SUB DUP2 ADD SWAP1 PUSH2 0xE3 SWAP2 SWAP1 PUSH2 0x720 JUMP JUMPDEST PUSH2 0x387 JUMP JUMPDEST STOP JUMPDEST PUSH0 DUP1 PUSH0 CALLER PUSH20 0xFFFFFFFFFFFFFFFFFFFFFFFFFFFFFFFFFFFFFFFF AND PUSH20 0xFFFFFFFFFFFFFFFFFFFFFFFFFFFFFFFFFFFFFFFF AND DUP2 MSTORE PUSH1 0x20 ADD SWAP1 DUP2 MSTORE PUSH1 0x20 ADD PUSH0 KECCAK256 DUP1 SLOAD SWAP1 POP SWAP1 POP SWAP1 JUMP JUMPDEST PUSH0 PUSH1 0x20 MSTORE DUP2 PUSH0 MSTORE PUSH1 0x40 PUSH0 KECCAK256 DUP2 DUP2 SLOAD DUP2 LT PUSH2 0x148 JUMPI PUSH0 DUP1 REVERT JUMPDEST SWAP1 PUSH0 MSTORE PUSH1 0x20 PUSH0 KECCAK256 SWAP1 PUSH1 0x2 MUL ADD PUSH0 SWAP2 POP SWAP2 POP POP DUP1 PUSH0 ADD DUP1 SLOAD PUSH2 0x168 SWAP1 PUSH2 0x7A7 JUMP JUMPDEST DUP1 PUSH1 0x1F ADD PUSH1 0x20 DUP1 SWAP2 DIV MUL PUSH1 0x20 ADD PUSH1 0x40 MLOAD SWAP1 DUP2 ADD PUSH1 0x40 MSTORE DUP1 SWAP3 SWAP2 SWAP1 DUP2 DUP2 MSTORE PUSH1 0x20 ADD DUP3 DUP1 SLOAD PUSH2 0x194 SWAP1 PUSH2 0x7A7 JUMP JUMPDEST DUP1 ISZERO PUSH2 0x1DF JUMPI DUP1 PUSH1 0x1F LT PUSH2 0x1B6 JUMPI PUSH2 0x100 DUP1 DUP4 SLOAD DIV MUL DUP4 MSTORE SWAP2 PUSH1 0x20 ADD SWAP2 PUSH2 0x1DF JUMP JUMPDEST DUP3 ADD SWAP2 SWAP1 PUSH0 MSTORE PUSH1 0x20 PUSH0 KECCAK256 SWAP1 JUMPDEST DUP2 SLOAD DUP2 MSTORE SWAP1 PUSH1 0x1 ADD SWAP1 PUSH1 0x20 ADD DUP1 DUP4 GT PUSH2 0x1C2 JUMPI DUP3 SWAP1 SUB PUSH1 0x1F AND DUP3 ADD SWAP2 JUMPDEST POP POP POP POP POP SWAP1 DUP1 PUSH1 0x1 ADD SLOAD SWAP1 POP DUP3 JUMP JUMPDEST PUSH1 0x60 PUSH0 DUP1 PUSH0 CALLER PUSH20 0xFFFFFFFFFFFFFFFFFFFFFFFFFFFFFFFFFFFFFFFF AND PUSH20 0xFFFFFFFFFFFFFFFFFFFFFFFFFFFFFFFFFFFFFFFF AND DUP2 MSTORE PUSH1 0x20 ADD SWAP1 DUP2 MSTORE PUSH1 0x20 ADD PUSH0 KECCAK256 DUP1 SLOAD SWAP1 POP DUP4 LT PUSH2 0x273 JUMPI PUSH1 0x40 MLOAD PUSH32 0x8C379A000000000000000000000000000000000000000000000000000000000 DUP2 MSTORE PUSH1 0x4 ADD PUSH2 0x26A SWAP1 PUSH2 0x821 JUMP JUMPDEST PUSH1 0x40 MLOAD DUP1 SWAP2 SUB SWAP1 REVERT JUMPDEST PUSH0 DUP1 PUSH0 CALLER PUSH20 0xFFFFFFFFFFFFFFFFFFFFFFFFFFFFFFFFFFFFFFFF AND PUSH20 0xFFFFFFFFFFFFFFFFFFFFFFFFFFFFFFFFFFFFFFFF AND DUP2 MSTORE PUSH1 0x20 ADD SWAP1 DUP2 MSTORE PUSH1 0x20 ADD PUSH0 KECCAK256 DUP5 DUP2 SLOAD DUP2 LT PUSH2 0x2C2 JUMPI PUSH2 0x2C1 PUSH2 0x83F JUMP JUMPDEST JUMPDEST SWAP1 PUSH0 MSTORE PUSH1 0x20 PUSH0 KECCAK256 SWAP1 PUSH1 0x2 MUL ADD PUSH1 0x40 MLOAD DUP1 PUSH1 0x40 ADD PUSH1 0x40 MSTORE SWAP1 DUP2 PUSH0 DUP3 ADD DUP1 SLOAD PUSH2 0x2E8 SWAP1 PUSH2 0x7A7 JUMP JUMPDEST DUP1 PUSH1 0x1F ADD PUSH1 0x20 DUP1 SWAP2 DIV MUL PUSH1 0x20 ADD PUSH1 0x40 MLOAD SWAP1 DUP2 ADD PUSH1 0x40 MSTORE DUP1 SWAP3 SWAP2 SWAP1 DUP2 DUP2 MSTORE PUSH1 0x20 ADD DUP3 DUP1 SLOAD PUSH2 0x314 SWAP1 PUSH2 0x7A7 JUMP JUMPDEST DUP1 ISZERO PUSH2 0x35F JUMPI DUP1 PUSH1 0x1F LT PUSH2 0x336 JUMPI PUSH2 0x100 DUP1 DUP4 SLOAD DIV MUL DUP4 MSTORE SWAP2 PUSH1 0x20 ADD SWAP2 PUSH2 0x35F JUMP JUMPDEST DUP3 ADD SWAP2 SWAP1 PUSH0 MSTORE PUSH1 0x20 PUSH0 KECCAK256 SWAP1 JUMPDEST DUP2 SLOAD DUP2 MSTORE SWAP1 PUSH1 0x1 ADD SWAP1 PUSH1 0x20 ADD DUP1 DUP4 GT PUSH2 0x342 JUMPI DUP3 SWAP1 SUB PUSH1 0x1F AND DUP3 ADD SWAP2 JUMPDEST POP POP POP POP POP DUP2 MSTORE PUSH1 0x20 ADD PUSH1 0x1 DUP3 ADD SLOAD DUP2 MSTORE POP POP SWAP1 POP DUP1 PUSH0 ADD MLOAD DUP2 PUSH1 0x20 ADD MLOAD SWAP3 POP SWAP3 POP POP SWAP2 POP SWAP2 JUMP JUMPDEST PUSH0 PUSH1 0x40 MLOAD DUP1 PUSH1 0x40 ADD PUSH1 0x40 MSTORE DUP1 DUP5 DUP2 MSTORE PUSH1 0x20 ADD DUP4 DUP2 MSTORE POP SWAP1 POP PUSH0 DUP1 CALLER PUSH20 0xFFFFFFFFFFFFFFFFFFFFFFFFFFFFFFFFFFFFFFFF AND PUSH20 0xFFFFFFFFFFFFFFFFFFFFFFFFFFFFFFFFFFFFFFFF AND DUP2 MSTORE PUSH1 0x20 ADD SWAP1 DUP2 MSTORE PUSH1 0x20 ADD PUSH0 KECCAK256 DUP2 SWAP1 DUP1 PUSH1 0x1 DUP2 SLOAD ADD DUP1 DUP3 SSTORE DUP1 SWAP2 POP POP PUSH1 0x1 SWAP1 SUB SWAP1 PUSH0 MSTORE PUSH1 0x20 PUSH0 KECCAK256 SWAP1 PUSH1 0x2 MUL ADD PUSH0 SWAP1 SWAP2 SWAP1 SWAP2 SWAP1 SWAP2 POP PUSH0 DUP3 ADD MLOAD DUP2 PUSH0 ADD SWAP1 DUP2 PUSH2 0x415 SWAP2 SWAP1 PUSH2 0xA09 JUMP JUMPDEST POP PUSH1 0x20 DUP3 ADD MLOAD DUP2 PUSH1 0x1 ADD SSTORE POP POP POP POP POP JUMP JUMPDEST PUSH0 DUP2 SWAP1 POP SWAP2 SWAP1 POP JUMP JUMPDEST PUSH2 0x439 DUP2 PUSH2 0x427 JUMP JUMPDEST DUP3 MSTORE POP POP JUMP JUMPDEST PUSH0 PUSH1 0x20 DUP3 ADD SWAP1 POP PUSH2 0x452 PUSH0 DUP4 ADD DUP5 PUSH2 0x430 JUMP JUMPDEST SWAP3 SWAP2 POP POP JUMP JUMPDEST PUSH0 PUSH1 0x40 MLOAD SWAP1 POP SWAP1 JUMP JUMPDEST PUSH0 DUP1 REVERT JUMPDEST PUSH0 DUP1 REVERT JUMPDEST PUSH0 PUSH20 0xFFFFFFFFFFFFFFFFFFFFFFFFFFFFFFFFFFFFFFFF DUP3 AND SWAP1 POP SWAP2 SWAP1 POP JUMP JUMPDEST PUSH0 PUSH2 0x492 DUP3 PUSH2 0x469 JUMP JUMPDEST SWAP1 POP SWAP2 SWAP1 POP JUMP JUMPDEST PUSH2 0x4A2 DUP2 PUSH2 0x488 JUMP JUMPDEST DUP2 EQ PUSH2 0x4AC JUMPI PUSH0 DUP1 REVERT JUMPDEST POP JUMP JUMPDEST PUSH0 DUP2 CALLDATALOAD SWAP1 POP PUSH2 0x4BD DUP2 PUSH2 0x499 JUMP JUMPDEST SWAP3 SWAP2 POP POP JUMP JUMPDEST PUSH2 0x4CC DUP2 PUSH2 0x427 JUMP JUMPDEST DUP2 EQ PUSH2 0x4D6 JUMPI PUSH0 DUP1 REVERT JUMPDEST POP JUMP JUMPDEST PUSH0 DUP2 CALLDATALOAD SWAP1 POP PUSH2 0x4E7 DUP2 PUSH2 0x4C3 JUMP JUMPDEST SWAP3 SWAP2 POP POP JUMP JUMPDEST PUSH0 DUP1 PUSH1 0x40 DUP4 DUP6 SUB SLT ISZERO PUSH2 0x503 JUMPI PUSH2 0x502 PUSH2 0x461 JUMP JUMPDEST JUMPDEST PUSH0 PUSH2 0x510 DUP6 DUP3 DUP7 ADD PUSH2 0x4AF JUMP JUMPDEST SWAP3 POP POP PUSH1 0x20 PUSH2 0x521 DUP6 DUP3 DUP7 ADD PUSH2 0x4D9 JUMP JUMPDEST SWAP2 POP POP SWAP3 POP SWAP3 SWAP1 POP JUMP JUMPDEST PUSH0 DUP2 MLOAD SWAP1 POP SWAP2 SWAP1 POP JUMP JUMPDEST PUSH0 DUP3 DUP3 MSTORE PUSH1 0x20 DUP3 ADD SWAP1 POP SWAP3 SWAP2 POP POP JUMP JUMPDEST DUP3 DUP2 DUP4 MCOPY PUSH0 DUP4 DUP4 ADD MSTORE POP POP POP JUMP JUMPDEST PUSH0 PUSH1 0x1F NOT PUSH1 0x1F DUP4 ADD AND SWAP1 POP SWAP2 SWAP1 POP JUMP JUMPDEST PUSH0 PUSH2 0x56D DUP3 PUSH2 0x52B JUMP JUMPDEST PUSH2 0x577 DUP2 DUP6 PUSH2 0x535 JUMP JUMPDEST SWAP4 POP PUSH2 0x587 DUP2 DUP6 PUSH1 0x20 DUP7 ADD PUSH2 0x545 JUMP JUMPDEST PUSH2 0x590 DUP2 PUSH2 0x553 JUMP JUMPDEST DUP5 ADD SWAP2 POP POP SWAP3 SWAP2 POP POP JUMP JUMPDEST PUSH0 PUSH1 0x40 DUP3 ADD SWAP1 POP DUP2 DUP2 SUB PUSH0 DUP4 ADD MSTORE PUSH2 0x5B3 DUP2 DUP6 PUSH2 0x563 JUMP JUMPDEST SWAP1 POP PUSH2 0x5C2 PUSH1 0x20 DUP4 ADD DUP5 PUSH2 0x430 JUMP JUMPDEST SWAP4 SWAP3 POP POP POP JUMP JUMPDEST PUSH0 PUSH1 0x20 DUP3 DUP5 SUB SLT ISZERO PUSH2 0x5DE JUMPI PUSH2 0x5DD PUSH2 0x461 JUMP JUMPDEST JUMPDEST PUSH0 PUSH2 0x5EB DUP5 DUP3 DUP6 ADD PUSH2 0x4D9 JUMP JUMPDEST SWAP2 POP POP SWAP3 SWAP2 POP POP JUMP JUMPDEST PUSH0 DUP1 REVERT JUMPDEST PUSH0 DUP1 REVERT JUMPDEST PUSH32 0x4E487B7100000000000000000000000000000000000000000000000000000000 PUSH0 MSTORE PUSH1 0x41 PUSH1 0x4 MSTORE PUSH1 0x24 PUSH0 REVERT JUMPDEST PUSH2 0x632 DUP3 PUSH2 0x553 JUMP JUMPDEST DUP2 ADD DUP2 DUP2 LT PUSH8 0xFFFFFFFFFFFFFFFF DUP3 GT OR ISZERO PUSH2 0x651 JUMPI PUSH2 0x650 PUSH2 0x5FC JUMP JUMPDEST JUMPDEST DUP1 PUSH1 0x40 MSTORE POP POP POP JUMP JUMPDEST PUSH0 PUSH2 0x663 PUSH2 0x458 JUMP JUMPDEST SWAP1 POP PUSH2 0x66F DUP3 DUP3 PUSH2 0x629 JUMP JUMPDEST SWAP2 SWAP1 POP JUMP JUMPDEST PUSH0 PUSH8 0xFFFFFFFFFFFFFFFF DUP3 GT ISZERO PUSH2 0x68E JUMPI PUSH2 0x68D PUSH2 0x5FC JUMP JUMPDEST JUMPDEST PUSH2 0x697 DUP3 PUSH2 0x553 JUMP JUMPDEST SWAP1 POP PUSH1 0x20 DUP2 ADD SWAP1 POP SWAP2 SWAP1 POP JUMP JUMPDEST DUP3 DUP2 DUP4 CALLDATACOPY PUSH0 DUP4 DUP4 ADD MSTORE POP POP POP JUMP JUMPDEST PUSH0 PUSH2 0x6C4 PUSH2 0x6BF DUP5 PUSH2 0x674 JUMP JUMPDEST PUSH2 0x65A JUMP JUMPDEST SWAP1 POP DUP3 DUP2 MSTORE PUSH1 0x20 DUP2 ADD DUP5 DUP5 DUP5 ADD GT ISZERO PUSH2 0x6E0 JUMPI PUSH2 0x6DF PUSH2 0x5F8 JUMP JUMPDEST JUMPDEST PUSH2 0x6EB DUP5 DUP3 DUP6 PUSH2 0x6A4 JUMP JUMPDEST POP SWAP4 SWAP3 POP POP POP JUMP JUMPDEST PUSH0 DUP3 PUSH1 0x1F DUP4 ADD SLT PUSH2 0x707 JUMPI PUSH2 0x706 PUSH2 0x5F4 JUMP JUMPDEST JUMPDEST DUP2 CALLDATALOAD PUSH2 0x717 DUP5 DUP3 PUSH1 0x20 DUP7 ADD PUSH2 0x6B2 JUMP JUMPDEST SWAP2 POP POP SWAP3 SWAP2 POP POP JUMP JUMPDEST PUSH0 DUP1 PUSH1 0x40 DUP4 DUP6 SUB SLT ISZERO PUSH2 0x736 JUMPI PUSH2 0x735 PUSH2 0x461 JUMP JUMPDEST JUMPDEST PUSH0 DUP4 ADD CALLDATALOAD PUSH8 0xFFFFFFFFFFFFFFFF DUP2 GT ISZERO PUSH2 0x753 JUMPI PUSH2 0x752 PUSH2 0x465 JUMP JUMPDEST JUMPDEST PUSH2 0x75F DUP6 DUP3 DUP7 ADD PUSH2 0x6F3 JUMP JUMPDEST SWAP3 POP POP PUSH1 0x20 PUSH2 0x770 DUP6 DUP3 DUP7 ADD PUSH2 0x4D9 JUMP JUMPDEST SWAP2 POP POP SWAP3 POP SWAP3 SWAP1 POP JUMP JUMPDEST PUSH32 0x4E487B7100000000000000000000000000000000000000000000000000000000 PUSH0 MSTORE PUSH1 0x22 PUSH1 0x4 MSTORE PUSH1 0x24 PUSH0 REVERT JUMPDEST PUSH0 PUSH1 0x2 DUP3 DIV SWAP1 POP PUSH1 0x1 DUP3 AND DUP1 PUSH2 0x7BE JUMPI PUSH1 0x7F DUP3 AND SWAP2 POP JUMPDEST PUSH1 0x20 DUP3 LT DUP2 SUB PUSH2 0x7D1 JUMPI PUSH2 0x7D0 PUSH2 0x77A JUMP JUMPDEST JUMPDEST POP SWAP2 SWAP1 POP JUMP JUMPDEST PUSH32 0x506572736F6E20696E646578206F7574206F6620626F756E6473000000000000 PUSH0 DUP3 ADD MSTORE POP JUMP JUMPDEST PUSH0 PUSH2 0x80B PUSH1 0x1A DUP4 PUSH2 0x535 JUMP JUMPDEST SWAP2 POP PUSH2 0x816 DUP3 PUSH2 0x7D7 JUMP JUMPDEST PUSH1 0x20 DUP3 ADD SWAP1 POP SWAP2 SWAP1 POP JUMP JUMPDEST PUSH0 PUSH1 0x20 DUP3 ADD SWAP1 POP DUP2 DUP2 SUB PUSH0 DUP4 ADD MSTORE PUSH2 0x838 DUP2 PUSH2 0x7FF JUMP JUMPDEST SWAP1 POP SWAP2 SWAP1 POP JUMP JUMPDEST PUSH32 0x4E487B7100000000000000000000000000000000000000000000000000000000 PUSH0 MSTORE PUSH1 0x32 PUSH1 0x4 MSTORE PUSH1 0x24 PUSH0 REVERT JUMPDEST PUSH0 DUP2 SWAP1 POP DUP2 PUSH0 MSTORE PUSH1 0x20 PUSH0 KECCAK256 SWAP1 POP SWAP2 SWAP1 POP JUMP JUMPDEST PUSH0 PUSH1 0x20 PUSH1 0x1F DUP4 ADD DIV SWAP1 POP SWAP2 SWAP1 POP JUMP JUMPDEST PUSH0 DUP3 DUP3 SHL SWAP1 POP SWAP3 SWAP2 POP POP JUMP JUMPDEST PUSH0 PUSH1 0x8 DUP4 MUL PUSH2 0x8C8 PUSH32 0xFFFFFFFFFFFFFFFFFFFFFFFFFFFFFFFFFFFFFFFFFFFFFFFFFFFFFFFFFFFFFFFF DUP3 PUSH2 0x88D JUMP JUMPDEST PUSH2 0x8D2 DUP7 DUP4 PUSH2 0x88D JUMP JUMPDEST SWAP6 POP DUP1 NOT DUP5 AND SWAP4 POP DUP1 DUP7 AND DUP5 OR SWAP3 POP POP POP SWAP4 SWAP3 POP POP POP JUMP JUMPDEST PUSH0 DUP2 SWAP1 POP SWAP2 SWAP1 POP JUMP JUMPDEST PUSH0 PUSH2 0x90D PUSH2 0x908 PUSH2 0x903 DUP5 PUSH2 0x427 JUMP JUMPDEST PUSH2 0x8EA JUMP JUMPDEST PUSH2 0x427 JUMP JUMPDEST SWAP1 POP SWAP2 SWAP1 POP JUMP JUMPDEST PUSH0 DUP2 SWAP1 POP SWAP2 SWAP1 POP JUMP JUMPDEST PUSH2 0x926 DUP4 PUSH2 0x8F3 JUMP JUMPDEST PUSH2 0x93A PUSH2 0x932 DUP3 PUSH2 0x914 JUMP JUMPDEST DUP5 DUP5 SLOAD PUSH2 0x899 JUMP JUMPDEST DUP3 SSTORE POP POP POP POP JUMP JUMPDEST PUSH0 SWAP1 JUMP JUMPDEST PUSH2 0x94E PUSH2 0x942 JUMP JUMPDEST PUSH2 0x959 DUP2 DUP5 DUP5 PUSH2 0x91D JUMP JUMPDEST POP POP POP JUMP JUMPDEST JUMPDEST DUP2 DUP2 LT ISZERO PUSH2 0x97C JUMPI PUSH2 0x971 PUSH0 DUP3 PUSH2 0x946 JUMP JUMPDEST PUSH1 0x1 DUP2 ADD SWAP1 POP PUSH2 0x95F JUMP JUMPDEST POP POP JUMP JUMPDEST PUSH1 0x1F DUP3 GT ISZERO PUSH2 0x9C1 JUMPI PUSH2 0x992 DUP2 PUSH2 0x86C JUMP JUMPDEST PUSH2 0x99B DUP5 PUSH2 0x87E JUMP JUMPDEST DUP2 ADD PUSH1 0x20 DUP6 LT ISZERO PUSH2 0x9AA JUMPI DUP2 SWAP1 POP JUMPDEST PUSH2 0x9BE PUSH2 0x9B6 DUP6 PUSH2 0x87E JUMP JUMPDEST DUP4 ADD DUP3 PUSH2 0x95E JUMP JUMPDEST POP POP JUMPDEST POP POP POP JUMP JUMPDEST PUSH0 DUP3 DUP3 SHR SWAP1 POP SWAP3 SWAP2 POP POP JUMP JUMPDEST PUSH0 PUSH2 0x9E1 PUSH0 NOT DUP5 PUSH1 0x8 MUL PUSH2 0x9C6 JUMP JUMPDEST NOT DUP1 DUP4 AND SWAP2 POP POP SWAP3 SWAP2 POP POP JUMP JUMPDEST PUSH0 PUSH2 0x9F9 DUP4 DUP4 PUSH2 0x9D2 JUMP JUMPDEST SWAP2 POP DUP3 PUSH1 0x2 MUL DUP3 OR SWAP1 POP SWAP3 SWAP2 POP POP JUMP JUMPDEST PUSH2 0xA12 DUP3 PUSH2 0x52B JUMP JUMPDEST PUSH8 0xFFFFFFFFFFFFFFFF DUP2 GT ISZERO PUSH2 0xA2B JUMPI PUSH2 0xA2A PUSH2 0x5FC JUMP JUMPDEST JUMPDEST PUSH2 0xA35 DUP3 SLOAD PUSH2 0x7A7 JUMP JUMPDEST PUSH2 0xA40 DUP3 DUP3 DUP6 PUSH2 0x980 JUMP JUMPDEST PUSH0 PUSH1 0x20 SWAP1 POP PUSH1 0x1F DUP4 GT PUSH1 0x1 DUP2 EQ PUSH2 0xA71 JUMPI PUSH0 DUP5 ISZERO PUSH2 0xA5F JUMPI DUP3 DUP8 ADD MLOAD SWAP1 POP JUMPDEST PUSH2 0xA69 DUP6 DUP3 PUSH2 0x9EE JUMP JUMPDEST DUP7 SSTORE POP PUSH2 0xAD0 JUMP JUMPDEST PUSH1 0x1F NOT DUP5 AND PUSH2 0xA7F DUP7 PUSH2 0x86C JUMP JUMPDEST PUSH0 JUMPDEST DUP3 DUP2 LT ISZERO PUSH2 0xAA6 JUMPI DUP5 DUP10 ADD MLOAD DUP3 SSTORE PUSH1 0x1 DUP3 ADD SWAP2 POP PUSH1 0x20 DUP6 ADD SWAP5 POP PUSH1 0x20 DUP2 ADD SWAP1 POP PUSH2 0xA81 JUMP JUMPDEST DUP7 DUP4 LT ISZERO PUSH2 0xAC3 JUMPI DUP5 DUP10 ADD MLOAD PUSH2 0xABF PUSH1 0x1F DUP10 AND DUP3 PUSH2 0x9D2 JUMP JUMPDEST DUP4 SSTORE POP JUMPDEST PUSH1 0x1 PUSH1 0x2 DUP9 MUL ADD DUP9 SSTORE POP POP POP JUMPDEST POP POP POP POP POP POP JUMP INVALID LOG2 PUSH5 0x6970667358 0x22 SLT KECCAK256 ADDMOD LOG2 KECCAK256 PUSH26 0x906F09FAE8BE12F436AABB1BA6B6CEB1A9D13A15AD8CD6C7FAA3 0x4C 0x2F PUSH5 0x736F6C6343 STOP ADDMOD BYTE STOP CALLER "
		},
		"gasEstimates": {
			"creation": {
				"codeDepositCost": "566000",
				"executionCost": "598",
				"totalCost": "566598"
			},
			"external": {
				"addPerson(string,uint256)": "infinite",
				"getPerson(uint256)": "infinite",
				"getPersonCount()": "2505",
				"personDetails(address,uint256)": "infinite"
			}
		},
		"methodIdentifiers": {
			"addPerson(string,uint256)": "6f760f41",
			"getPerson(uint256)": "246982c4",
			"getPersonCount()": "1ed52ed8",
			"personDetails(address,uint256)": "201b920e"
		}
	},
	"abi": [
		{
			"inputs": [
				{
					"internalType": "string",
					"name": "_name",
					"type": "string"
				},
				{
					"internalType": "uint256",
					"name": "_age",
					"type": "uint256"
				}
			],
			"name": "addPerson",
			"outputs": [],
			"stateMutability": "nonpayable",
			"type": "function"
		},
		{
			"inputs": [
				{
					"internalType": "uint256",
					"name": "index",
					"type": "uint256"
				}
			],
			"name": "getPerson",
			"outputs": [
				{
					"internalType": "string",
					"name": "",
					"type": "string"
				},
				{
					"internalType": "uint256",
					"name": "",
					"type": "uint256"
				}
			],
			"stateMutability": "view",
			"type": "function"
		},
		{
			"inputs": [],
			"name": "getPersonCount",
			"outputs": [
				{
					"internalType": "uint256",
					"name": "",
					"type": "uint256"
				}
			],
			"stateMutability": "view",
			"type": "function"
		},
		{
			"inputs": [
				{
					"internalType": "address",
					"name": "",
					"type": "address"
				},
				{
					"internalType": "uint256",
					"name": "",
					"type": "uint256"
				}
			],
			"name": "personDetails",
			"outputs": [
				{
					"internalType": "string",
					"name": "name",
					"type": "string"
				},
				{
					"internalType": "uint256",
					"name": "age",
					"type": "uint256"
				}
			],
			"stateMutability": "view",
			"type": "function"
		}
	]
}